:020000040800F2
:1000000038520020DD630008496200084B62000896
:100010004D6200084F6200085162000800000000B5
:10002000000000000000000000000000D55E000895
:1000300053620008000000007D5E000809520008BD
:100040002164000825640008296400082D64000864
:100050003164000835640008396400083D64000814
:100060004164000845640008496400084D640008C4
:100070005164000855640008596400085D64000874
:100080006164000865640008696400086D64000824
:100090007164000875640008796400087D640008D4
:1000A0008164000885640008896400088D64000884
:1000B0009164000895640008996400089D64000834
:1000C000A1640008A5640008A9640008AD640008E4
:1000D000B1640008B5640008B9640008BD64000894
:1000E000C1640008C5640008C9640008CD64000844
:1000F000D1640008D5640008D9640008DD640008F4
:10010000E1640008E5640008E9640008ED640008A3
:10011000F1640008F564000855620008F9640008FD
:10012000FD64000801650008056500080965000810
:100130000D650008116500081565000819650008BF
:100140001D65000821650008256500085F6200083C
:10015000296500082D65000831650008356500082F
:10016000396500083D6500084165000845650008DF
:10017000496500084D650008516500080000000051
:10018000556500085965000838B58AB00400002C90
:1001900001D1012031E0256894F8B902002805D189
:1001A000002084F8B802200000F078FE032084F8D4
:1001B000B902E86BC00501D400202061206800F07E
:1001C00005FF211D83B06846342201F01BF90EBCE7
:1001D000206800F0BBFE0121206800F0FDFE211D1B
:1001E00083B06846342201F00DF90EBC206800F09F
:1001F00069FF012084F8B90200200BB030BDF8B5CA
:1002000004002568206800F03CFF012840F0908041
:10021000206800F031FF002800F08A80206800F09C
:100220002BFF800203D55FF400102168486120682D
:1002300000F022FFC00203D55FF4801021684861FE
:10024000206800F019FF400103D55FF0806021684D
:100250004861206800F010FF800702D50220216865
:100260004861206800F008FF80000FD55FF0005063
:100270002168486115F588600068C00706D4200031
:1002800001F003F90121206800F09EFF206800F0D2
:10029000F3FEC00102D5200000F096FD206800F0BA
:1002A000EBFE000705D5200001F0F0F808202168DA
:1002B0004861206800F0E0FE800125D5206800F04C
:1002C000D1FF0600002718E03900C9B2200000F075
:1002D000DFFA11E017F00F003100C140C8070BD55D
:1002E00015EB471010F5A06000680004ECD539004C
:1002F000C9B2200000F01DF87F1CA0688742E9D336
:100300005FF0007021684861206800F0B5FEC0060B
:100310000ED52068806930F01000216888612000C7
:1003200000F0F2FC2068806950F0100021688861BC
:10033000F1BDF8B504000E002568F6B215EB4610C5
:1003400010F5A0608068400712D515EB461010F537
:10035000A0600421816015EB461010F5A06015EB3C
:10036000461111F5A061C96851F00201C1608CE02D
:1003700015EB461010F5A0608068C0051FD515EB81
:10038000461010F5A0604FF480718160072028218D
:1003900001FB06F1214481F85D0015EB461010F5D4
:1003A000A06015EB461111F5A061C96851F002017A
:1003B000C1603100C9B2206800F059FF65E015EB5B
:1003C000461010F5A0608068800606D515EB461033
:1003D00010F5A0602021816057E015EB461010F564
:1003E000A0608068000724D515EB461010F5A060CA
:1003F00015EB461111F5A061C96851F00201C16009
:100400000520282101FB06F1214481F85D0015EB50
:10041000461010F5A0601021816015EB461010F514
:10042000A060082181603100C9B2206800F01FFF80
:100430002BE015EB461010F5A0608068400524D530
:1004400015EB461010F5A06015EB461111F5A061F3
:10045000C96851F00201C1603100C9B2206800F0E2
:1004600006FF15EB461010F5A060102181600820F2
:10047000282101FB06F1214481F85D0015EB4610AF
:1004800010F5A0604FF48061816015EB461010F507
:10049000A0608068800518D515EB461010F5A060A7
:1004A00015EB461111F5A061C96851F00201C16058
:1004B0003100C9B2206800F0DAFE15EB461515F5DB
:1004C000A0654FF40070A860E1E115EB461010F54F
:1004D000A0608068C00740F1A0802069002810D08B
:1004E000282000FB06F12144896C15EB461212F519
:1004F000A06212695203520B891A00FB06F02044D5
:10050000C1642827012007FB06F1214481F85D0022
:10051000002007FB06F12144886515EB461010F515
:10052000A0600121816007FB06F0204490F83F00A5
:10053000002806D007FB06F0204490F83F00022870
:1005400017D115EB461010F5A06015EB461111F50B
:10055000A061C96851F00201C1603100C9B22068D0
:1005600000F085FE15EB461515F5A0651020A86076
:1005700046E007FB06F0204490F83F0003281CD11A
:1005800015EB461010F5A060006850F0005015EB18
:10059000461515F5A0652860012007FB06F12144EA
:1005A00081F85C0007FB06F0204490F85C203100E5
:1005B000C9B2200000F06BFF22E007FB06F02044E8
:1005C00090F83F0001281BD1012007FB06F12144D0
:1005D00081F85C0007FB06F0204490F8500090F092
:1005E000010007FB06F1214481F8500007FB06F0EB
:1005F000204490F85C203100C9B2200000F047FF91
:1006000007FB06F0204490F8500090F001007E4374
:1006100004EB060181F8500039E115EB461010F5A6
:10062000A0608068800740F1AA8015EB461010F5A5
:10063000A06015EB461111F5A061C96831F0020107
:10064000C160282000FB06F1214491F85D100129CA
:1006500006D1012100FB06F2224482F85C107DE005
:1006600000FB06F1214491F85D10052906D1052112
:1006700000FB06F2224482F85C106FE000FB06F1FA
:10068000214491F85D10062906D000FB06F12144B3
:1006900091F85D1008292FD100FB06F12144896DE6
:1006A000491C00FB06F22244916500FB06F121443F
:1006B000896D04290BD3002100FB06F222449165C9
:1006C000042100FB06F2224482F85C1005E00221BE
:1006D00000FB06F2224482F85C1015EB461111F57E
:1006E000A061096831F0804151F0004115EB4612DC
:1006F00012F5A062116031E000FB06F1214491F88F
:100700005D10032914D1022100FB06F2224482F875
:100710005C1015EB461111F5A061096831F08041BC
:1007200051F0004115EB461212F5A062116015E080
:1007300000FB06F1214491F85D1007290ED100FB62
:1007400006F12144896D491C00FB06F222449165A3
:10075000042100FB06F2224482F85C1015EB4615DA
:1007600015F5A0650221A96000FB06F0204490F871
:100770005C203100C9B2200000F089FE87E015EB53
:10078000461010F5A0608068000627D515EB4610CE
:1007900010F5A06015EB461111F5A061C96851F084
:1007A0000201C160282000FB06F12144896D491C2B
:1007B00000FB06F222449165062100FB06F020446E
:1007C00080F85D103100C9B2206800F050FD15EBD3
:1007D000461515F5A0658020A86058E015EB461079
:1007E00010F5A0608068C00651D5282101FB06F0F5
:1007F000204490F83F00032816D1002001FB06F1A9
:100800002144886515EB461010F5A06015EB4611E4
:1008100011F5A061C96851F00201C1603100C9B28F
:10082000206800F024FD2CE001FB06F0204490F845
:100830003F00002806D001FB06F0204490F83F005E
:1008400002281ED1002001FB06F222449065206997
:10085000002816D1032001FB06F1214481F85D0038
:1008600015EB461010F5A06015EB461111F5A061CF
:10087000C96851F00201C1603100C9B2206800F0BE
:10088000F6FC15EB461515F5A0651020A860F1BD26
:10089000F8B506000C003568E4B215EB441010F50D
:1008A000A0608068400712D515EB441010F5A060D9
:1008B0000421816015EB441010F5A06015EB441580
:1008C00015F5A065E96851F00201C1601BE215EB66
:1008D000441010F5A060806880062CD515EB4410FC
:1008E00010F5A06020218160282000FB04F1314434
:1008F00091F83D10012940F00682002100FB04F22E
:10090000324482F83D10022100FB04F0304480F8AC
:100910005C1015EB441010F5A06015EB441515F5AF
:10092000A065E96851F00201C1602100C9B23068D8
:1009300000F09DFCE7E115EB441010F5A060806825
:10094000400629D52820042100FB04F2324482F815
:100950005D10012100FB04F2324482F83D100021B9
:1009600000FB04F03044816515EB441010F5A060E5
:1009700015EB441111F5A061C96851F00201C16085
:100980002100C9B2306800F072FC15EB441515F572
:10099000A0654020A860B6E115EB441010F5A060FA
:1009A0008068800518D515EB441010F5A06015EB94
:1009B000441111F5A061C96851F00201C160210024
:1009C000C9B2306800F053FC15EB441515F5A0656D
:1009D0004FF40070A86096E115EB441010F5A0608C
:1009E0008068C00723D52827002007FB04F1314485
:1009F000886515EB441010F5A06015EB441111F556
:100A0000A061C96851F00201C1602100C9B230681B
:100A100000F02DFC15EB441515F5A0650120A8602C
:100A200001207C4306EB040181F85D006BE115EBCE
:100A3000441010F5A060806800071ED515EB441027
:100A400010F5A0600821816015EB441010F5A0603E
:100A500015EB441515F5A065E96851F00201C16078
:100A60002100C9B2306800F002FC0521282044436F
:100A700006EB040080F85D1045E115EB441010F51D
:100A8000A0608068C00637D52821002001FB04F251
:100A900032449065032001FB04F2324482F85D0089
:100AA00001FB04F0304490F83D0000280CD101FB1C
:100AB00004F0304490F83C00002805D1012001FBEF
:100AC00004F1314481F83D0015EB441010F5A060AD
:100AD00015EB441111F5A061C96851F00201C16024
:100AE0002100C9B2306800F0C2FB15EB441515F5C2
:100AF000A0651020A86006E115EB441010F5A06079
:100B0000806800061ED515EB441010F5A06015EBAB
:100B1000441111F5A061C96851F00201C1602100C2
:100B2000C9B2306800F0A3FB0620282101FB04F1C4
:100B3000314481F85D0015EB441515F5A065802062
:100B4000A860E0E015EB441010F5A0608068400557
:100B500025D515EB441010F5A06015EB441111F5E7
:100B6000A061C96851F00201C1602100C9B23068BA
:100B700000F07DFB15EB441010F5A06010218160A2
:100B800015EB441515F5A0654FF48060A8600821A9
:100B90002820444306EB040080F85D10B3E015EB19
:100BA000441010F5A0608068800740F1AC8015EB20
:100BB000441010F5A06015EB441111F5A061C9684F
:100BC00031F00201C160282000FB04F1314491F8AA
:100BD0005D10012920D1012100FB04F2324482F88A
:100BE0005C1000FB04F1314491F83F10022906D05B
:100BF00000FB04F1314491F83F10032973D100FB4D
:100C000004F1314491F8511091F0010100FB04F21C
:100C1000324482F8511066E000FB04F1314491F84F
:100C20005D10032906D1022100FB04F2324482F850
:100C30005C1058E000FB04F1314491F85D10042988
:100C400006D1022100FB04F2324482F85C104AE033
:100C500000FB04F1314491F85D10052906D105210E
:100C600000FB04F2324482F85C103CE000FB04F12B
:100C7000314491F85D10062906D000FB04F131449F
:100C800091F85D1008292ED100FB04F13144896DE3
:100C9000491C00FB04F23244916500FB04F131442D
:100CA000896D04290BD3002100FB04F232449165C5
:100CB000042100FB04F2324482F85C1005E00221BA
:100CC00000FB04F2324482F85C1015EB441111F57C
:100CD000A061096831F0804151F0004115EB4412E8
:100CE00012F5A062116015EB441515F5A0650221FF
:100CF000A96000FB04F0304490F85C202100C9B2E8
:100D0000300000F0C4FBF1BD2DE9F04105002E6874
:100D10002868016A11F00F07C1F34340C1F30A14B8
:100D2000022802D0052849D049E0002C45D05FF0C8
:100D3000280808FB07F02844406C00283DD022001A
:100D400092B208FB07F02844416C286800F082F951
:100D500008FB07F02844406C204408FB07F12944B5
:100D6000486408FB07F02844C06C241808FB07F00F
:100D70002844C46416EB471010F5A06000691149BF
:100D800008421AD016EB471010F5A060006830F04A
:100D9000804050F0004016EB471616F5A066306014
:100DA00008FB07F0284490F8500090F0010008FB81
:100DB00007F705EB070181F8500000E0FFE7BDE809
:100DC000F08100000000F81F3EB50400256815F50D
:100DD00088600068019015F58860006800900098B0
:100DE00030F02E0000900198800709D50198C007C7
:100DF00002D5200000F04CFB009850F0020000905B
:100E00000198000728D5009850F00800009001983C
:100E100040071ED5A06902280FD1019810F4C02008
:100E2000B0F5802F04D10221206800F0CDF90CE04C
:100E30000121206800F0C8F907E0E068012804D12A
:100E40004EF6602015F580614860200000F021FB1F
:100E500002E0200000F01EFB0198800603D50098F8
:100E600050F020000090009815F58865286037BD87
:100E700080B531485FF0A041016008218160012107
:100E8000C16000210161022181610021C161FFF780
:100E90007BF9002801D000F0A9FB01BD10B586B098
:100EA00004001422002101A800F0A2FB2068B0F188
:100EB000A04F3FD1002000902048016851F001016F
:100EC0000160006810F00100009000984FF400707D
:100ED00001900020029000200390194C01A92000ED
:100EE00000F090FB4FF4E0500190022002900020AF
:100EF0000390002004900A20059001A9200000F032
:100F000081FB1048016851F08001016000200090D1
:100F10000D48016851F480410160006810F4804080
:100F20000090009800220521432000F0CDFC4320D2
:100F300000F0DBFC06B010BDAC44002030380240AD
:100F40000000024034380240443802400EB418B564
:100F500004000898012817D1A06B30F48030A063FA
:100F6000E168DFF8EC000140E160E06830F4401037
:100F7000E0600F98012803D1E06850F48010E06031
:100F8000200000F082F812E0E06850F04000E060DD
:100F9000200000F07AF80C99002904D1A16B51F4DB
:100FA0008031A16303E0A16B31F48031A163069924
:100FB000012907D1A16851F00601A160A16851F093
:100FC0002001A160C0B212BC5DF810FB8168490825
:100FD000490081600020704780B5C26832F0C0428D
:100FE000C2600A00D2B2012A08D1C16851F0005192
:100FF000C160322000F088FC002002BDC9B2002987
:1010000004D1C16851F08041C160F2E70120F4E7EA
:101010000022890151F020010161521CDFF8A0106B
:101020008A4204D201698906F7D400207047032060
:10103000FCE7002110220261491CDFF88420914264
:1010400004D20269D206F7D4002070470320FCE7DF
:10105000BFFFBDFF30B492B2D21C9208002306E05D
:1010600010F5805424680D002C60091D5B1C934210
:10107000F6D3080030BC7047010048698969084010
:101080007047406910F0010070470021491C0C4A6C
:1010900091420FD20369002BF8D50021036953F068
:1010A00001030361491C914206D20369DB07F9D4AD
:1010B000002070470320FCE70320FAE7000000004F
:1010C000410D03000EB430B504002500002015F5D5
:1010D00060610860A06B50F40010A063A06B30F456
:1010E0000020A063A06B30F48020A063E06BC005FB
:1010F00014D50598012808D115F58060006850F0D6
:10110000040015F58061086010E015F58060006846
:1011100030F0040015F58061086007E015F5806087
:10112000006830F0040015F580610860102120008F
:10113000FFF76EFF2000FFF77CFF00200DE015EBAE
:10114000401111F5A0615FF0FF328A6015EB40118C
:1011500011F5A0610022CA60401C04998842EED3B8
:101160000121200000F057F8C82000F0CDFB00203E
:10117000A0615FF0FF306061E06BC0050AD54FF4FD
:1011800000706062DFF84802A062DFF84802C4F82D
:10119000000108E080206062DFF83C02A062DFF816
:1011A0003C02C4F800010698002803D1A06950F061
:1011B0001000A061A169DFF828020143A1610020AD
:1011C00030BC5DF810FB000010F5806212689208D8
:1011D000920010F580631A6010F5806212680B00AF
:1011E000DBB213F003031A4310F580631A600A00A0
:1011F000D2B2012A05D14BF6803110F580604160F2
:1012000007E0C9B2022904D141F2707110F5806083
:1012100041600020704781B00022009210F5886282
:1012200012680092009A32F02E020092009AD204C4
:1012300009D40A00D2B2012A05D1009A52F4805290
:1012400010F588631A60009AD20408D5C9B2002943
:1012500005D1009931F4805110F5886001600020BB
:1012600001B0704710F58060406980B2704730B4BB
:101270000300C9B2002413EB411212F5A0621268F8
:10128000C2F38142002A01D0022A4ED113EB41124F
:1012900012F5A062126852F0804213EB411515F569
:1012A000A0652A60C06A10F47F0F31D113EB4110A2
:1012B00010F5A060006820F0004013EB411212F519
:1012C000A062106013EB411010F5A060006850F0B0
:1012D000004013EB411212F5A062106013EB4110B5
:1012E00010F5A060006830F4004013EB411212F5D5
:1012F000A0621060641C40F2E930844207D213EB14
:10130000411010F5A06000680028F3D45DE05CE0B7
:1013100013EB411010F5A060006850F0004013EB93
:10132000411313F5A06318604FE013EB411010F563
:10133000A060006850F0804013EB411212F5A062EB
:10134000106013F58060006910F47F0F31D113EB4A
:10135000411010F5A060006820F0004013EB41122E
:1013600012F5A062106013EB411010F5A060006848
:1013700050F0004013EB411212F5A062106013EB25
:10138000411010F5A060006830F4004013EB4112EA
:1013900012F5A0621060641C40F2E930844207D26A
:1013A00013EB411010F5A06000680028F3D40CE0A6
:1013B0000BE013EB411010F5A060006850F0004006
:1013C00013EB411313F5A0631860002030BC704785
:1013D000000200010003E00080006000E000400027
:1013E000080020A362B38B0708D0521E11F8013BFE
:1013F00000F8013B00F024808B07F6D1830740F012
:10140000208000BF103A07D330B4B1E83810103A4A
:10141000A0E83810F9D230BC530724BFB1E8081057
:10142000A0E8081044BF51F8043B40F8043BD20741
:1014300024BF31F8022B20F8022B44BF0B78037035
:101440007047121F17D35B0009D151F8043B20F8F5
:10145000023B1B0C121F20F8023BF6D20BE051F8A6
:10146000043B00F8013B1B0A20F8023B1B0C121F37
:1014700000F8013BF3D238BF121D521E24BF11F8F1
:10148000013B00F8013BF8D8704770477047704740
:1014900070477047704730B4002513E050F8042BB4
:1014A000D30744BFA9F101039A18091F042942F880
:1014B000045BFAD213468C0744BF15809B1CC907F6
:1014C00048BF1D7050F8041B0029E7D130BC70479D
:1014D00080B500F02DFA00F015F800F043FA00F0A6
:1014E00021FB00F07DFB00F0F3FB00F053FC00F06B
:1014F00095FCFFF7BDFC00F060FD00F0D9FE00F0A8
:101500007CFDFEE780B596B0302200210AA800F0ED
:101510006FF81422002105A800F06AF810220021BB
:1015200001A800F065F8002000902D48016851F0F6
:1015300080510160006810F08050009000980020F9
:1015400000902848016851F480410160006810F45F
:1015500080400090009801200A905FF480300B904A
:10156000022010905FF480001190082012904FF438
:10157000A870139002201490072015900AA800F07C
:101580002BFF002801D000F031F80F200590022039
:101590000690002007904FF4A05008904FF4805020
:1015A0000990052105A801F0F1F8002801D000F00C
:1015B0001DF801200190C02002900220039001A894
:1015C00001F0F8F9002801D000F010F817B000BDC4
:1015D00080B500680449884201D101F0CBFA01BD11
:1015E00040380240007000400010004072B6FEE734
:1015F00010B5044610460A460146204601F0C6FAD8
:10160000204610BDF8B4002200220022002337E05B
:10161000082704E0DFF8D0219042F9D10727FFB274
:1016200013F00302D2B2920097403E431A00920890
:1016300045F82260DFF8B4512A68A2434E68F603E9
:1016400000D522432A60DFF8A8512A68A2434E68D9
:10165000B60300D522432A60DFF898512A68A243D6
:101660004E68F60200D522432A60DFF88C512A68C2
:10167000A2434E68B60201D5144322002A605B1CC7
:10168000102B80F0A580012515FA03F20C68144098
:101690009442F4D14A68012A08D04A68022A05D047
:1016A0004A68112A02D04A68122A16D1866803278E
:1016B0001A00D2B252009740BE43CF681A00D2B28D
:1016C000520097403E43866042689D40AA434D6861
:1016D000C5F300159D402A434260C66803251A00E1
:1016E000D2B2520015FA02F296438F681A00D2B2B3
:1016F000520097403E43C6604A68022A02D04A68B8
:10170000122A17D11A00D20800EB8202166A0F279C
:1017100013F00702D2B292009740BE430F6913F054
:101720000702D2B2920097403E431A00D20800EB63
:101730008202166206681A00D2B252009540AE4389
:101740000D7915F003051A00D2B2520095402E43D0
:1017500006604A68D20092D500220092274A156896
:1017600055F480451560126812F480420092009A88
:10177000234D1A00920855F822600F2713F0030238
:10178000D2B292009740BE431E4A904201D1002738
:1017900045E71D4A904201D1012740E71B4A90428C
:1017A00001D102273BE71A4A904201D1032736E7CD
:1017B000184A904201D1042731E7174A904201D1DB
:1017C00005272CE7154A90427FF424AF062726E729
:1017D000F1BC7047D2B2002A02D089B2816102E026
:1017E00089B2090481617047001C0240003C01403D
:1017F000043C0140083C01400C3C0140443802409C
:101800000838014000000240000402400008024085
:10181000000C024000100240001402400018024078
:1018200010F00700334B1A684FF6FF010A403249A7
:1018300051EA00210A431A6070472E480068C0F33D
:1018400002207047010049B2002908D4012210F09B
:101850001F018A40294940B2400941F820207047C1
:10186000020052B2002A04D40901254A40B21154A0
:1018700007E00901234A40B210F00F00104400F8BD
:10188000041C704710B410F00700D0F10703052BBB
:1018900001D3042301E0D0F10703041D072C01D27A
:1018A000002000E0C01E012414FA03F35B1E19405F
:1018B000814014FA00F0401E1040084310BC7047ED
:1018C00080B5FFF7ADFF01BD70B504000D00160037
:1018D0000020FFF7B2FF32002900FFF7D3FF01001D
:1018E000200040B2FFF7BCFF70BD80B540B2FFF7EB
:1018F000A9FF01BD0CED00E00000FA0500E100E0E9
:1019000000E400E018ED00E038B5040001F072F9E1
:10191000050014F1010F02D004480078241801F0EA
:1019200069F9401BA042FAD331BD00BF4800002036
:1019300080B50B48016851F400710160016851F4F1
:1019400080610160016851F4807101600320FFF73C
:10195000B7FF002001F054F901F094F9002002BD16
:10196000003C02402DE9F04186B014220021684677
:10197000FFF73EFE002005906348016851F010011A
:101980000160016811F01001059105990021059190
:10199000016851F004010160016811F00401059132
:1019A000059900210591016851F0800101600168ED
:1019B00011F080010591059900210591016851F010
:1019C00001010160016811F00101059105990021F3
:1019D0000591016851F002010160016811F00201F6
:1019E0000591059900210591016851F008010160F8
:1019F000006810F0080005900598444C002208216A
:101A00002000FFF7E7FE424F00224FF4005138005C
:101A1000FFF7E0FE012201213800FFF7DBFE4FF265
:101A200010053C4E002229003000FFF7D3FE0820AD
:101A30000090012001900020029000200390694650
:101A40002000FFF7DFFD42F201000090012001902D
:101A5000002002900020039069463800FFF7D2FD75
:101A600008200090022001900020029000200390A6
:101A70000520049069463800FFF7C4FD012000905E
:101A8000254F01970020029069462448FFF7BAFDD0
:101A9000042000900020019000200290DFF8808058
:101AA00069464046FFF7AEFD4FF48060009002208B
:101AB00001900020029000200390052004906946C8
:101AC0004046FFF79FFD0095012001900020029005
:101AD0000020039069463000FFF794FD202000901D
:101AE000002001900020029069463000FFF78AFD37
:101AF0000220009001970020029069462000FFF725
:101B000081FD06B0BDE8F08130380240001002408F
:101B100000080240000C02400000121000000240C9
:101B20000004024080B528482849016028494160E6
:101B3000002181600021C1604FF4804101610021DA
:101B40004161002181610021C1610021016201F038
:101B5000BDF8002801D0FFF749FD01BD10B586B0E2
:101B600004001422002101A8FFF742FD2068174954
:101B7000884226D1002000901648016851F00201E9
:101B80000160006810F00200009000984FF410709F
:101B90000190122002900120039000200490042064
:101BA000059001A90C48FFF72DFD002000900B487F
:101BB000016851F400110160006810F400100090F9
:101BC000009806B010BD0000204B002000540040DB
:101BD000A086010030380240000402404038024034
:101BE00080B53448344901604FF4007141600022EF
:101BF00082600022C260016130494161002181613F
:101C00000021C1610021016201F054F9002801D0D6
:101C1000FFF7ECFC01BD10B586B0040014220021D2
:101C200001A8FFF7E5FC2068234988423FD1002046
:101C300000902348016851F400410160006810F4ED
:101C4000004000900098002000901E48016851F06C
:101C500001010160016811F001010091009900216A
:101C60000091016851F004010160006810F0040067
:101C70000090009810200190022002900020039014
:101C8000002004900620059001A90F48FFF7BAFC38
:101C90004FF4A450019002200290002003900020F5
:101CA00004900620059001A90848FFF7ABFC06B098
:101CB00010BD0000C44B0020003C00400077010034
:101CC0004038024030380240000002400008024024
:101CD00080B52B482B4901604FF48271416000218F
:101CE00081600021C16000210161002141614FF448
:101CF000007181610021C161002101620021416206
:101D0000002181620A21C16201F038FA002801D065
:101D1000FFF76CFC01BD10B586B004001422002151
:101D200001A8FFF765FC20681649884225D10020EC
:101D300000901548016851F480510160006810F46A
:101D4000805000900098002000901048016851F0E9
:101D500001010160006810F0010000900098E0208F
:101D600001900220029000200390002004900520A2
:101D7000059001A90648FFF745FC06B010BD00001C
:101D8000C84A002000300140443802403038024048
:101D90000000024018B58BB02422002102A8FFF7F2
:101DA00027FC082200216846FFF722FC794C7A487C
:101DB0002060002060600020A0604FF6FF70E060AF
:101DC00000202061002060618020A061032002903B
:101DD0000020039001200490002005900020069030
:101DE00000200790012008900020099000200A9010
:101DF00002A9200001F084FA002801D0FFF7F6FBC9
:101E000000200090002001906946200001F07EFD36
:101E1000002801D0FFF7EAFB0CB010BD18B589B05F
:101E2000082200216846FFF7E3FB1C22002102A8DC
:101E3000FFF7DEFB594C5A4820600020606000200C
:101E4000A06040F61F50E060002020618020A0616B
:101E5000200001F00BFA002801D0FFF7C7FB00209B
:101E60000090002001906946200001F04FFD0028FD
:101E700001D0FFF7BBFB6020029000200390002000
:101E8000049000200690082202A9200001F06CFBBB
:101E9000002801D0FFF7AAFB0C2202A9200001F0C4
:101EA00063FB002801D0FFF7A1FB200000F04AF8F7
:101EB0000AB010BD10B586B004001422002101A89C
:101EC000FFF796FB20683449884226D10020009015
:101ED0003448016851F001010160006810F0010010
:101EE00000900098002000902F48016851F01001E8
:101EF0000160006810F01000009000984FF420601E
:101F00000190022002900020039000200490012004
:101F1000059001A92548FFF775FB06B010BD81B0FB
:101F200000681F4988420BD10020009020480168BA
:101F300051F002010160006810F00200009000986A
:101F400001B0704710B586B004001422002101A82A
:101F5000FFF74EFB20681249884219D100200090FB
:101F60001148016851F002010160006810F00200A0
:101F7000009000980320019002200290002003901E
:101F8000002004900220059001A90A48FFF73AFBBF
:101F900006B010BD8C4C002000000140CC4C00204D
:101FA0000004004044380240303802400010024033
:101FB00040380240000402407047EFF305800028DB
:101FC0000CD1EFF31080002803D1EFF3118000282B
:101FD00007D0DFF8A0020068022802D17FF00500D8
:101FE0000AE0DFF890120868002803D10120086099
:101FF000002001E05FF0FF30704710B5EFF305807F
:1020000000280CD1EFF31080002803D1EFF31180EA
:10201000002807D0DFF85C020068022802D17FF0B8
:1020200005000EE0DFF84C422068012807D1FFF7D9
:10203000C3FF0220206001F010FE002001E05FF0ED
:10204000FF3010BDF8B584B000230393EFF3058390
:10205000002B63D1EFF31083002B03D1EFF3118337
:10206000002B04D0DFF80C321B68022B56D0030083
:10207000002B53D08025182300245FF0FF36002A60
:102080002ED01768002F00D014689769002F00D059
:102090009369002B04D0392B02D21779FF0701D5A1
:1020A00000203CE05769002F01D05569AD089768C2
:1020B000002F0AD0D7685C2F07D31769002F04D0F0
:1020C0005769002F01D001260BE09768002F08D137
:1020D000D768002F05D11769002F02D1002600E034
:1020E0000026012E0BD19668029612690192009388
:1020F0000B002A00210001F05FFC03900EE0002E8F
:102100000CD103AA019200930B002A0092B2210085
:1021100001F094FC012801D000200390039805B041
:10212000F0BD10B5EFF3058100290CD1EFF310815C
:10213000002903D1EFF31181002907D0DFF838110E
:102140000968022902D17FF0050404E00024002878
:1021500001D001F05CFD200010BD80B502F0A5FBB0
:102160000100002902D048680968884701BD2DE9AF
:10217000FC4105000F0090461C000026EFF305808F
:1021800000284CD1EFF31080002803D1EFF3118029
:10219000002803D037480068022840D028000028D3
:1021A0003DD0082002F0ACFB0300002B37D01D60AF
:1021B000C3F80480FFB2002F01D1002200E0012209
:1021C0005FF0FF350020002C13D02168002900D0DB
:1021D0002068A168002904D0E1682C2901D30125D9
:1021E00008E0A168002905D1E168002902D1002595
:1021F00000E00025012D09D1A1680191DFF87C10D4
:102200000091012102F010F9060008E0002D06D12E
:10221000DFF868100091012102F0EBF806003000B1
:10222000BDE8F68180B50A00EFF3058100290CD1E5
:10223000EFF31081002903D1EFF31181002907D0BA
:10224000DFF834100968022902D17FF0050010E0A0
:10225000002802D17FF003000BE000210091002351
:10226000042102F031F9012801D1002001E07FF0C2
:10227000020002BDAC4D0020AC4D00205B210008E7
:10228000074B036007480860802010607047064BCA
:102290000360064808604FF48070106070470000CB
:1022A000104A0020704700206C4A0020AC400020FB
:1022B00010B53C21374801F077F8374C0821200051
:1022C00000F0F0FF0C21200000F0ECFF334B002267
:1022D00001210FF24D00FFF74AFF31490860314AF2
:1022E00000210FF21D00FFF7ADFE2F4908602F4AB5
:1022F00000210FF21900FFF7A5FE2D49086010BD5F
:1023000080B50120FFF70DFFFBE7000080B50A2133
:1023100023480068FFF786FF0A20FFF702FFFBE76C
:1023200070B5244C244800682080200002F018FC7E
:10233000224E234D287A3178884211D0287A0028FD
:1023400006D04FF400521F49280002F0BCFC05E003
:102350004FF400521B49280002F0BDFC287A30706F
:10236000287A002815D0184E3100D4ED020A1748FB
:1023700090ED000A164802F0B6FC164C96ED000AE5
:1023800002F0F4FC84ED000A280094ED000A02F04B
:102390004DFC70BD8C4C0020CC4C0020BC63000870
:1023A000B84D002098620008B04D0020BC620008C3
:1023B000B44D0020984D002024000140304E0020F4
:1023C0000000002000080240C04D0020BC4D00204D
:1023D00014000020C44D00202DE9FC410400002C15
:1023E00001D10120BBE12078C0075ED5DFF874037E
:1023F000016811F00C01042909D0006810F00C00EC
:1024000008280ED1DFF860030068400209D5DFF824
:102410005C030068800348D56068002845D101202E
:102420009DE16068B0F5803F06D1DFF840030168A8
:1024300051F48031016018E06068B0F5A02F0AD136
:10244000DFF82803016851F480210160016851F42C
:102450008031016009E0DFF81403016831F4803154
:102460000160016831F480210160606800280ED0AD
:1024700000F0C0FB0500DFF8F4020068800314D40C
:1024800000F0B8FB401B6528F5D3032067E100F09E
:10249000B1FB0500B5480068800306D500F0AAFB33
:1024A000401B6528F6D3032059E1207880071DD50D
:1024B000AC48016811F00C0F08D0006810F00C0057
:1024C00008282AD1A8480068400226D4A7480168F5
:1024D000890704D5E168012901D001203FE10168A5
:1024E00031F0F801226951EAC20101602078000749
:1024F00051D5606900283DD001209D49086000F059
:1025000079FB05009B480068800744D400F072FB0B
:10251000401B0328F6D3032021E1E068002818D0EF
:1025200001209549086000F065FB05008F480168AF
:10253000890706D400F05EFB401B0328F6D3032076
:102540000DE1016831F0F801226951EAC201016030
:10255000CCE700208849086000F04CFB0500834868
:1025600000688007C2D500F045FB401B0328F6D366
:102570000320F4E000207E49086000F03BFB0500EA
:102580007C480068800706D500F034FB401B032818
:10259000F6D30320E3E0207840076FD50026774D7F
:1025A0002868C0000BD400200090286850F08050AC
:1025B0002860286810F08050009000980126704F25
:1025C0003868C00511D4386850F48070386000F065
:1025D00011FB80463868C00507D400F00BFBB0EB58
:1025E00008000328F6D30320B9E0A068012805D12C
:1025F0006448016851F00101016015E0A0680528F8
:1026000009D16048016851F004010160016851F08E
:102610000101016008E05B48016849084900016068
:10262000016831F004010160A06800280FD000F0BB
:10263000E1FA070053480068800718D400F0DAFA7E
:10264000C01B41F289318842F4D3032087E000F0B7
:10265000D1FA07004B480068800708D500F0CAFA95
:10266000C01B41F289318842F4D3032077E0F6B2EF
:10267000012E03D1286830F080502860A06900281E
:102680006CD03848006810F00C00082843D0A069CE
:1026900002282FD13C4E0020306000F0ABFA07003A
:1026A000324D2868800106D500F0A4FAC01B03282B
:1026B000F6D3032053E0E169206A0143606A51EADE
:1026C0008011A06A4008401E51EA0041E06A51EAC8
:1026D0000061254801600120306000F08BFA0400A1
:1026E000286880013AD400F085FA001B0328F7D34C
:1026F000032034E000202449086000F07BFA040045
:102700001A480068800129D500F074FA001B0328DC
:10271000F6D3032023E0A069012801D101201EE0A7
:102720001148006810F48001E269914214D110F060
:102730003F01226A91420FD147F6C0710140626A9F
:10274000914209D110F44031A26A914204D110F0B3
:102750007060E16A884201D0012000E00020BDE8FD
:10276000F68100BF083802400438024000380240B9
:10277000800E474274380240000047424038024011
:102780000070004070380240600047422DE9F0417F
:1027900004000E00002C01D1012092E05E4D28685B
:1027A00010F00F00B04207D22E70286810F00F0012
:1027B000B04201D0012084E02078800716D520782F
:1027C000400704D55548016851F4E0510160207874
:1027D000000704D55148016851F4604101604F4938
:1027E0000A6832F0F002A06802430A602078C0074D
:1027F00035D56068012805D149480068800313D4A5
:1028000001205EE06068022802D06068032805D1DC
:1028100043480068800107D4012052E04048006826
:10282000800701D401204CE03C4F396889088900B9
:1028300060680143396000F0DDF98046386810F0C7
:102840000C006168B0EB810F09D000F0D3F9B0EB58
:10285000080041F289318842F0D3032031E0286832
:1028600010F00F00864207D22E70286810F00F007B
:10287000B04201D0012024E02078400706D5274946
:102880000A6832F4E052E06802430A6020780007E8
:1028900007D52248016831F46041226951EAC2013A
:1028A000016000F047F81F491C4A1268C2F3031286
:1028B000895CC8401C4908601C48006800F0A0F909
:1028C0000020BDE8F08118480068704780B5FFF728
:1028D000FAFF1749114A1268C2F38222895CC84084
:1028E00002BD0F2202600D4A136813F00303436018
:1028F000136813F0F0038360136813F4E053C360AC
:102900001268D20812F4E05202610348006810F025
:102910000F00086070470000003C02400838024089
:1029200000380240CC630008440000204000002032
:10293000F863000810B5002000200020002019488E
:10294000006810F00C00002804D0042804D00828E7
:1029500004D025E0144824E0144822E0144C2268F6
:1029600012F03F022068400209D52068C0F38810A9
:102970000E49A1FB0001002302F018FA08E02068CC
:10298000C0F388100849A1FB0001002302F00EFAF1
:102990002168C1F30141491C4900B0FBF1F000E09E
:1029A000014810BD083802400024F40000127A00EB
:1029B00004380240F8B5040000200020207810F010
:1029C000050F29D0DFF878510020286000F012F9B7
:1029D0000700DFF870613068000106D500F00AF9E1
:1029E000C01B0328F5D3032079E06068A1680907BC
:1029F00051EA8011DFF8500101600120286000F0E9
:102A0000F9F805003068000106D400F0F3F8401B27
:102A10000328F7D3032062E0207880075ED50020EA
:102A200000904A48016851F080510160006810F040
:102A3000805000900098464E306850F480703060AE
:102A400000F0D8F805003068C00506D400F0D2F8D0
:102A5000401B0328F7D3032041E03E4D286810F4C3
:102A6000407000281FD0E16811F4407188421AD0EC
:102A7000286830F44070384901220A6000220A6058
:102A800028602868C0070ED500F0B4F80600286852
:102A9000800708D400F0AEF8801B41F289318842EB
:102AA000F5D303201BE0E06810F44070B0F5407FE0
:102AB00009D12A490A6832F4F812E3682848034029
:102AC0001A430A6004E02548016831F4F8110160F6
:102AD0002868E1680905090D084328600020F2BD57
:102AE00001000020002200220022012926D11B48DB
:102AF000006810F40000002803D001281DD11948F7
:102B00001CE019480168490206D51849006810F010
:102B10003F00B1FBF0F105E01549006810F03F00FF
:102B2000B1FBF0F1084A1068C0F388104143106807
:102B3000C0F30270B1FBF0F000E00020704700002D
:102B40006800474200380240843802404038024062
:102B50000070004070380240400E47420838024082
:102B6000FFFCFF0F0080BB000438024000127A0017
:102B70000024F40003480168034A127889180160B0
:102B8000704700BFDC4D00204800002062F30F2298
:102B900062F31F42401810F0030308D0C91A1FD374
:102BA000DB0748BF00F8012D28BF20F8022D1300D5
:102BB00030B414461546103928BF20E93C00FAD835
:102BC000490728BF20E90C0048BF40F8042D8900C0
:102BD00028BF20F8022D48BF00F8012D30BC7047F7
:102BE000C91818BF00F8012DCB0728BF00F8012D28
:102BF0007047000001480068704700BFDC4D0020AE
:102C000018B587B001000020002000223620FEF712
:102C10005BFE3620FEF769FE002000901548016833
:102C200051F010010160006810F010000090009851
:102C300001A902A8FFF755FEFFF748FE40000E4924
:102C4000B0FBF1F0401E0D4C0D49216040F2E73120
:102C5000E1606060002020610020A060200000F0A2
:102C6000D5FA002803D1200000F0ECFA00E00120A2
:102C700008B010BD4038024040420F004C4C0020CC
:102C80000010004080B5002000900E48016851F40B
:102C900080410160006810F480400090009800209E
:102CA00000900948016851F080510160006810F0FF
:102CB00080500090009800220F217FF00100FEF765
:102CC00003FE01BD443802404038024038B50400DC
:102CD000002C01D10120E0E094F83D00002805D14E
:102CE000002084F83C002000FEF738FF242084F800
:102CF0003D002068006840084000216808602068A6
:102D0000006850F40040216808602068006830F4D2
:102D1000004021680860FFF7D9FD0100DFF87C2141
:102D20006068904208D2DFF87801814201D2012028
:102D300000E00020C0B207E0DFF86801814201D264
:102D4000012000E00020C0B2012801D10120A4E050
:102D5000DFF85401B1FBF0F320684068800980017E
:102D60001843256868602068056A6068904201D24F
:102D70005B1C07E04FF4967043434FF47A70B3FB4B
:102D8000F0F35B1CAD09AD012B43206803622068A2
:102D9000C3696068904214D2481E62685200B0FB5A
:102DA000F2F0401C0005000D042801D204213EE091
:102DB000491E60684000B1FBF0F1491C0905090D8E
:102DC00035E0A068002809D14A1E65680320454304
:102DD000B2FBF5F0401C0005000D0AE04A1E6568D4
:102DE00019204543B2FBF5F0401C0005000D50F4DE
:102DF0008040000501D1012119E0A068002809D117
:102E0000491E626803204243B1FBF2F1491C0905E7
:102E1000090D0AE0491E626819204243B1FBF2F134
:102E2000491C0905090D51F4804151F40041DFF8B6
:102E30007C0003400B432068C3612068016831F0C7
:102E4000C001E0690143206A0143206801602068F5
:102E50008168DFF85C00014020690143E0680143BC
:102E6000206881602068C168090A0902A269606956
:102E7000024311432068C1602068006850F00100DF
:102E80002168086000202064202084F83D00002094
:102E90002063002084F83E00002032BDA18601009E
:102EA00080841E0000093D0040420F000030FFFFFB
:102EB000007CFFFF70B50400002C01D10120BFE0B1
:102EC00094F84100002808D1002084F840000FF257
:102ED000ED1060632000FEF79EFE022084F84100A2
:102EE000DFF860512068C06928402168C86102206D
:102EF000216808626069022839D0E068002801D1A1
:102F0000102600E02026A068212800D276000120AB
:102F1000FFF7E6FD01002069B0F5007F16D1E068FB
:102F2000002809D0B000B1FBF0F10A2041436069EC
:102F3000B1FBF0F0401D11E0F000B1FBF0F10A2010
:102F400041436069B1FBF0F0401D07E0B1FBF6F1D1
:102F50000A2041436069B1FBF0F0401D0A21B0FB3B
:102F6000F1F111F00100091A4908000201E0022103
:102F700000208A1EFE2A05D3606C50F010006064A9
:102F800001205DE00143206901432068016220685F
:102F9000C169294060680143A0680143E0680143BA
:102FA000A069014351F400612068C161206A0128D1
:102FB00040D1DFF894006063DFF890102068884209
:102FC00002D1DFF88C0001E05FF04020C2691540BB
:102FD000C5612068884202D1DFF8740001E05FF02B
:102FE0004020022202622068884202D1DFF860009D
:102FF00001E05FF04020C3696068B0F5007F02D057
:103000006068002802D14FF4807200E00022A568B9
:10301000E668A069064335432A4352F400621A4326
:103020002068884202D1DFF8280001E05FF04020EC
:1030300092B2C26100206064012084F84100002047
:1030400070BD000040F0FFFF2D5F00080038004019
:103050000034004080B5416A09880268D160416A45
:10306000891C4162418D491E4185418D00290AD14B
:103070000168496831F0A00102685160012180F8BF
:10308000411001F0ABFF01BD80B50168C968C26A9B
:103090001180C16A891CC162418E491E4186418EE0
:1030A00000290AD10168496831F060010268516065
:1030B000012180F8411001F092FF01BD1CB5040010
:1030C00020688068009094F84100042829D1009875
:1030D000C00706D520684068400602D52000FFF7EB
:1030E000D3FF009840061CD520684068800618D59C
:1030F0002068406830F0600021684860002001903E
:103100002068C068019020688068019001980120C3
:1031100084F84100606C50F002006064200001F00F
:103120005FFF94F84100032826D10098800706D558
:1031300020684068000602D52000FFF78BFF00984A
:10314000000719D520684068800615D520684068BA
:1031500030F0A0002168486000200090206880685E
:1031600000900098012084F84100606C50F0040049
:103170006064200001F034FF13BD000010B50400AE
:10318000002C01D101203FE0606A00280020A062ED
:1031900094F85100002805D1002084F85000200048
:1031A000FEF7B9FD022084F851002068006830F075
:1031B0004000216808606168A0680143E06801433D
:1031C0002069014360690143A06910F40070014364
:1031D000E0690143206A0143A06A0143206801605D
:1031E000A169090C11F00401606A01432068416083
:1031F0002068C06930F400602168C8610020606503
:10320000012084F85100002010BD000010B504001A
:10321000002C01D1012014E094F83D00002805D1D4
:10322000002084F83C00200000F06FFB022084F8AE
:103230003D00211D206800F01DFA012084F83D00AA
:10324000002010BD0168C96851F001010268D16019
:103250000168896811F00701062905D0016809682D
:1032600051F00101006801600020704710B50400B2
:10327000002C01D1012014E094F83D00002805D174
:10328000002084F83C002000FEF749FE022084F86C
:103290003D00211D206800F0EDF9012084F83D007B
:1032A000002010BD10B504000122206800F01AFBB8
:1032B0002068DFF84410884204D02068DFF83C1012
:1032C000884201D1012000E00020C0B2002805D0D2
:1032D0002068406C50F40040216848642068806891
:1032E00010F00700062805D02068006850F00100A3
:1032F00021680860002010BD00000140000401406A
:1033000070B504000D00002C01D101204BE094F8B1
:103310003D00002805D1002084F83C002000FEF785
:10332000C9FD022084F83D0020688168DFF834037D
:10333000014020688160211D206800F09BF9206811
:103340008168206882692068036A28680143DFF881
:1033500018030240A868AE6950EA06200243DFF86D
:103360000C030240DFF808030240E868EE6950EA07
:103370000620024328692E6A360356EA00163243B5
:1033800033F0220333F0880368686D6950EA051052
:103390000343206881602068826120680362012005
:1033A00084F83D00002070BD10B50400002902D053
:1033B000042906D00BE001220021206800F092FAD7
:1033C0000FE001220421206800F08CFA09E00122BC
:1033D0000021206800F086FA01220421206800F014
:1033E00081FA2068006850F0010021680860002020
:1033F00010BD10B504002068006980071AD5206848
:10340000C068800716D57FF002002168086101209E
:1034100020772068806910F0030F03D0200001F0AE
:10342000E0FD05E0200001F0DDFD200001F0DBFD06
:10343000002020772068006940071AD52068C068FE
:10344000400716D57FF0040021680861022020772C
:103450002068806910F4407F03D0200001F0C1FD96
:1034600005E0200001F0BEFD200001F0BCFD0020C1
:1034700020772068006900071AD52068C068000717
:1034800016D57FF0080021680861042020772068A5
:10349000C06910F0030F03D0200001F0A2FD05E089
:1034A000200001F09FFD200001F09DFD002020770D
:1034B00020680069C0061AD52068C068C00616D505
:1034C0007FF0100021680861082020772068C0691B
:1034D00010F4407F03D0200001F083FD05E02000C0
:1034E00001F080FD200001F07EFD002020772068A3
:1034F0000069C0070AD52068C068C00706D57FF0FC
:103500000100216808612000FEF762F82068006968
:1035100000060AD52068C068000606D57FF0800046
:1035200021680861200001F05FFD20680069400605
:103530000AD52068C068400606D57FF040002168A3
:103540000861200001F051FD2068006980060AD55D
:103550002068C068800606D57FF0200021680861D9
:10356000200001F043FD10BD38B504000D0094F8B3
:103570003C00012801D1022073E0012084F83C00C6
:10358000022084F83D00002A06D0042A1BD0082A15
:1035900031D00C2A46D05DE02900206800F0C7F841
:1035A0002068806950F0080021688861206880697F
:1035B00030F004002168886120688169286901432E
:1035C0002068816146E02900206800F0E2F8206868
:1035D000806950F40060216888612068806930F457
:1035E00080602168886120688069296950EA01202B
:1035F000216888612EE02900206800F001F9206828
:10360000C06950F008002168C8612068C06930F0C6
:1036100004002168C8612068C169286901432068E5
:10362000C16117E02900206800F020F92068C06916
:1036300050F400602168C8612068C06930F480607F
:103640002168C8612068C069296950EA01202168A1
:10365000C861FFE7012084F83D00002084F83C00A9
:10366000002032BDF8BFFFFFFCFCFFFFF3F3FFFFBC
:103670000F0FFFFF10B40468DFF83C32984212D0FD
:10368000B0F1804F0FD0DFF8342290420BD0DFF83A
:103690003022904207D0DFF82C22904203D0DFF88E
:1036A0002822904203D134F070044A6814439842AF
:1036B00025D0B0F1804F22D0DFF8002290421ED0FA
:1036C000DFF8FC2190421AD0DFF8F821904216D0A2
:1036D000DFF8F421904212D0DFF8F02190420ED0B2
:1036E0007B4A90420BD07B4A904208D07A4A904263
:1036F00005D07A4A904202D0794A904203D134F4FC
:103700004074CA68144334F080044A691443046066
:103710008A68C2620A688262984202D06A4A90420B
:1037200001D1096901630121416110BC704770B486
:10373000026A520852000262046A4568836933F0E3
:1037400070039B089B000A68134334F002048A68E4
:103750001443594EB04202D05B4A904205D134F036
:103760000804CA68144334F00404B04202D0564A34
:10377000904207D135F4807535F400754A691543D8
:103780008A6915434560836149684163046270BC7E
:10379000704770B4026A32F010020262036A446831
:1037A000826932F4E04232F440720D6852EA052236
:1037B00033F020038D6853EA05133F4DA84202D031
:1037C000414EB04206D133F08003CE6853EA06136F
:1037D00033F04003A84202D03B4DA84209D134F453
:1037E000806434F400644D6954EA85048D6954EAB8
:1037F00085044460826149688163036270BC7047DC
:1038000070B4026A32F480720262046A4568C36965
:1038100033F070039B089B000A68134334F4007470
:103820008A6854EA0224244A904202D0264EB042CA
:1038300006D134F40064CE6854EA062434F480647B
:10384000904202D0204A904209D135F4805535F497
:1038500000554A6955EA02158A6955EA021545601C
:10386000C3614968C163046270BC704730B4026AC6
:1038700032F480520262036A4468C26932F4E04260
:1038800032F440720D6852EA052233F400538D6819
:1038900053EA0533084DA84202D00B4DA84204D18B
:1038A00034F480444D6954EA85144460C261496827
:1038B0000164036230BC7047000001400004004016
:1038C00000080040000C004000040140004001409E
:1038D000004401400048014000180040001C004026
:1038E0000020004010B4012411F01F0314FA03F368
:1038F000046A34EA03030362036A11F01F0112FA37
:1039000001F11943016210BC7047704710B490F880
:103910003C20012A01D102203CE0012280F83C2019
:10392000022280F83D20026854680268936834F0EF
:1039300070040A681443026854600268174CA2427B
:103940001BD00268B2F1804F17D00268144CA2421B
:1039500013D00268134CA2420FD00268124CA2424C
:103960000BD00268114CA24207D00268104CA24250
:1039700003D002680F4CA24205D133F0800349689E
:103980000B4301688B60012180F83D10002180F815
:103990003C10002010BC70470000000000000140F7
:1039A0000004004000080040000C004000040140FA
:1039B000004001400018004078B585B005000B9824
:1039C000002807D1502080F31188BFF34F8FBFF339
:1039D0006F8FFEE70C9C002C07D1502080F31188DC
:1039E000BFF34F8FBFF36F8FFEE75C260096009EFC
:1039F0005C2E07D0502080F31188BFF34F8FBFF3A8
:103A00006F8FFEE7009E002C13D0002811D020639A
:103A1000022084F8590000200390029404A8019029
:103A20000A980090280000F042F8200000F0A0F86A
:103A300001E000200490049806B070BD2DE9F84321
:103A400084B00700884616009946300080B2800096
:103A500000F056FF0500002D0BD05C2000F050FF59
:103A60000400002C01D0256304E0280000F0D2FF00
:103A700000E00024002C15D0002084F8590000201C
:103A8000039002940D9801900C9800904B46B6B2AA
:103A900032004146380000F00AF8200000F068F8D3
:103AA000012001E05FF0FF3005B0BDE8F0832DE9B3
:103AB000F84305000C00170098460A9EB900A5229D
:103AC000D6F830904846FFF761F8306B00EB87007E
:103AD000071FFF08FF0017F00700002807D050203D
:103AE00080F31188BFF34F8FBFF36F8FFEE7002C79
:103AF00010D0002100E0491C102907D2605C06EBC1
:103B0000010282F83400605C0028F4D1002086F8BD
:103B1000430002E0002086F83400DDF82090B9F17F
:103B2000380F01D35FF03709099CC6F82C90C6F80E
:103B30004C9000203065301D01F068FA16F1180035
:103B400001F064FA3661D9F13809C6F81890766246
:103B500000207065002086F8580042462900380091
:103B600001F092FA3060002C00D02660BDE8F183AD
:103B700038B5040001F018FBDFF838140868401C61
:103B80000860DFF834542868002806D12C600868E3
:103B900001280DD100F0C4FA0AE0DFF82004006823
:103BA000002805D1E06A2968C96A884200D32C60E0
:103BB000DFF80C040168491C016000686064DFF8EC
:103BC00004040168E26A914201D2E16A0160211DA8
:103BD000DFF87424E36A1420434302EB030001F08E
:103BE00018FA01F0FBFADFF8D403006800280DD0C2
:103BF0002868C06AE16A884208D25FF08050DFF826
:103C000018150860BFF34F8FBFF36F8F31BD10B52C
:103C100004000020002C14D0DFF8440400680028C1
:103C200007D0502080F31188BFF34F8FBFF36F8F01
:103C3000FEE700F05DF80021200000F059FB00F0E5
:103C40005DF8002808D15FF08050DFF8CC140860E0
:103C5000BFF34F8FBFF36F8F10BD10B586B000203C
:103C600004900020039005AA03A904A8FEF708FB0E
:103C7000DFF85C46049802900398019000200090C1
:103C80000023059ADFF850160FF26940FFF794FE03
:103C900020602068002801D0012000E000200128D9
:103CA00001D100F071FB012817D1502080F3118859
:103CB000BFF34F8FBFF36F8F5FF0FF30DFF81C163D
:103CC00008600120DFF8F41208600020DFF8941388
:103CD000086001F002FA06B010BD10F1010FFAD130
:103CE000502080F31188BFF34F8FBFF36F8FFEE733
:103CF000DFF86C030168491C0160704770B500244F
:103D00000025DFF85C633068002807D1502080F37D
:103D10001188BFF34F8FBFF36F8FFEE701F044FAB6
:103D20003068401E30603068002855D1DFF88402CA
:103D30000068002826D14FE0C868C46814F1180054
:103D400001F08EF9201D01F08BF9DFF8780201688F
:103D5000E26A914201D2E16A0160211DDFF8E822A6
:103D6000E36A1420434302EB030001F052F9E06AD6
:103D7000DFF844120968C96A884203D30120DFF8DA
:103D800064150860DFF84C1508680028D4D1002CB1
:103D900001D000F032FADFF848653468002C0CD00E
:103DA00000F022F8002803D00120DFF83815086061
:103DB000641E002CF4D100203060DFF82805006874
:103DC000002809D001255FF08050DFF84C1308600F
:103DD000BFF34F8FBFF36F8F01F000FA280070BD63
:103DE000DFF8800200687047F8B50025DFF8700240
:103DF0000068002864D1DFF86C020468641C046069
:103E0000002C1AD1DFF8141308680068002807D0C6
:103E1000502080F31188BFF34F8FBFF36F8FFEE701
:103E20000868DFF8502313680B601060DFF8B804EF
:103E30000168491C016000F0E0F9DFF8A064306817
:103E400084422ED320E0381D01F00AF9B86A002818
:103E500003D017F1180001F003F95A480168FA6A13
:103E6000914201D2F96A0160391D774AFB6A142038
:103E7000434302EB030001F0CCF8F86A4E490968AD
:103E8000C96A884200D30125DFF8901208680068EB
:103E9000002811D00868C068C76878688442D2D208
:103EA0003060454800686849C26A14204243885817
:103EB00002280AD3012508E05FF0FF303060F0E708
:103EC000DFF81C040168491C0160DFF81804006871
:103ED000002800D001252800F2BD10B46048006819
:103EE000002804D00120DFF8FC1308602CE000203B
:103EF000DFF8F0130860334A106800E0401E142316
:103F0000514C03FB00F16158002909D10028F5D17B
:103F1000502080F31188BFF34F8FBFF36F8FFEE700
:103F200003FB00F304EB03014B685B684B604B68D9
:103F300011F10804A34202D14B685B684B604968E9
:103F4000C9681D4B1960106010BC704710B50C009B
:103F5000002807D1502080F31188BFF34F8FBFF3A3
:103F60006F8FFEE7DFF8E4130968183101F05DF8A0
:103F70000121200000F0BCF910BD38B50D0014007F
:103F8000002807D1502080F31188BFF34F8FBFF373
:103F90006F8FFEE7DFF8B4130968183101F039F8C4
:103FA000002C01D05FF0FF352100280000F0A0F9BF
:103FB00031BD0000F04D0020E04D0020FC4D002000
:103FC0000C4E0020F84D002010B5C068C468002CCD
:103FD00007D1502080F31188BFF34F8FBFF36F8F4D
:103FE000FEE714F1180001F03BF81D4800680028B6
:103FF00014D1201D01F034F8DFF854030168E26A9F
:10400000914201D2E16A0160211D0F4AE36A142046
:10401000434302EB030000F0FCFF05E014F118013C
:10402000DFF8B00200F0F5FFDFF820030068C06A97
:10403000E16A884205D201200121DFF8B022116037
:1040400000E0002010BD00004C3C0020DFF898127A
:1040500009680160DFF800130968416070470000DB
:10406000184E0020F44D002038B504000D00002C3F
:1040700007D1502080F31188BFF34F8FBFF36F8FAC
:10408000FEE7002D07D1502080F31188BFF34F8F3A
:10409000BFF36F8FFEE701F087F8DFF8BC0200681E
:1040A0006168411A2A6812F1010F01D1002418E059
:1040B000DFF83422126823689A4204D06268904282
:1040C00001D301240DE02868814207D22868411AF3
:1040D00029602000FFF7BAFF002402E000202860DA
:1040E000012401F07BF8200032BD0120DFF8FC1133
:1040F0000860704780B500F041F8DFF858020068AA
:104100000228F8D35FF080504D490860BFF34F8F0D
:10411000BFF36F8FEFE7000004ED00E0E44D0020F7
:1041200038B5002408E0DFF82C02142101FB04F16B
:10413000084400F05CFF641C382CF4D3DFF81C4208
:10414000200000F054FFDFF81852280000F04FFF65
:10415000DFF8800100F04BFFDFF8080200F047FFB6
:10416000054800F044FFDFF800020460DFF8FC01BE
:10417000056031BDE84D00205C4D002038B515E0EC
:1041800001F012F8DFF8DC01C068C468201D00F0FF
:1041900067FFDFF8DC010168491E01602868401EE6
:1041A000286001F01BF8200000F006F8DFF8C45189
:1041B00028680028E4D131BD10B5040094F85900F6
:1041C000002806D1206B00F025FC200000F022FC26
:1041D00010BD94F85900012803D1200000F01AFC0A
:1041E000F6E794F859000228F2D0502080F31188A5
:1041F000BFF34F8FBFF36F8FFEE7DFF86C110868D6
:104200000068002804D15FF0FF303449086005E001
:104210000868C068C0684068304908607047DFF8C7
:1042200058010068002801D1012007E0DFF84C01A7
:104230000068002801D1022000E000207047000043
:1042400004ED00E010B50400002100283DD0DFF8A7
:10425000FC000068844207D0502080F31188BFF32F
:104260004F8FBFF36F8FFEE7206D002807D15020DE
:1042700080F31188BFF34F8FBFF36F8FFEE7206D80
:10428000401E2065E06AE26C90421ED0206D00283E
:104290001BD1201D00F0E4FEE06CE062E06AD0F18A
:1042A0003800A061DFF8A8000168E26A914201D2FB
:1042B000E16A0160211DDFF89C20E36A142043437A
:1042C00002EB030000F0A5FE0121080010BD000074
:1042D000144E0020344D002000640008104E0020D1
:1042E000004E0020044E0020084E0020044E002006
:1042F000F8B505000C0018480668144F3868001D12
:1043000000F0AEFE15F1010F07D1002C05D0386882
:10431000011D1B4800F07DFE16E0AD1938684560B0
:10432000B54206D23868011D1048006800F07DFED5
:104330000AE03868011D0C48006800F076FE11485C
:1043400001688D4200D20560F1BD0000E04D002003
:10435000F84D00204C3C0020F44D00200C4D002076
:10436000204D0020484D0020E44D0020E84D002065
:10437000F04D0020EC4D0020FC4D0020184E002098
:104380005C4D0020104E002038B586B0002400F0AF
:1043900066FADFF83C05006800281DD00020049074
:1043A0000020039005AA03A904A8FDF770FFDFF819
:1043B0002455049802900398019000200090002357
:1043C000059ADFF814150FF2D110FFF7F5FA2860FF
:1043D0002868002800D00124002C07D1502080F349
:1043E0001188BFF34F8FBFF36F8FFEE7200007B038
:1043F00030BD2DE9FC4105000E00170098462C2029
:1044000000F07EFA0400002C0BD0002084F8280075
:1044100001940898009043463A003100280000F0CB
:1044200029F82000BDE8F6813EB52C240094009CBC
:104430002C2C07D0502080F31188BFF34F8FBFF38F
:104440006F8FFEE7079C009D002C07D1502080F362
:104450001188BFF34F8FBFF36F8FFEE7002C07D09B
:10446000022584F828500194069D009500F002F87A
:1044700020003EBD2DE9F84307000E0015009846C8
:10448000002E07D1502080F31188BFF34F8FBFF368
:104490006F8FFEE7099C002C14D0DDF8209000F00F
:1044A000DEF92760A661C4F81C80C4F82090201DA6
:1044B00000F0ACFD002D05D094F8280050F0040069
:1044C00084F82800BDE8F1837FB504001D000020BA
:1044D000002C07D1502080F31188BFF34F8FBFF31A
:1044E0006F8FFEE7DFF8E8633368002B1CD0009184
:1044F00001920294062911DAFFF791FE022806D1F3
:10450000089A00236946306800F098FF0CE0002309
:1045100000226946306800F091FF05E000232A0080
:104520006946306801F055F804B070BD7CB50400F0
:104530000D00DFF8A8030068C068C668301D00F0F1
:104540008FFD96F8280040071BD523002A00B1698B
:104550000919300000F08CF8002818D000200090D5
:104560000023220000213000FFF7AEFF002807D112
:10457000502080F31188BFF34F8FBFF36F8FFEE79A
:1045800005E096F8280010F0FE0086F828003000BC
:10459000316A884773BD000080B5684600F041F875
:1045A000009900F003F800F082F8F6E77CB505000A
:1045B0000C00FFF79DFB684600F046F806000098E7
:1045C00000282BD1002C08D1AE4206D3FFF796FB72
:1045D00031002800FFF7AAFF22E0002C08D0DFF806
:1045E000000300680068002801D1012400E00024D5
:1045F0002200AD1B2900DFF8D802006801F0C8F9DD
:10460000FFF77CFB00280BD15FF08050DFF8D4125D
:104610000860BFF34F8FBFF36F8F01E0FFF76EFBB2
:1046200073BDDFF8B82211680968002901D10121A2
:1046300000E0002101600068002803D11068C06814
:10464000006800E00020704770B50400FFF7C8FB69
:104650000500DFF894623068854204D200F0C5F8A6
:104660000120206001E0002020603560280070BD3E
:1046700010B50024416000618A420BD3D21A8169CF
:104680008A4201D3012410E0011D9548006800F022
:10469000CCFC0AE09A4203D2994201D3012404E0FF
:1046A000011D8E48006800F0C0FC200010BD10B550
:1046B00086B0FFE7002201A98548006800F0F8FFF6
:1046C000002800F09080019800280ED502AA002A48
:1046D00007D1502080F31188BFF34F8FBFF36F8F46
:1046E000FEE7916850681268904701980028E1D46D
:1046F000039C6069002802D0201D00F0B1FC05A8D1
:10470000FFF7A2FF0200019800280ED002280CD06B
:104710000BD304283AD032D3062806D053D3082826
:104720002DD002D3092831D05CE094F8280050F055
:10473000010084F82800029B0299A069411820001A
:10474000FFF796FF0028B5D02000216A884794F82B
:1047500028004007AED5002000900023029AA069EF
:10476000821800212000FFF7AFFE0028A2D15020C0
:1047700080F31188BFF34F8FBFF36F8FFEE794F87C
:10478000280010F0FE0084F8280093E794F8280031
:1047900050F0010084F828000298A061A069002868
:1047A00009D013001000A1698A181100020020002E
:1047B000FFF75EFF7EE7502080F31188BFF34F8F35
:1047C000BFF36F8FFEE794F82800800703D4200022
:1047D00000F020F905E094F8280010F0FE0084F8BD
:1047E000280067E766E706B010BD7CB505E070609D
:1047F0003661311D206800F018FC384C20680068D4
:10480000002826D02068C06805682068C068C6688F
:10481000301D00F025FC3000316A884796F82800EA
:104820004007EAD5B06940198542E0D300200090E6
:1048300000232A0000213000FFF746FE002800D0A8
:10484000DBE7502080F31188BFF34F8FBFF36F8FEA
:10485000FEE7206822490A682260086073BD7CB5C3
:1048600000F0A2FC1A4C206800281BD11F4D280024
:1048700000F0BDFB1E4E300000F0B9FB174805608C
:1048800017480660002000901A4B1B4A10210A208E
:1048900000F06FFD20602068002803D017492068D1
:1048A00001F062F800F09AFC73BD10B50400002816
:1048B00007D1502080F31188BFF34F8FBFF36F8F64
:1048C000FEE700F071FCE46900F088FC200010BDF8
:1048D000244E0020284E0020086400081C4E0020B2
:1048E000204E002004ED00E02C4E0020704D0020F2
:1048F000844D0020744B0020704900201064000893
:104900002DE9F84304000025FFF7F2F9DFF83492AF
:10491000D9F80000002801D100F0B5F88A4F3868B6
:10492000044266D1002C15D088480068041914F0A0
:10493000070F0FD014F1080014F00704041B14F043
:10494000070F07D0502080F31188BFF34F8FBFF3BC
:104950006F8FFEE7002C4CD0DFF8F481D8F8000010
:10496000A04246D37B480100066801E0310036686A
:104970007068A04202D230680028F7D1D9F8000050
:10498000864236D071480A68036802EB0305326834
:104990000A60006840007168091B884214D206EB67
:1049A000040111F00700002807D0502080F311887F
:1049B000BFF34F8FBFF36F8FFEE77068001B486037
:1049C0007460080000F08EF8D8F800107068091ABA
:1049D000C8F800106048D8F800100268914202D26E
:1049E000D8F80010016071683868014371600020D8
:1049F0003060FFF783F915F00700002807D050203A
:104A000080F31188BFF34F8FBFF36F8FFEE728004D
:104A1000BDE8F28310B50100002833D04B48006890
:104A2000404201EB0004484960680A68104207D11F
:104A3000502080F31188BFF34F8FBFF36F8FFEE7D5
:104A40002068002807D0502080F31188BFF34F8FD3
:104A5000BFF36F8FFEE760680A68104212D02068CB
:104A600000280FD16268086882436260FFF740F94E
:104A700037490A68606882180A60200000F032F83E
:104A8000FFF73CF910BD10B44FF4705233480100E9
:104A900011F0070F04D0C91DC908C900521A8218A5
:104AA0002C48016000234360521828480068121AFD
:104AB000D208D20023480260002304686360002308
:104AC00004682360521A4A60006808604868224AF5
:104AD000106048681E4908605FF000401A4908608D
:104AE00010BC704710B41B4A00E012681168814284
:104AF000FBD3110053681944814204D151684068C6
:104B0000411851601000010043681944136899422C
:104B100010D10C4913680C68A34208D0436811688F
:104B20004968CB18436011680968016004E00968AE
:104B3000016001E011680160824200D0106010BC89
:104B400070470000C84D0020D44D002018640008B4
:104B5000CC4D0020A44D0020D04D00204C00002062
:104B600010B5040020886188884206D10020E080CA
:104B7000002020710020A06057E08648618841181D
:104B8000012902DB6188401802E061884018404238
:104B900047F23151884219DB6088218888420BD264
:104BA000B4F90200411EB4F90000091A5FF0FF30A9
:104BB00011FB00F0E0800FE05FF0FF31B4F902007C
:104BC000091AB4F900004118E18005E0B4F90010B9
:104BD000B4F90200091AE180B4F90600012801DBEA
:104BE000012001E05FF0FF30207120886080B4F97F
:104BF000060000EE100AB8EEC00A10EE100A00F02F
:104C0000EDFE654A654B00F00DFF0022644B01F09C
:104C10002DF80022634B00F005FF5FF0C042624BAD
:104C200001F024F801F0F4F8A06010BDDFED540AA3
:104C3000B4EE600AF1EE10FA01DB01210AE0DFEDCB
:104C4000510AB4EE600AF1EE10FA02D55FF0FF31BE
:104C500000E000214172B5EE400AF1EE10FA01DCED
:104C6000B1EE400ADFED480A20EE200ADFED470AE8
:104C700080EE200A80ED040A90F9091000291BD06B
:104C8000012903D0B1F1FF3F0BD01BE090ED040AE6
:104C9000BCEEC00A016881ED000A00214068016095
:104CA00010E000210268116090ED040ABCEEC00A19
:104CB000406880ED000A05E00021026811600021D3
:104CC00040680160704780B508001100012289B278
:104CD000FCF780FD01BD80B508001100002289B2FB
:104CE000FCF778FD01BD027E002A07D080ED020AA4
:104CF00080ED030A002202610022027690ED011A83
:104D0000D0ED001A31EE211AD0ED031A21EE211A4E
:104D1000D0ED001A90ED022A01EEC21AD0ED041A6D
:104D200031EE211A80ED051A90ED031AB5EE401A06
:104D3000F1EE10FA02DD90ED031A03E090ED031A94
:104D4000B1EE411AD0ED071AB4EE611AF1EE10FA85
:104D500001DB42690A60C16881604169016130EE2E
:104D6000600A80ED030A704700000000DFED080ACA
:104D700080EE200ADFED050A20EE200A70470000D1
:104D800034336341333363C100F051450000C842FE
:104D90000000F042D08AFFFF7B14AE47E17A843FE7
:104DA00000004E40000048405555953FBBBBE1B167
:104DB000B2F5803F80F07E80022A1ED98C46B1FB7E
:104DC000F2F102FB11C31B0443EA1043B3FBF2FCF4
:104DD00002FB1C3380B240EA0343B3FBF2F002FB58
:104DE000103240EA0C4000237047022A05D984465D
:104DF000B0FBF2F002FB10C270474AB105D100F0DF
:104E0000010249085FEA3000704700220023704722
:104E100001F032B80B0002000021002070479042E0
:104E200071EB030CF6D3B3F5803F2FD2F0B5B3FA94
:104E300083F7B1FA81F4A7F10F0E3D1B5340CEF179
:104E4000200602FA0EF2F3415340B5F10F0746D89F
:104E50000F3C2C444140C4F12006A040F1414140A8
:104E6000B1FBF3F603FB1611A2FB0645001BA9419B
:104E700002D2761E8018594180EA010221FA0EF30F
:104E800062FA0EF200215A403046F0BD30B4B1FB58
:104E9000F3FC03FB1C11A2FB0C45001BA94103D230
:104EA000ACF1010C8018594130BC02460B466046FB
:104EB00000217047B2F1807F65D3F0B5B2FA82F776
:104EC000B1FA81F4C7F10F063D1B22FA06F307F190
:104ED000110EF24120355A40B5F10F07B8D94140C3
:104EE000C4F12006A040F1414140B1FBF3FC03FBBB
:104EF0001C11A2FB0C45001BA94103D2BCF1010C03
:104F0000801859410F2F12D30F3FC90341EA504176
:104F1000B1FBF3F603FB1611A2FB0645D4EBC03040
:104F2000A94102D2761E8018594146EACC3C07B30B
:104F30004140C7F12006B840F1414140B1FBF3F6D2
:104F400003FB1611A2FB0645001BA94102D2761EE7
:104F50008018594180EA010221FA0EF3C7F12004BA
:104F600062FA0EF20CFA07F05A402CFA04F13043C0
:104F7000F0BD80EA010221FA0EF3002162FA0EF27E
:104F800060465A40F0BD8C46B1FBF2F102FB11C302
:104F90001B0243EA1063B3FBF2FC02FB1C331B024F
:104FA0004CEA002043EA1063B3FBF2FC02FB1C3323
:104FB0001B024CEA002043EA1063B3FBF2FC02FB45
:104FC0001C331B024CEA002043EA1063B3FBF2FCE3
:104FD00002FB1C324CEA00200023704770477047E8
:104FE000704770477047704770477047704710F1BF
:104FF000080141605FF0FF31816010F10801C1607C
:1050000010F1080101610021016070470021016178
:10501000704742684A6093688B60936859609160FA
:1050200008610168491C0160704710B40B6813F1F6
:10503000010F01D1026907E010F1080200E0526897
:1050400054682468A342FAD253684B604B68996055
:105050008A60516008610168491C016010BC70479A
:105060000169826843689A60426883685A604A6846
:10507000824201D182684A60002202610868401EB3
:105080000860086870470000001F5FF080730360CD
:10509000001F490849000160001F0FF2150101605F
:1050A00014380260001F7FF0020101602038704751
:1050B0007248006810F1010F07D0502080F311886A
:1050C000BFF34F8FBFF36F8FFEE7502080F311883F
:1050D000BFF34F8FBFF36F8FFEE7E0B568480168FD
:1050E000684A914207D1502080F31188BFF34F8F57
:1050F000BFF36F8FFEE700686349884207D15020F5
:1051000080F31188BFF34F8FBFF36F8FFEE75F48C7
:1051100001780191FF21017001788DF800109DF850
:10512000001011F050015A4A11705A4907220A60C2
:1051300007E00A68521E0A609DF8002052008DF8B0
:1051400000209DF800201206F3D40A68D2F107026D
:10515000042A07D0502080F31188BFF34F8FBFF38C
:105160006F8FFEE70A6812020A600A6812F4E062B2
:105170000A60019901704848016851F470010160AA
:10518000016851F07041016000F090F800203B4947
:10519000086000F0BDFE4148016851F040410160E7
:1051A00000F0A6FE00200EBD502080F31188BFF352
:1051B0004F8FBFF36F8F31490A68521C0A6009682C
:1051C00001290AD136490968090606D080F31188F9
:1051D000BFF34F8FBFF36F8FFEE770472749086813
:1051E000002807D1502080F31188BFF34F8FBFF301
:1051F0006F8FFEE70868401E08600868002802D12B
:10520000002080F31188704780B5502080F311880A
:10521000BFF34F8FBFF36F8FFEF7E6FD002803D07B
:105220005FF080501E490860002080F3118801BDA6
:10523000EFF3058010280FD31A490968085C144958
:105240000978C0B2884207D2502080F31188BFF39A
:105250004F8FBFF36F8FFEE70E4800681249096851
:1052600011F4E061884207D2502080F31188BFF327
:105270004F8FBFF36F8FFEE7704700003C000020A8
:1052800000ED00E071C20F4170C20F4100E400E088
:10529000314E0020D84D002020ED00E034EF00E03A
:1052A00004ED00E01C6400080CED00E0084800215B
:1052B00001600021074A1160074909684FF47A72BA
:1052C000B1FBF2F1491E054A1160072101607047E8
:1052D00010E000E018E000E04400002014E000E0EE
:1052E00038B504000D00002C07D1502080F3118840
:1052F000BFF34F8FBFF36F8FFEE7FFF755FF2168B6
:10530000E26B206C424301EB0200A0600020A0632E
:10531000206860602168E26B521E206C424301EB02
:105320000200E0605FF0FF3084F8440084F845003C
:10533000002D12D12069002817D014F11000FEF7BB
:1053400043FE002811D05FF08050DFF8C0140860E1
:10535000BFF34F8FBFF36F8F07E014F11000FFF71B
:1053600046FE14F12400FFF742FEFFF737FF01204D
:1053700032BD38B51C00002807D1502080F31188B9
:10538000BFF34F8FBFF36F8FFEE7002C07D1502084
:1053900080F31188BFF34F8FBFF36F8FFEE7002AB2
:1053A00001D0002901D0012300E00023DBB2002B53
:1053B00007D1502080F31188BFF34F8FBFF36F8F59
:1053C000FEE7002A01D1002901D1012300E00023DA
:1053D000DBB2002B07D1502080F31188BFF34F8F31
:1053E000BFF36F8FFEE750230093009B502B07D035
:1053F000502080F31188BFF34F8FBFF36F8FFEE70C
:10540000009B002C07D0049B012584F84650009493
:10541000DBB200F002F8200032BD38B51C00049D5C
:10542000002901D12D6000E02A60E8632964012190
:105430002800FFF755FF85F84C4031BDF7B5050052
:105440000E001F000024002D07D1502080F311888A
:10545000BFF34F8FBFF36F8FFEE7002E02D1286C92
:10546000002801D1012000E00020C0B2002807D1AF
:10547000502080F31188BFF34F8FBFF36F8FFEE78B
:10548000022F02D1E86B012801D1012000E00020A9
:10549000C0B2002807D1502080F31188BFF34F8F8E
:1054A000BFF36F8FFEE7FEF7BAFE002802D1029825
:1054B000002801D1012000E00020C0B2002838D12E
:1054C000502080F31188BFF34F8FBFF36F8FFEE73B
:1054D000029800285CD0002C03D16846FEF7B6FD88
:1054E0000124FFF77BFEFEF703FCFFF75DFE95F955
:1054F000440010F1010F02D1002085F8440095F915
:10550000450010F1010F02D1002085F84500FFF79A
:1055100065FE02A96846FEF7A7FD002852D12800C3
:1055200000F013FA002837D1280000F0C9F9FEF77F
:10553000E5FBFFF739FEA86BE96B884201D3022F28
:10554000C6D13A003100280000F062F9696A0029EA
:105550000FD015F12400FEF737FD002814D05FF0BE
:105560008050DFF8A8120860BFF34F8FBFF36F8F32
:105570000AE0002808D05FF08050DFF89012086041
:10558000BFF34F8FBFF36F8FFFF728FE01201FE09F
:10559000FFF724FE00201BE0029915F11000FEF732
:1055A000D5FC280000F08CF9FEF7A8FB0028C0D13C
:1055B0005FF08050DFF854120860BFF34F8FBFF3E5
:1055C0006F8FB6E7280000F07BF9FEF797FB00200D
:1055D000FEBD2DE9F84305000E0014009846002D8D
:1055E00007D1502080F31188BFF34F8FBFF36F8F27
:1055F000FEE7002E02D1286C002801D1012000E036
:105600000020C0B2002807D1502080F31188BFF3DA
:105610004F8FBFF36F8FFEE7B8F1020F02D1E86B37
:10562000012801D1012000E00020C0B2002807D1EC
:10563000502080F31188BFF34F8FBFF36F8FFEE7C9
:10564000FFF7F6FDEFF31187502080F31188BFF3C9
:105650004F8FBFF36F8FA86BE96B884202D3B8F10D
:10566000020F20D195F9459042463100280000F004
:10567000CFF848465FF0FF3140B288420DD1686AEA
:1056800000280ED015F12400FEF79EFC002808D05B
:10569000002C06D00120206003E019F1010985F8F3
:1056A0004590012000E0002087F31188BDE8F283D7
:1056B000F7B506000F000024002E07D1502080F31C
:1056C0001188BFF34F8FBFF36F8FFEE7002F02D11A
:1056D000306C002801D1012000E00020C0B2002879
:1056E00007D1502080F31188BFF34F8FBFF36F8F26
:1056F000FEE7FEF794FD002802D10298002801D1B0
:10570000012000E00020C0B200280CD1502080F31E
:105710001188BFF34F8FBFF36F8FFEE7300000F0AB
:10572000CFF8FEF7EBFAFFF73FFDB56B002D06D182
:10573000029800281FD1FFF751FD002064E03900D6
:10574000300000F0A8F86D1EB563306900280ED057
:1057500016F11000FEF738FC002808D05FF08050EA
:10576000DFF8A8100860BFF34F8FBFF36F8FFFF70C
:1057700035FD012048E0002C03D16846FEF766FCA9
:105780000124FFF72BFDFEF7B3FAFFF70DFD96F9A5
:10579000440010F1010F02D1002086F8440096F970
:1057A000450010F1010F02D1002086F84500FFF7F7
:1057B00015FD02A96846FEF757FC002819D13000F4
:1057C00000F0B5F80028A9D0029916F12400FEF7E0
:1057D000BDFB300000F074F8FEF790FA0028A2D16B
:1057E0005FF0805009490860BFF34F8FBFF36F8FA0
:1057F00099E7300000F064F8FEF780FA300000F01E
:1058000096F800288FD00020FEBD000004ED00E0D7
:105810002DE9F041060015000027B46B306C00281C
:1058200009D13068002831D1B068FEF70BFD0700C0
:105830000020B0602AE0002D0FD1326C756828007E
:10584000FBF7D0FD7068316C084470607068B16817
:1058500088421BD33068706018E0326CD6F80C8038
:105860004046FBF7BFFDF068316C49420844F060E8
:10587000F0683168884204D2B068316C494208440B
:10588000F060022D02D1002C00D0641E641CB463B1
:105890003800BDE8F08110B50C00016C00290ED075
:1058A000C168026C1144C160C1688268914201D331
:1058B0000168C160026CC1682000FBF793FD10BD58
:1058C00070B50400FFF770FC94F9455008E014F13E
:1058D0002400FEF779FB002801D0FEF706FC6D1EC0
:1058E000280040B2012802DB606A0028EFD15FF097
:1058F000FF3584F84550FFF771FCFFF755FC94F92C
:10590000446008E014F11000FEF75EFB002801D0AF
:10591000FEF7EBFB761E300040B2012802DB206967
:105920000028EFD184F84450FFF758FC70BD10B543
:105930000400FFF739FCA06B002801D1012400E02E
:105940000024FFF74BFC200010BD10B50400FFF74A
:105950002BFCA06BE16B884201D1012400E0002404
:10596000FFF73CFC200010BD10B4002300E05B1CDE
:10597000082B09D2054C54F83320002AF7D144F8FB
:10598000331004EBC301486010BC70470C4C00207E
:1059900070B504000D001600FFF706FC94F94400F2
:1059A00010F1010F02D1002084F8440094F9450061
:1059B00010F1010F02D1002084F84500FFF70EFC22
:1059C000A06B002805D13200290014F12400FEF755
:1059D000D4FA2000FFF774FF70BD0000C0F3C75178
:1059E00081B1FF2906D0C110400721F0E04101F14B
:1059F0006051704741020CBF40F4E0016FF000417C
:105A00000020704700F0004100020AD0B0FA80FC8C
:105A100000FA0CF001F16051A1EB0C5101EBD02127
:105A200040057047F0B540F2FF7581EA030C0CF0B9
:105A3000004C15EA11541DBF15EA1357AC42AF4292
:105A4000E5E0BC41C1F31301C3F31303801A99418C
:105A500043F4801304D2641E400049418018594128
:105A6000C90241EA5051B1FBF3F603FB1611A2FB48
:105A70000675D7EBC020A94102D2761E8018594185
:105A8000C90241EA5051B1FBF3FE03FB1E11A2FB18
:105A90000E75D7EBC020A94103D2AEF1010E8018DC
:105AA0005941890241EA9051760546EA8E2EB1FBB2
:105AB000F3F603FB1611A2FB0675D7EB8020A94174
:105AC00002D2761E80185941C90241EA50514EEA6D
:105AD000060EB1FBF3F603FB1611A2FB0675D7EB1E
