:020000040800F2
:10000000500A0020A55A0008E5580008E7580008E3
:10001000E9580008EB580008ED58000800000000FF
:10002000000000000000000000000000EF58000881
:10003000F158000800000000F3580008F5580008C7
:10004000DD5A0008E15A0008E55A0008E95A00089C
:10005000ED5A0008F15A0008F55A0008F95A00084C
:10006000FD5A0008015B0008055B0008095B0008F9
:100070000D5B0008115B0008155B0008195B0008A8
:100080001D5B0008215B0008255B0008295B000858
:100090002D5B0008315B0008355B0008395B000808
:1000A0003D5B0008415B0008455B0008495B0008B8
:1000B0004D5B0008515B0008555B0008595B000868
:1000C0005D5B0008615B0008655B0008695B000818
:1000D0006D5B0008715B0008755B0008795B0008C8
:1000E0007D5B0008815B0008855B0008895B000878
:1000F0008D5B0008915B0008955B0008995B000828
:100100009D5B0008A15B0008A55B0008A95B0008D7
:10011000AD5B0008B15B0008FD580008B55B000846
:10012000B95B0008BD5B0008C15B0008C55B000847
:10013000C95B0008CD5B0008D15B0008D55B0008F7
:10014000D95B0008DD5B0008E15B00080759000887
:10015000E55B0008E95B0008ED5B0008F15B000867
:10016000F55B0008F95B0008FD5B0008015C000816
:10017000055C0008095C00080D5C00080000000038
:10018000115C0008155C00082DE9F14FB0B09246F3
:1001900004910DF142013A9A2B9199464A70002040
:1001A0000AE01AF8011B0498309A9047002804903E
:1001B00000F0A8860D98401C0D909AF8000050B1F0
:1001C0002528EED1002100220791089209910A9278
:1001D0000B910C9204E00D9800F096BE41F00101E5
:1001E0001AF8010F2028F9D023280CD02B2804D08E
:1001F0002D2805D0302809D00BE041F00201EFE7AF
:1002000041F00401ECE741F00801E9E741F0100199
:10021000E6E72A280FD1D9F8002052F8040BC9F8D4
:10022000002000280F9003D540420F9041F00401B8
:100230000AF1010A14E00F92DFF828380AE00F985B
:10024000984205DA00EB800402EB4402303A0F9248
:100250000AF1010A9AF80020A2F130000A28EED330
:100260009AF800002E2803D04FF0FF320E9229E0BA
:100270001AF8010F2A2809D1D9F8000050F8042BE8
:10028000C9F800000E920AF1010A1BE02D280CBFEC
:100290000AF1010A002000220E92DFF8C8470BE0A5
:1002A00040B90E9AA24205DA02EB820503EB450340
:1002B000303B0E930AF1010A9AF80030A3F13002A4
:1002C0000A2AEDD3ADF84010DFF89C07784400F51A
:1002D000F3609AF8001000F049FF08B11AF8010B1A
:1002E0008DF842009DF84200682805D19AF8000078
:1002F00068280CD1622106E06C2804BF9AF800003F
:100300006C2804D171218DF842100AF1010A12A85B
:1003100006901AF801BBBBF125012CD01C3900F066
:10032000D081091F022940F2CC81133900F01585D4
:10033000093900F0C681891E00F0AA85491E00F027
:100340005785491E022940F2BC81091F00F05085E3
:10035000491F00F02881491E00F0FF84491E00F06B
:10036000D080C91E0DD0891E00F0F784C91E00F090
:10037000F48400F098BD25238DF84830012100F069
:100380009DBDD9F8000050F8044BC9F80000002CBE
:10039000059440F0A3802B994878002800F09980BC
:1003A0004FF0FF340FF6683000F0ECFE201A40F0FA
:1003B000A98500F084BD6D1E40F09B853096079D99
:1003C00012AF75B1309E17F8012B02A9304600F02C
:1003D00065FE002801D46D1EF5D10028309640F04E
:1003E00091850A9D3020002D8DF804000CDD309E93
:1003F000012301AA02A9304600F060FE002840F067
:1004000081856D1EF4D13096059F089D75B1309E93
:1004100017F8012B02A9304600F040FE002801D455
:100420006D1EF5D10028309640F06C850B9D302074
:10043000002D8DF804000CDD309E012301AA02A9D5
:10044000304600F03BFE002840F05C856D1EF4D184
:10045000309605980899099D471875B1309E17F890
:10046000012B02A9304600F019FE002801D46D1EB0
:10047000F5D10028309640F045850C9D3020002DA8
:100480008DF804000CDD309E012301AA02A930463C
:1004900000F014FE002840F035856D1EF4D1309632
:1004A0009DF8400041077FF588AE2020002C8DF894
:1004B00004007FF782AE309D012301AA02A92846DD
:1004C00000F0FCFD002840F01D85641EF4D130953D
:1004D00073E60FF64840059000F0F1BC0E9D002D2C
:1004E00004D5204600F06EFE044607E02A4620466A
:1004F00000F084FE002814BF041B2C46089400F072
:10050000DEBCD9F8001051F8040BC9F8001020F037
:100510000004002121F0FF3512ABCDE9024505931F
:10052000DDE9022306993C2413B90AB90E9898B163
:1005300002F00F053035641EEEB23A2EA8BF273503
:10054000120942EA03721B090D5508BF002A03D0A5
:1005500005980D19A842EBD308190590C4F13C0287
:100560000E98089282420ADABDF84010821A4FF6BD
:10057000EF7001400A92ADF8401000F0A0BC0028D6
:1005800040F19D849DF8400000F01400102840F0D8
:1005900096840F9B07990A985B1A1B1A9A1A002ACD
:1005A00040F38D84D7E32B99487820B14FF0FF3486
:1005B0000FF63830F8E69DF84200622861D06828CE
:1005C00017D06A283FD06C2806D0712847D07428ED
:1005D0002CD07A281DD064E0D9F8001051F8040B13
:1005E000C9F80010002868D14FF0FF340FF614301E
:1005F000DAE6D9F8001051F8040BC9F8001020B958
:100600004FF0FF340FF6FC20CEE60D99018000F08C
:1006100056BCD9F8001051F8040BC9F80010002896
:100620004BD14FF0FF340FF6DC20BDE6D9F80010B7
:1006300051F8040BC9F8001000283ED14FF0FF34E8
:100640000FF6C020B0E6D9F8001051F8040BC9F835
:10065000001080B94FF0FF340FF6A820A4E6D9F8B7
:10066000001051F8040BC9F8001020B94FF0FF3406
:100670000FF6902098E60D9AD317C0E9002300F0FA
:100680001EBCD9F8001051F8040BC9F8001020B9AD
:100690004FF0FF340FF66C2086E60D99017000F0E4
:1006A0000EBCD9F8001051F8040BC9F8001020B99D
:1006B0004FF0FF340FF64C2076E60D99016000F004
:1006C000FEBBD9F80020D21D22F00702C9F8002095
:1006D000D2E900010832C9F80020CDE90201C80FB3
:1006E00002D007982D210AE0BDF84000810702D50D
:1006F00007982B2103E0C00705D50798202112AAEF
:100700001154401C0790DDE90223079912A8CDE996
:100710002C2308444BF020016129059021AC0BD01B
:100720000E99002902D506210E9105E001BF4BF07C
:100730002001672901220E92DDE9022359004915A3
:10074000491C0DD11A030BD0ABF1610503211A2D01
:10075000089102D20FF6C81110E00FF6C8110DE093
:1007600059004915491C0DD11A030BD1ABF1610594
:1007700003211A2D089119D30FF6B011032200F0AE
:1007800069FD9CE3DDE90201CDE92E01DDE92E23BF
:1007900023F00047B7F5801F22F000060DD200229B
:1007A000002F08BF002E009203D116E00FF678113B
:1007B000E4E76A4600F0A2FD0FE0DFF8C008DFF8CA
:1007C000C01800EB17500090DDE92E234FF0FF30EA
:1007D0001940DFF8B07810403943CDE902014BF001
:1007E000200061280DD1059830210170821CBBF1D9
:1007F000610F05920CBF7821582141700798801C29
:100800000790DDE9020120F0000231F0004308BF4B
:10081000002A02D10026002568E14BF02008B8F13B
:10082000610F40F0B4800E98002847BF212101914C
:10083000401C0190019FDDE92C017F1C0022002358
:10084000DDE9024500F092FD00998DF8842038BF63
:1008500085F00045091F002F00910DF1850653DD3D
:10086000204629460022002300F098FD4CD2480083
:10087000400D00F11C0212D0002A10DD40F2FF737F
:100880009A4206DBDFF8001805F000400143002023
:1008900011E06FF31E5141EA025120460BE024F0B3
:1008A000000035F0004108BF00280FBF29461C2278
:1008B000294600F08BFD04460D4600F025FEFF1F83
:1008C000002F804609DD00F03DFE02460B46204623
:1008D000294600F049FE04460D46F01D0721B8F1F7
:1008E000000F0CDD491E5EBF08F00F0200F8012D5D
:1008F0004FEA2818F3D502E0002200F8012D491E26
:10090000FAD5C61D002FABDC0DF18500361A019813
:100910008642D8BF304600280DF1850430D4B0425D
:1009200006DA0DF185010A5C082AA8BF0F2100DA5A
:100930000021024621AB134400E0401E13F8015988
:10094000521E8D42F9D00F2904D10DF185018B5C27
:100950005B1C8B54002A04D50099091D21AC401C56
:100960000091411E0CD46218ABF13A061378303373
:10097000DDB23A2DA8BFF318491E02F80139F5D5AA
:100980000E99002940F1B080421E0E92ACE0009911
:10099000DFF8F82647F29750414391FBF2F2DDE988
:1009A0002C45009225F00045D2F1070204DD2046D7
:1009B000294600F040FB0BE052420020DFF8D01641
:1009C00000F039FB02460B462046294600F03EFE69
:1009D0000446B8F1660F0E9806BF009F0A37062737
:1009E0003F18142FC8BF142730200D468DF88400FF
:1009F0000DF18506002F39DD2046294600F04AFF1B
:100A000001460A4606F1080304200A26B2FBF6F660
:100A100006EB860EA2EB4E02303203F8012C0A22BE
:100A2000B6FBF2F202EB820EA6EB4E063036401E0B
:100A300003F8026DE9D1083F002F03F10806D9DD64
:100A4000084600F03BFF02460B462046294600F0D0
:100A50008BFD0022DFF83C3600F03EFF04460D46D9
:100A6000CAE700BFCBCCCC0C6C5000000DF1850068
:100A7000361A0DF1850404E00098401E761E0090A1
:100A8000641C20783028F7D0B8F1660F02D10099A5
:100A9000491C04E0B8F1650F0CBF012100210E983C
:100AA00008188642B8BF701E00281DD4B04204DA70
:100AB000215C3429C8BF392100DC30210246631E85
:100AC0009D1800E0401E15F80169521E8E42F9D0B3
:100AD000392902D1A15C491CA154002A04D50099EE
:100AE000491C1C46401C00910646009D0E9F30B2DA
:100AF000002802DC01260FF238644BF02000662843
:100B000008BF6D1C15D067280FFA85F841D118F180
:100B1000040F44DBB84542DA9DF840006D1C010724
:100B200003D430B2B842B8BF074628B23F1A48BF14
:100B300000270FFA85F8B8F1000F00F3AF8008988E
:100B4000411C0891302205990A54002F03DC9DF8BE
:100B50004000010705D50898411C08912E220599EF
:100B60000A5417EB080FB8BF7D4228B2C51932B23C
:100B7000414295420B91B8BF2E46059B089836B26C
:100B8000099632462146184400F064FBAD1B0C95D3
:100B9000CCE0BBF1610F15D14FF0700B17E030B214
:100BA000B84204DA9DF840100A0758BF07467F1E76
:100BB00048BF0027BBF1670F14BF4FF0450B4FF044
:100BC000650B04E0BBF1410F08BF4FF0500B0898D4
:100BD000411C0891002F059914F8012B0A5403DCDD
:100BE0009DF84000010719D50898411C08912E2254
:100BF00005990A54002F11DD761E30B28742059800
:100C0000089BB8BF3E4632B22146184400F022FB92
:100C1000089836B23018BF1B08900B9705980899B2
:100C20000844B8F1000F80F800B003D42B224270C2
:100C3000821C04E02D2145464170821C6D4200213A
:100C40002CAB28460AE004460A2094FBF0F000EBA7
:100C50008005A4EB450403F8014B491C00B20028B1
:100C6000F1DC012906DC4BF02000652804BF3020B0
:100C700002F8010B00292CAB08D1302002F8010B3F
:100C800006E0491E585C303002F8010B0029F8DC00
:100C9000059908980844121A099247E030B229B21F
:100CA00088421BDA0598089B32B22146184400F0AE
:100CB000D1FA089936B27118A8EB0606002F0891F0
:100CC0000B9603DC9DF84000020705D5059A2E20FF
:100CD00050540999491C09910C9727E00598089BE5
:100CE0002AB22146184400F0B5FA0898761B404411
:100CF000002F089003DC9DF840100A0704D5411C22
:100D000008912E2205990A5430B287420598089B13
:100D1000B8BF3E4632B204EB0801184400F09AFA1C
:100D2000089836B23018BE1B08900B969DF840000C
:100D300000F01400102840F0C280079A08990B9820
:100D40008A18099982180C988A1882180F9882427A
:100D500080F2B580821A0A92B1E09DF842006228C2
:100D600008D068280ED06A2814D06C281FD07128AB
:100D700010D01CE0D9F8001051F8040BC9F800108D
:100D8000C0B21AE0D9F8001051F8040BC9F80010ED
:100D900080B212E0D9F80020D21D22F00702C9F873
:100DA0000020D2E900010832C9F8002006E0D9F895
:100DB000001051F8040BC9F800100021CDE9020120
:100DC0009DF8400001075AD5DDE90223002B08BF3A
:100DD000002A54D04BF02000782850D1079812A94F
:100DE00030220A54401C431C079301F800B046E02F
:100DF0009DF84200622808D068280ED06A2814D0D6
:100E00006C281FD0712810D01CE0D9F8001051F8C0
:100E1000040BC9F8001040B21AE0D9F8001051F8DC
:100E2000040BC9F8001000B212E0D9F80020D21D5E
:100E300022F00702C9F80020D2E900010832C9F8FF
:100E4000002006E0D9F8001051F8040BC9F8001092
:100E5000C117CDE90201002902D507982D210AE02A
:100E6000BDF84000810702D507982B2103E0C00799
:100E700005D50798202112AA1154401C079012A8EA
:100E800007990144059102A8594600F04FF816E071
:100E900001200790D9F8000050F8041BC9F80000A1
:100EA0008DF848100BE025210122BBF1000F8DF8D1
:100EB0004810079203D08DF849B0022107910F9A8C
:100EC00007980A990C9C121A0898521A0B99121A30
:100ED0000998521A121A9DF84000141B41073FF559
:100EE0006EAA2020002C8DF804007FF768AA309E9F
:100EF0002546012301AA02A9304600F0DFF80028A8
:100F00003FF459AA4FF0FF3031B0BDE8F08F000038
:100F10007072696E74665F733A2062616420257333
:100F200020617267756D656E740000002DE9FC43E9
:100F300007466F293E6908BF082405D041F020000C
:100F4000782814BF0A2410243C25D7E900236429FB
:100F500018BF69299046994605D1002B03D5D8F1D1
:100F6000000869EB4909B9F1000F08BFB8F1000F9B
:100F70000CD1386B50B9082C39D197F838000107DB
:100F800035D530203B2586F83B0030E08DF8001049
:100F9000404649462246E31700F070FD3032D0B299
:100FA0006D1E3A28019504DB9DF80000A0F1510167
:100FB0008A187255404649462246E31700F05EFD06
:100FC00080465FEA010908BFB8F1000F03D0F86856
:100FD00071198842DCD3082C09D197F83800010731
:100FE00005D5705D302802D06D1E30207055C5F1DA
:100FF0003C02BA617119F960386B824208DA821AD0
:101000003A624FF6EF70398F01403987BDE8F383BC
:1010100000280ED597F8380000F01400102808D1E9
:101020007B6B7969386A5B1A1B1A9A1A002AC8BF47
:101030003A62BDE8F3832DE9D04306460F461446D5
:101040004FF00008DFF8509012E0E00707D5424665
:101050004B463046394600F03FFC06460F464046B8
:10106000494642464B4600F037FC641080468946AC
:10107000002CEAD130463946BDE8D08302FCFFFFA0
:10108000FFFF0F800000E03F0000F07FA08601001E
:101090000000F03F84D797410000244010B503467C
:1010A0000C461146A0689847A06020B1E06A401C39
:1010B000E062002010BD4FF0FF3010BDF8B50546CE
:1010C0000E4617461C4600205CB117F8011BB0689D
:1010D000A847B06030B1F06A401CF0620020641E86
:1010E000F3D1F2BD4FF0FF30F2BD00007072696EB7
:1010F00074665F733A20256E20646973616C6C6F4F
:10110000776564007072696E74663A20626164206B
:10111000256E20617267756D656E740000000000B9
:101120006E616E004E414E00696E6600494E46008B
:10113000300030B4002513E050F8042BD30744BF2F
:10114000A9F101039A18091F042942F8045BFAD295
:1011500013468C0744BF15809B1CC90748BF1D70F0
:1011600050F8041B0029E7D130BC7047C9B202789F
:101170008A421AB11CBF10F8012FF9E718BF0020EE
:101180007047000080B500B906A005490B681BB187
:1011900022220021984701E000F088FD222002BDB4
:1011A00044060020636F6E73747261696E74206808
:1011B000616E646C65723A20626164206D65737360
:1011C0006167650000F10103810704D010F8011B7D
:1011D000820781B1FAD10268A2F10131914311F085
:1011E000803104BF50F8042FF6E709BAB1FA81F153
:1011F00000EBD100401CC01A70470000C9B2830741
:1012000006D0521E22D310F8013B9942F7D11FE0BD
:10121000083A13D302F1040241EA012141EA0141F3
:1012200050F8043B121F21BF4B40A3F1013C2CEAB4
:10123000030C1CF0803FF3D0C9B2001F083210F835
:10124000013B521E28BF91EA030FF8D818BF0120B6
:10125000401E704762B38B0708D0521E11F8013B45
:1012600000F8013B00F024808B07F6D1830740F0A3
:10127000208000BF103A07D330B4B1E83810103ADC
:10128000A0E83810F9D230BC530724BFB1E80810E9
:10129000A0E8081044BF51F8043B40F8043BD207D3
:1012A00024BF31F8022B20F8022B44BF0B780370C7
:1012B0007047121F17D35B0009D151F8043B20F887
:1012C000023B1B0C121F20F8023BF6D20BE051F838
:1012D000043B00F8013B1B0A20F8023B1B0C121FC9
:1012E00000F8013BF3D238BF121D521E24BF11F883
:1012F000013B00F8013BF8D87047000010B51446D8
:1013000000F002F8226010BDC1F30A5343B14A0055
:1013100012F5001F28D2A3F2FE32A1EB0251704752
:1013200050EA410C20D001F0004C31EA0C01B1FA36
:1013300081F204BFB0FA80F3D2180B3AB2F1200365
:101340002CBF00FA03F1914041EA0C013EBFC2F10B
:10135000200C20FA0CF319439040524240F2FD3326
:10136000D21A01EB03517047002270474FF4001C62
:101370001CEB410F94BF1CEB430F09E041EA030C47
:1013800050EA4C0C52EA0C0C03D2994208BF90422E
:10139000704714BF8B428242704700004FF4001C1C
:1013A0001CEB410F94BF1CEB430F09E041EA030C17
:1013B00050EA4C0C52EA0C0C03D28B4208BF82421A
:1013C000704714BF9942904270470000124254D4B3
:1013D00040F2FF7C1CEA11530FD0634531D09B18BB
:1013E00063453CBF01EB0251704701F0004141EA07
:1013F0000C510020AFF30080704750EA410320D029
:1014000001F0004C91EA0C011CD0B1FA81F30B3BC6
:101410009A420DD9D21A994051EA0C01C3F1200C1D
:1014200020FA0CFC61449840531C40F2FF7CD7E743
:10143000914041EA0C01C2F1200C20FA0CF319434F
:1014400090407047B0FA80F31533202BE0D3202A68
:10145000EED3203A203B9A4209D9D21A00FA03F17E
:1014600041EA0C010020531C40F2FF7CB8E700FA6F
:1014700002F141EA0C0100207047524240F2FF7C29
:101480001CEA11530DD06345DBD0B2EB030C3CBF1B
:10149000A1EB025170470CF1010221EA035141F422
:1014A000801150EA410CCCD001F0004C352A27DCE9
:1014B00030B481EA0C01B2F1200309DAC2F1200351
:1014C000044601FA03F5D0402843D1409C400CE08B
:1014D000C3F12002450020FA03F418BF44F00104D0
:1014E00021FA03F091400C43002174F1004550F1C2
:1014F000000051EB0C01244230BC7FF47BAF7047FD
:101500006146002076E70000C1F30A5340F2FE3244
:101510009B1A14DDD3F120034FEAE17208DDC90202
:1015200041EA505141F00040D84080185040704787
:1015300003F2E13010B1D24382F000407047002046
:1015400070470000C11768B14840401AB0FA80F2F5
:101550009040D21CC907C2F5846241EA025202EBF4
:10156000D02140057047000070B44FF0004591EA6B
:10157000030F40F19F836B40841A71EB030603D283
:10158000001BB141121973414FF4001C1CEB410FB9
:1015900034BF7CEB430442E00C0DA4EB1356352E14
:1015A0004FDC45EAC323DB0A45EAC121C912B6F183
:1015B00020050DDD63FA05F6EB4086EA03051242CD
:1015C00018BF45F00105C01851F100010CD213E01D
:1015D00062FA06F5F2405540F3415A40B340F340F9
:1015E0005A408018594107D349085FEA30005FEA42
:1015F000350528BF45F0010501F58011420875F158
:10160000004250F1000041EB04514E0016F5001F5E
:1016100070BC38BF70470020090D090570471CEBEE
:10162000410F10D252EA43060BD0BCEB410F05D854
:101630000C0DAB43661E342EB6DD02E0AB438018C2
:10164000594170BC704770BC70470000F0B540F263
:10165000FF7581EA030C0CF0004C15EA11541DBF14
:1016600015EA1357AC42AF42E5E0BC41C1F31301A8
:10167000C3F31303801A994143F4801304D2641E08
:101680004000494180185941C90241EA5051B1FB1B
:10169000F3F603FB1611A2FB0675D7EBC020A94198
:1016A00002D2761E80185941C90241EA5051B1FB5D
:1016B000F3FE03FB1E11A2FB0E75D7EBC020A94160
:1016C00003D2AEF1010E80185941890241EA9051CE
:1016D000760546EA8E2EB1FBF3F603FB1611A2FB4C
:1016E0000675D7EB8020A94102D2761E8018594199
:1016F000C90241EA50514EEA060EB1FBF3F603FB74
:101700001611A2FB0675D7EBC020A94102D2761EA6
:1017100080185941C90241EA5051B1FBF3F703FB6C
:101720001711A2FB0735D3EBC020A94167F10007D1
:101730000CBF004247F0010766F3D5274FEA1E3180
:10174000B80814F5806412DDBD0775F1004250EB56
:101750000E5051EB045111F5801F5CBF41EA0C01A2
:10176000F0BD4CF07F6141F0E0410020F0BDBD07CD
:101770006D0840EA0E5041F48011D4F10104B4F137
:1017800020060ADAC4F120060200E04001FA06F35E
:10179000E1401843B24015430EE0342C13DCC6F18F
:1017A000200445EA40056D0820FA06F2154321FAA7
:1017B00006F0A1400D43002175F1004250F10000F8
:1017C00051EB0C01F0BD00205FEA0C01F0BDCFB978
:1017D00092185B41B3FA83F704BFB2FA82F6BF19DD
:1017E0000B3FB7F120062FBF02FA06F3BB40C7F14B
:1017F000200622FA06F638BF3343BA401CB1E4197A
:10180000641E33E77F4231F00041B1FA81F404BF36
:10181000B0FA80F6A4190B3CB4F120062FBF00FAF1
:1018200006F1A140C4F1200620FA06F638BF314384
:10183000A0403C1B1AE7AC421ABF05EA1357AF425F
:1018400012E050EA41061CBF52EA4306BFE750EAE5
:101850004107304661461CBF41EA0551F0BD52EADE
:10186000430C08BFC143F0BD00204FF4001616EB37
:10187000410F98BF16EB430F08BF16EB410F24BF73
:10188000C14305E016EB430F0CBF61464CEA05511E
:10189000F0BD0000400D491840EA81200CD2490DEE
:1018A000A1F58061491C40F0004005DBD1F11F012A
:1018B00054BFC840C017704700207047014648B168
:1018C000B0FA80F18840C91CC1F58461090501EBBB
:1018D000D021400570470000B0B581EA030C0CF040
:1018E000004C40F2FF7515EA11541DBF15EA13575D
:1018F000AC42AF4239E0E41923EA455343F4801384
:10190000C90241F0004141EA505EC7021100A7FB45
:10191000020200284FF00000EEFB01204FF0000112
:10192000E3FB072118BF42F00102401800214941A2
:10193000E3FB0E01A4F580640F0302D25200404184
:10194000494154F101046CDD470872F1004250F145
:10195000000051EB0451A1F580115CBF41EA0C017C
:10196000B0BD4CEA05510020B0BD05EA1357AC42AA
:1019700014BFAF4241E050EA410E1CBF52EA430E91
:1019800002E061460020B0BD24423C441BD15FEA26
:10199000070EF6D0090302BF01460020AEF1140E77
:1019A000B1FA81F7AEEB070401FA07FE0C37C7F175
:1019B000200100FA07F7C8404EEA000E23EA45531B
:1019C00043F48013A2E733F00043B3FA83F704BF74
:1019D000B2FA82FE77440B3FE41BB7F1200E2FBF13
:1019E00002FA0EF3BB40C7F1200E22FA0EFE38BFFA
:1019F00043EA0E03BA40641C82E750EA410E14BF6A
:101A000052EA430E6FF000014FF4001717EB430F3B
:101A10008ABF194617EB410FB5E74CEA0551002084
:101A2000B0BDD4F10104B4F120070FDAC4F12007EE
:101A3000520828BF42F0010210FA07F501FA07F731
:101A4000E1BF2A43E0403843E1400FE0352C98DC09
:101A5000C7F1200452EA400220FA07F218BF42F010
:101A6000010231FA07F0A1400A43002172F100425D
:101A700050F1000051EB0C01B0BD0000BBBBE1B167
:101A8000B2F5803F80F07E80022A1ED98C46B1FBE1
:101A9000F2F102FB11C31B0443EA1043B3FBF2FC57
:101AA00002FB1C3380B240EA0343B3FBF2F002FBBB
:101AB000103240EA0C4000237047022A05D98446C0
:101AC000B0FBF2F002FB10C270474AB105D100F042
:101AD000010249085FEA3000704700220023704786
:101AE00000F09EB90B0002000021002070479042D8
:101AF00071EB030CF6D3B3F5803F2FD2F0B5B3FAF8
:101B000083F7B1FA81F4A7F10F0E3D1B5340CEF1DC
:101B1000200602FA0EF2F3415340B5F10F0746D802
:101B20000F3C2C444140C4F12006A040F14141400B
:101B3000B1FBF3F603FB1611A2FB0645001BA941FE
:101B400002D2761E8018594180EA010221FA0EF372
:101B500062FA0EF200215A403046F0BD30B4B1FBBB
:101B6000F3FC03FB1C11A2FB0C45001BA94103D293
:101B7000ACF1010C8018594130BC02460B4660465E
:101B800000217047B2F1807F65D3F0B5B2FA82F7D9
:101B9000B1FA81F4C7F10F063D1B22FA06F307F1F3
:101BA000110EF24120355A40B5F10F07B8D9414026
:101BB000C4F12006A040F1414140B1FBF3FC03FB1E
:101BC0001C11A2FB0C45001BA94103D2BCF1010C66
:101BD000801859410F2F12D30F3FC90341EA5041DA
:101BE000B1FBF3F603FB1611A2FB0645D4EBC030A4
:101BF000A94102D2761E8018594146EACC3C07B36F
:101C00004140C7F12006B840F1414140B1FBF3F635
:101C100003FB1611A2FB0645001BA94102D2761E4A
:101C20008018594180EA010221FA0EF3C7F120041D
:101C300062FA0EF20CFA07F05A402CFA04F1304323
:101C4000F0BD80EA010221FA0EF3002162FA0EF2E1
:101C500060465A40F0BD8C46B1FBF2F102FB11C365
:101C60001B0243EA1063B3FBF2FC02FB1C331B02B2
:101C70004CEA002043EA1063B3FBF2FC02FB1C3386
:101C80001B024CEA002043EA1063B3FBF2FC02FBA8
:101C90001C331B024CEA002043EA1063B3FBF2FC46
:101CA00002FB1C324CEA002000237047012000F0A8
:101CB000B9B80000841A71EB030604D26E40001B11
:101CC000B141121973414FF4001C1CEB410F34BF9A
:101CD0007CEB430683E00C0DA4EB1356362E00F389
:101CE0007C80012E45EAC32341DC43EA525312BFF4
:101CF000D20292025B08240545EAC12141EA505113
:101D0000D2EBC020994125D407D1B0FA80F610FA61
:101D100006F162D00020203608E0B1FA81F6B14029
:101D2000C6F1200220FA02F21143B0404FEAF474E7
:101D3000B4EB465434F001064FEA74040AD8D6F5E1
:101D40000016760D04F00044F04061FA06F25040AF
:101D5000F1404840C00A40EA415021F0004128BF0C
:101D60005FEA500550F1000044EBD12135E0DB0A79
:101D700045EAC121C90AB6F120050EDD42EA024258
:101D8000120CC5F1200603FA06F6EB4042EA0605FE
:101D90006D42984161F100010DE062FA06F5F240F2
:101DA000554063FA06FC82EA0C02F3405A406D4249
:101DB000904161EB030111F4801F05D1641E62059F
:101DC00002D06D004041494121F48011430875F172
:101DD000004350F1000041EB045170BC70471CEB14
:101DE000410F15D223F0004352EA43060BD04FEACD
:101DF0004C0CBCEB410F04D80C0D661E342EB7DD25
:101E0000EBE7801A994150EA410608BF0021E4E758
:101E100008BF1CEB430F28BF6FF00001DDE7000097
:101E20007047000080B500F007F8024A1100182042
:101E3000ABBEFBE72600020010B500F052F802002E
:101E40000023DB4300241068984203D011000220D5
:101E5000ABBE14605068984203D0111D0220ABBE87
:101E6000546010BDF0B583B0040000F03AF8A10052
:101E700047183D680026F643B54216D100F01AF81F
:101E80003D68B5420FD100BF09A00090002C01D1E0
:101E9000002000E004200190032002906946012008
:101EA000ABBE05003D6000F014F8280003B0F0BDA3
:101EB0003A7474000C480121BFF35F8FD0E84F3FA4
:101EC000C0E8421F002AF9D1BFF35F8F002BF3D186
:101ED00070470548BFF35F8F00210170BFF35F8F2C
:101EE00070470248704700004C0600201C0000208C
:101EF00038B58AB00400002C01D1012031E02568FA
:101F000094F8B902002805D1002084F8B802200016
:101F100000F078FE032084F8B902E86BC00501D414
:101F200000202061206800F005FF211D83B0684675
:101F30003422FFF79FF90EBC206800F0BBFE0121A0
:101F4000206800F0FDFE211D83B068463422FFF7B3
:101F500091F90EBC206800F069FF012084F8B902F5
:101F600000200BB030BDF8B504002568206800F0F3
:101F70003CFF012840F09080206800F031FF0028ED
:101F800000F08A80206800F02BFF800203D55FF408
:101F9000001021684861206800F022FFC00203D5CC
:101FA0005FF4801021684861206800F019FF40014B
:101FB00003D55FF0806021684861206800F010FF61
:101FC000800702D5022021684861206800F008FFE0
:101FD00080000FD55FF000502168486115F58860DA
:101FE0000068C00706D4200001F0B0F80121206885
:101FF00000F09EFF206800F0F3FEC00102D5200033
:1020000000F096FD206800F0EBFE000705D52000EB
:1020100001F09DF8082021684861206800F0E0FE8A
:10202000800125D5206800F0D1FF0600002718E0C8
:102030003900C9B2200000F0DFFA11E017F00F00FC
:102040003100C140C8070BD515EB471010F5A06053
:1020500000680004ECD53900C9B2200000F01DF87A
:102060007F1CA0688742E9D35FF000702168486157
:10207000206800F0B5FEC0060ED52068806930F0FB
:10208000100021688861200000F0F2FC206880695F
:1020900050F0100021688861F1BDF8B504000E0011
:1020A0002568F6B215EB461010F5A0608068400771
:1020B00012D515EB461010F5A0600421816015EBD8
:1020C000461010F5A06015EB461111F5A061C96826
:1020D00051F00201C1608CE015EB461010F5A060D4
:1020E0008068C0051FD515EB461010F5A0604FF4B1
:1020F000807181600720282101FB06F1214481F8CD
:102100005D0015EB461010F5A06015EB461111F5BA
:10211000A061C96851F00201C1603100C9B22068F4
:1021200000F059FF65E015EB461010F5A0608068DF
:10213000800606D515EB461010F5A06020218160C1
:1021400057E015EB461010F5A0608068000724D515
:1021500015EB461010F5A06015EB461111F5A061C6
:10216000C96851F00201C1600520282101FB06F178
:10217000214481F85D0015EB461010F5A060102198
:10218000816015EB461010F5A060082181603100D8
:10219000C9B2206800F01FFF2BE015EB461010F5C8
:1021A000A0608068400524D515EB461010F5A060AE
:1021B00015EB461111F5A061C96851F00201C1602B
:1021C0003100C9B2206800F006FF15EB461010F58B
:1021D000A060102181600820282101FB06F1214424
:1021E00081F85D0015EB461010F5A0604FF480619A
:1021F000816015EB461010F5A0608068800518D549
:1022000015EB461010F5A06015EB461111F5A06115
:10221000C96851F00201C1603100C9B2206800F004
:10222000DAFE15EB461515F5A0654FF40070A860B1
:10223000E1E115EB461010F5A0608068C00740F1A1
:10224000A0802069002810D0282000FB06F121443E
:10225000896C15EB461212F5A06212695203520BFB
:10226000891A00FB06F02044C1642827012007FBDF
:1022700006F1214481F85D00002007FB06F12144AE
:10228000886515EB461010F5A0600121816007FB01
:1022900006F0204490F83F00002806D007FB06F027
:1022A000204490F83F00022817D115EB461010F596
:1022B000A06015EB461111F5A061C96851F002014B
:1022C000C1603100C9B2206800F085FE15EB4615EB
:1022D00015F5A0651020A86046E007FB06F0204435
:1022E00090F83F0003281CD115EB461010F5A060B4
:1022F000006850F0005015EB461515F5A0652860F4
:10230000012007FB06F1214481F85C0007FB06F081
:10231000204490F85C203100C9B2200000F018FF82
:1023200022E007FB06F0204490F83F0001281BD173
:10233000012007FB06F1214481F85C0007FB06F051
:10234000204490F8500090F0010007FB06F1214472
:1023500081F8500007FB06F0204490F85C20310023
:10236000C9B2200000F0F4FE07FB06F0204490F80C
:10237000500090F001007E4304EB060181F850000C
:1023800039E115EB461010F5A0608068800740F138
:10239000AA8015EB461010F5A06015EB461111F55B
:1023A000A061C96831F00201C160282000FB06F17C
:1023B000214491F85D10012906D1012100FB06F2AC
:1023C000224482F85C107DE000FB06F1214491F884
:1023D0005D10052906D1052100FB06F2224482F892
:1023E0005C106FE000FB06F1214491F85D100629B6
:1023F00006D000FB06F1214491F85D1008292FD189
:1024000000FB06F12144896D491C00FB06F22244C1
:10241000916500FB06F12144896D04290BD300214D
:1024200000FB06F222449165042100FB06F22244DF
:1024300082F85C1005E0022100FB06F2224482F8DB
:102440005C1015EB461111F5A061096831F080416F
:1024500051F0004115EB461212F5A062116031E017
:1024600000FB06F1214491F85D10032914D10221EB
:1024700000FB06F2224482F85C1015EB461111F5C0
:10248000A061096831F0804151F0004115EB46121E
:1024900012F5A062116015E000FB06F1214491F8ED
:1024A0005D1007290ED100FB06F12144896D491CFE
:1024B00000FB06F222449165042100FB06F222444F
:1024C00082F85C1015EB461515F5A0650221A96090
:1024D00000FB06F0204490F85C203100C9B22000D7
:1024E00000F036FE87E015EB461010F5A06080681E
:1024F000000627D515EB461010F5A06015EB461128
:1025000011F5A061C96851F00201C160282000FBEB
:1025100006F12144896D491C00FB06F222449165B5
:10252000062100FB06F0204480F85D103100C9B29E
:10253000206800F050FD15EB461515F5A0658020CC
:10254000A86058E015EB461010F5A0608068C00642
:1025500051D5282101FB06F0204490F83F000328C4
:1025600016D1002001FB06F12144886515EB4610C9
:1025700010F5A06015EB461111F5A061C96851F086
:102580000201C1603100C9B2206800F024FD2CE0D6
:1025900001FB06F0204490F83F00002806D001FB24
:1025A00006F0204490F83F0002281ED1002001FBD5
:1025B00006F2224490652069002816D1032001FB11
:1025C00006F1214481F85D0015EB461010F5A0607E
:1025D00015EB461111F5A061C96851F00201C16007
:1025E0003100C9B2206800F0F6FC15EB461515F570
:1025F000A0651020A860F1BDF8B506000C00356894
:10260000E4B215EB441010F5A0608068400712D5C5
:1026100015EB441010F5A0600421816015EB441007
:1026200010F5A06015EB441515F5A065E96851F0AB
:102630000201C1601BE215EB441010F5A060806838
:1026400080062CD515EB441010F5A0602021816088
:10265000282000FB04F1314491F83D10012940F09D
:102660000682002100FB04F2324482F83D10022170
:1026700000FB04F0304480F85C1015EB441010F5BA
:10268000A06015EB441515F5A065E96851F002014D
:10269000C1602100C9B2306800F09DFCE7E115EB94
:1026A000441010F5A0608068400629D52820042138
:1026B00000FB04F2324482F85D10012100FB04F2B9
:1026C000324482F83D10002100FB04F03044816563
:1026D00015EB441010F5A06015EB441111F5A06145
:1026E000C96851F00201C1602100C9B2306800F030
:1026F00072FC15EB441515F5A0654020A860B6E105
:1027000015EB441010F5A0608068800518D515EB16
:10271000441010F5A06015EB441111F5A061C968D3
:1027200051F00201C1602100C9B2306800F053FCD1
:1027300015EB441515F5A0654FF40070A86096E1FF
:1027400015EB441010F5A0608068C00723D528273A
:10275000002007FB04F13144886515EB441010F5A7
:10276000A06015EB441111F5A061C96851F0020198
:10277000C1602100C9B2306800F02DFC15EB441592
:1027800015F5A0650120A86001207C4306EB04013B
:1027900081F85D006BE115EB441010F5A0608068D6
:1027A00000071ED515EB441010F5A06008218160CC
:1027B00015EB441010F5A06015EB441515F5A06558
:1027C000E96851F00201C1602100C9B2306800F02F
:1027D00002FC05212820444306EB040080F85D102C
:1027E00045E115EB441010F5A0608068C00637D5B0
:1027F0002821002001FB04F232449065032001FBF4
:1028000004F2324482F85D0001FB04F0304490F899
:102810003D0000280CD101FB04F0304490F83C004E
:10282000002805D1012001FB04F1314481F83D006D
:1028300015EB441010F5A06015EB441111F5A061E3
:10284000C96851F00201C1602100C9B2306800F0CE
:10285000C2FB15EB441515F5A0651020A86006E134
:1028600015EB441010F5A060806800061ED515EB2E
:10287000441010F5A06015EB441111F5A061C96872
:1028800051F00201C1602100C9B2306800F0A3FB21
:102890000620282101FB04F1314481F85D0015EB8D
:1028A000441515F5A0658020A860E0E015EB441004
:1028B00010F5A0608068400525D515EB441010F593
:1028C000A06015EB441111F5A061C96851F0020137
:1028D000C1602100C9B2306800F07DFB15EB4410E7
:1028E00010F5A0601021816015EB441515F5A06569
:1028F0004FF48060A86008212820444306EB0400C0
:1029000080F85D10B3E015EB441010F5A06080680E
:10291000800740F1AC8015EB441010F5A06015EB7A
:10292000441111F5A061C96831F00201C16028208D
:1029300000FB04F1314491F85D10012920D10121FF
:1029400000FB04F2324482F85C1000FB04F13144D5
:1029500091F83F10022906D000FB04F1314491F8B0
:102960003F10032973D100FB04F1314491F8511059
:1029700091F0010100FB04F2324482F8511066E04C
:1029800000FB04F1314491F85D10032906D10221C6
:1029900000FB04F2324482F85C1058E000FB04F1C2
:1029A000314491F85D10042906D1022100FB04F2A4
:1029B000324482F85C104AE000FB04F1314491F8A3
:1029C0005D10052906D1052100FB04F2324482F88E
:1029D0005C103CE000FB04F1314491F85D100629E5
:1029E00006D000FB04F1314491F85D1008292ED186
:1029F00000FB04F13144896D491C00FB04F23244B0
:102A0000916500FB04F13144896D04290BD3002149
:102A100000FB04F232449165042100FB04F23244CD
:102A200082F85C1005E0022100FB04F2324482F8D7
:102A30005C1015EB441111F5A061096831F080417B
:102A400051F0004115EB441212F5A062116015EB34
:102A5000441515F5A0650221A96000FB04F030447F
:102A600090F85C202100C9B2300000F071FBF1BD8C
:102A70002DE9F04105002E682868016A11F00F0762
:102A8000C1F34340C1F30A14022802D0052849D0FB
:102A900049E0002C45D05FF0280808FB07F02844E7
:102AA000406C00283DD0220092B208FB07F0284479
:102AB000416C286800F082F908FB07F02844406C5C
:102AC000204408FB07F12944486408FB07F0284428
:102AD000C06C241808FB07F02844C46416EB4710A8
:102AE00010F5A0600069114908421AD016EB471092
:102AF00010F5A060006830F0804050F0004016EB08
:102B0000471616F5A066306008FB07F0284490F8D9
:102B1000500090F0010008FB07F705EB070181F872
:102B2000500000E0FFE7BDE8F08100000000F81F62
:102B30003EB50400256815F588600068019015F51C
:102B4000886000680090009830F02E000090019896
:102B5000800709D50198C00702D5200000F0F9FAD6
:102B6000009850F0020000900198000728D50098C6
:102B700050F008000090019840071ED5A069022877
:102B80000FD1019810F4C020B0F5802F04D102219C
:102B9000206800F0CDF90CE00121206800F0C8F9B0
:102BA00007E0E068012804D14EF6602015F5806149
:102BB0004860200000F0CEFA02E0200000F0CBFADE
:102BC0000198800603D5009850F0200000900098EE
:102BD00015F58865286037BD80B531485FF0A041A4
:102BE0000160082181600121C16000210161022191
:102BF00081610021C161FFF77BF9002801D000F05D
:102C0000A9FB01BD10B586B004001422002101A863
:102C100000F0A2FB2068B0F1A04F3FD1002000904F
:102C20002048016851F001010160006810F00100C6
:102C3000009000984FF40070019000200290002056
:102C40000390194C01A9200000F090FB4FF4E050D4
:102C500001900220029000200390002004900A209E
:102C6000059001A9200000F081FB1048016851F097
:102C700080010160002000900D48016851F48041FE
:102C80000160006810F4804000900098002200214C
:102C9000432000F0E4FC432000F0F2FC06B010BD3D
:102CA0002800002030380240000002403438024042
:102CB000443802400EB418B504000898012817D112
:102CC000A06B30F48030A063E168DFF8EC000140D5
:102CD000E160E06830F44010E0600F98012803D113
:102CE000E06850F48010E060200000F082F812E00C
:102CF000E06850F04000E060200000F07AF80C99A5
:102D0000002904D1A16B51F48031A16303E0A16BD0
:102D100031F48031A1630699012907D1A16851F0EE
:102D20000601A160A16851F02001A160C0B212BCEF
:102D30005DF810FB816849084900816000207047F8
:102D400080B5C26832F0C042C2600A00D2B2012A25
:102D500008D1C16851F00051C160322000F0AAFCD6
:102D6000002002BDC9B2002904D1C16851F08041E0
:102D7000C160F2E70120F4E70022890151F020014F
:102D80000161521CDFF8A0108A4204D20169890651
:102D9000F7D4002070470320FCE7002110220261D5
:102DA000491CDFF88420914204D20269D206F7D48C
:102DB000002070470320FCE7BFFFBDFF30B492B294
:102DC000D21C9208002306E010F5805424680D0000
:102DD0002C60091D5B1C9342F6D3080030BC704781
:102DE00001004869896908407047406910F0010096
:102DF00070470021491C0C4A91420FD20369002BF5
:102E0000F8D50021036953F001030361491C914285
:102E100006D20369DB07F9D4002070470320FCE7E2
:102E20000320FAE700000000410D03000EB430B5A6
:102E300004002500002015F560610860A06B50F4C7
:102E40000010A063A06B30F40020A063A06B30F4EE
:102E50008020A063E06BC00514D50598012808D137
:102E600015F58060006850F0040015F58061086079
:102E700010E015F58060006830F0040015F5806101
:102E8000086007E015F58060006830F0040015F573
:102E90008061086010212000FFF76EFF2000FFF71F
:102EA0007CFF00200DE015EB401111F5A0615FF0F3
:102EB000FF328A6015EB401111F5A0610022CA6053
:102EC000401C04998842EED30121200000F057F8FD
:102ED000C82000F0EFFB0020A0615FF0FF306061D0
:102EE000E06BC0050AD54FF400706062DFF848025D
:102EF000A062DFF84802C4F8000108E080206062A8
:102F0000DFF83C02A062DFF83C02C4F8000106983A
:102F1000002803D1A06950F01000A061A169DFF87A
:102F200028020143A161002030BC5DF810FB0000C5
:102F300010F5806212689208920010F580631A60A2
:102F400010F5806212680B00DBB213F003031A4322
:102F500010F580631A600A00D2B2012A05D14BF63F
:102F6000803110F58060416007E0C9B2022904D1C8
:102F700041F2707110F5806041600020704781B0AF
:102F80000022009210F5886212680092009A32F0D6
:102F90002E020092009AD20409D40A00D2B2012A69
:102FA00005D1009A52F4805210F588631A60009A95
:102FB000D20408D5C9B2002905D1009931F4805155
:102FC00010F588600160002001B0704710F5806046
:102FD000406980B2704730B40300C9B2002413EBDB
:102FE000411212F5A0621268C2F38142002A01D098
:102FF000022A4ED113EB411212F5A062126852F070
:10300000804213EB411515F5A0652A60C06A10F4E3
:103010007F0F31D113EB411010F5A060006820F054
:10302000004013EB411212F5A062106013EB411047
:1030300010F5A060006850F0004013EB411212F54B
:10304000A062106013EB411010F5A060006830F42E
:10305000004013EB411212F5A0621060641C40F2B4
:10306000E930844207D213EB411010F5A0600068EC
:103070000028F3D45DE05CE013EB411010F5A06094
:10308000006850F0004013EB411313F5A063186083
:103090004FE013EB411010F5A060006850F0804045
:1030A00013EB411212F5A062106013F58060006905
:1030B00010F47F0F31D113EB411010F5A0600068C0
:1030C00020F0004013EB411212F5A062106013EBE8
:1030D000411010F5A060006850F0004013EB411261
:1030E00012F5A062106013EB411010F5A0600068AB
:1030F00030F4004013EB411212F5A0621060641C22
:1031000040F2E930844207D213EB411010F5A06081
:1031100000680028F3D40CE00BE013EB411010F52D
:10312000A060006850F0004013EB411313F5A0635A
:103130001860002030BC7047000200010003E0006E
:1031400080006000E0004000080020A37047704746
:1031500070477047704770472DE9F84300F0BEFA9A
:1031600000F071F800F0D4FA00F0B2FB00F00EFCB1
:1031700000F084FC00F0E4FC00F026FDFFF72CFDDD
:1031800000F06EFD3C21644800F0EAFE01224FF49D
:103190000051624800F0D2F9614C0821200000F093
:1031A0005DFE0C21200000F059FE18E009EB8800BC
:1031B00090ED000ADFED570A20EE200ABDEEC00AAE
:1031C00010EE103A22784146564801F07BF918F18A
:1031D0000108B8F1640FE9DB002038702E6001F0BF
:1031E00085F90600504D2868301A0A28F7D3DFF811
:1031F0003C814F480068A8F80000404601F07CF987
:103200004C4F4D4C20783978884209D04B48217872
:1032100000EE101AB8EE400A01F0D4F920783870A8
:10322000474F38780028D9D0DFF8189164200090F3
:103230002378454A4946404601F026FA0128CDD177
:103240005FF00008C5E780B596B0302200210AA8DB
:1032500000F082F81422002105A800F07DF8102269
:10326000002101A800F078F800200090374801689C
:1032700051F080510160006810F08050009000987B
:10328000002000903248016851F4804101600068DC
:1032900010F480400090009801200A905FF4803084
:1032A0000B90022010905FF4800011900820129083
:1032B0004FF4A870139002201490072015900AA8CC
:1032C00001F0F8F9002801D000F044F80F20059033
:1032D00002200690002007904FF4A05008904FF471
:1032E00080500990052105A801F0BEFB002801D0FF
:1032F00000F030F801200190C020029002200390DD
:1033000001A801F0ABFC002801D000F023F817B0B1
:1033100000BD00000000C842700500200008024007
:10332000B0050020B45A00083C06002030060020FA
:10333000240001404906002048060020000000202B
:103340004A060020EC0200204B06002040380240D4
:103350000070004072B6FEE710B5044610460A46FB
:103360000146204601F05AFD204610BDF8B4002267
:1033700000220022002337E0082704E0DFF8D021F4
:103380009042F9D10727FFB213F00302D2B29200A4
:1033900097403E431A00920845F82260DFF8B45186
:1033A0002A68A2434E68F60300D522432A60DFF85C
:1033B000A8512A68A2434E68B60300D522432A606A
:1033C000DFF898512A68A2434E68F60200D52243DE
:1033D0002A60DFF88C512A68A2434E68B60201D5F4
:1033E000144322002A605B1C102B80F0A58001256D
:1033F00015FA03F20C6814409442F4D14A68012A89
:1034000008D04A68022A05D04A68112A02D04A68C0
:10341000122A16D1866803271A00D2B252009740AA
:10342000BE43CF681A00D2B2520097403E43866036
:1034300042689D40AA434D68C5F300159D402A434C
:103440004260C66803251A00D2B2520015FA02F291
:1034500096438F681A00D2B2520097403E43C6602E
:103460004A68022A02D04A68122A17D11A00D208E2
:1034700000EB8202166A0F2713F00702D2B2920005
:103480009740BE430F6913F00702D2B292009740F3
:103490003E431A00D20800EB8202166206681A0048
:1034A000D2B252009540AE430D7915F003051A00D3
:1034B000D2B2520095402E4306604A68D20092D59F
:1034C00000220092274A156855F48045156012685D
:1034D00012F480420092009A234D1A00920855F887
:1034E00022600F2713F00302D2B292009740BE432E
:1034F0001E4A904201D1002745E71D4A904201D162
:10350000012740E71B4A904201D102273BE71A4AB4
:10351000904201D1032736E7184A904201D104278F
:1035200031E7174A904201D105272CE7154A90420E
:103530007FF424AF062726E7F1BC7047D2B2002AF9
:1035400002D089B2816102E089B2090481617047C9
:10355000001C0240003C0140043C0140083C01408A
:103560000C3C014044380240083801400000024051
:103570000004024000080240000C0240001002401B
:10358000001402400018024010F00700414B1A6876
:103590004FF6FF010A40404951EA00210A431A60F0
:1035A00070473C480068C0F302207047010049B2F0
:1035B000002908D4012210F01F018A40374940B287
:1035C000400941F820207047020052B2002A04D47A
:1035D0000901334A40B2115407E00901314A40B2AF
:1035E00010F00F00104400F8041C704710B410F0E5
:1035F0000700D0F10703052B01D3042301E0D0F12C
:103600000703041D072C01D2002000E0C01E012486
:1036100014FA03F35B1E1940814014FA00F0401EB7
:103620001040084310BC704780B5411EB1F1807F47
:1036300001D301200EE0401E1B4908600F215FF0FE
:10364000FF30FFF7C1FF0020184908600720184924
:103650000860002002BD80B5FFF796FF01BD70B580
:1036600004000D0016000020FFF79BFF3200290028
:10367000FFF7BCFF0100200040B2FFF7A5FF70BDBF
:1036800080B540B2FFF792FF01BD80B5FFF7CCFFD8
:1036900002BD00000CED00E00000FA0500E100E0D2
:1036A00000E400E018ED00E014E000E018E000E0C5
:1036B00010E000E038B5040000F018FF050014F138
:1036C000010F02D004480078241800F00FFF401BBF
:1036D000A042FAD331BD00BF2400002080B50B48C2
:1036E000016851F400710160016851F4806101606A
:1036F000016851F4807101600320FFF7ACFF0020E6
:1037000001F0C0FB01F0E4FB002002BD003C0240E0
:103710002DE9F04186B0142200216846FFF71CFE17
:10372000002005906348016851F0100101600168B4
:1037300011F010010591059900210591016851F0E2
:1037400004010160016811F004010591059900214F
:103750000591016851F080010160016811F080015C
:103760000591059900210591016851F00101016061
:10377000016811F001010591059900210591016889
:1037800051F002010160016811F0020105910599F3
:1037900000210591016851F008010160006810F0F6
:1037A000080005900598444C002208212000FFF7EE
:1037B000C5FE424F00224FF400513800FFF7BEFE15
:1037C000012201213800FFF7B9FE4FF210053C4EEF
:1037D000002229003000FFF7B1FE082000900120F0
:1037E0000190002002900020039069462000FFF71E
:1037F000BDFD42F2010000900120019000200290E6
:103800000020039069463800FFF7B0FD08200090C3
:1038100002200190002002900020039005200490D7
:1038200069463800FFF7A2FD01200090254F01975F
:103830000020029069462448FFF798FD042000907C
:103840000020019000200290DFF880806946404609
:10385000FFF78CFD4FF48060009002200190002063
:103860000290002003900520049069464046FFF72F
:103870007DFD009501200190002002900020039022
:1038800069463000FFF772FD202000900020019073
:103890000020029069463000FFF768FD022000908A
:1038A00001970020029069462000FFF75FFD06B0F7
:1038B000BDE8F081303802400010024000080240AC
:1038C000000C024000001210000002400004024000
:1038D00080B528482849016028494160002181605D
:1038E0000021C1604FF4804101610021416100214C
:1038F00081610021C1610021016201F00BFB002800
:1039000001D0FFF727FD01BD10B586B004001422D9
:10391000002101A8FFF720FD20681749884226D121
:10392000002000901648016851F002010160006813
:1039300010F00200009000984FF4107001901220D7
:10394000029001200390002004900420059001A91A
:103950000C48FFF70BFD002000900B48016851F464
:1039600000110160006810F400100090009806B08B
:1039700010BD0000D404002000540040A0860100C7
:1039800030380240000402404038024080B53448DC
:10399000344901604FF400714160002282600022CE
:1039A000C260016130494161002181610021C16132
:1039B0000021016201F0A2FB002801D0FFF7CAFC40
:1039C00001BD10B586B004001422002101A8FFF744
:1039D000C3FC2068234988423FD10020009023483F
:1039E000016851F400410160006810F4004000904B
:1039F0000098002000901E48016851F0010101600C
:103A0000016811F001010091009900210091016805
:103A100051F004010160006810F00400009000986B
:103A200010200190022002900020039000200490BA
:103A30000620059001A90F48FFF798FC4FF4A45009
:103A400001900220029000200390002004900620A4
:103A5000059001A90848FFF789FC06B010BD0000D9
:103A600028050020003C004000770100403802405B
:103A700030380240000002400008024080B52B4868
:103A80002B4901604FF48271416000218160002167
:103A9000C16000210161002141614FF40071816129
:103AA0000021C16100210162002141620021816287
:103AB0000A21C16201F086FC002801D0FFF74AFC10
:103AC00001BD10B586B004001422002101A8FFF743
:103AD00043FC20681649884225D1002000901548F3
:103AE000016851F480510160006810F4805000902A
:103AF0000098002000901048016851F00101016019
:103B0000006810F0010000900098E0200190022071
:103B1000029000200390002004900520059001A948
:103B20000648FFF723FC06B010BD00007C0400200F
:103B3000003001404438024030380240000002406A
:103B400018B58BB02422002102A8FFF705FC08223B
:103B500000216846FFF700FC994C9A48206000203D
:103B600060600020A0604FF6FF70E06000202061E0
:103B7000002060618020A06103200290002003905B
:103B8000012004900020059000200690002007905E
:103B9000012008900020099000200A9002A920002E
:103BA00000F08AF9002801D0FFF7D4FB0020009034
:103BB000002001906946200001F04CFC002801D053
:103BC000FFF7C8FB0CB010BD18B589B00822002162
:103BD0006846FFF7C1FB1C22002102A8FFF7BCFBCF
:103BE000794C7A482060002060600020A06040F698
:103BF0001F50E060002020618020A061200000F0C4
:103C000011F9002801D0FFF7A5FB0020009000204B
:103C100001906946200001F01DFC002801D0FFF74B
:103C200099FB602002900020039000200490002067
:103C30000690082202A9200000F072FA002801D0A4
:103C4000FFF788FB0C2202A9200000F069FA002887
:103C500001D0FFF77FFB200000F08AF80AB010BD0A
:103C60001CB5082200216846FFF776FB584C5948DE
:103C70002060132060600020A0604AF20F40E060E6
:103C80008020A061200000F0B1F8002801D0FFF7EB
:103C900061FB00200090002001906946200001F0A7
:103CA000D9FB002801D0FFF755FB13BD10B586B036
:103CB00004001422002101A8FFF74EFB20684149AF
:103CC000884226D1002000904348016851F001014C
:103CD0000160006810F00100009000980020009042
:103CE0003E48016851F010010160006810F01000BA
:103CF000009000984FF42060019002200290002074
:103D00000390002004900120059001A93448FFF79A
:103D10002DFB06B010BD81B000682C4988420BD144
:103D2000002000902F48016851F0020101600068F6
:103D300010F002000090009801B0704780B5006854
:103D40002449884213D1002000902648016851F090
:103D500010010160006810F010000090009800222F
:103D600000213620FFF77BFC3620FFF789FC01BDE0
:103D700010B586B004001422002101A8FFF7ECFA68
:103D800020681249884219D1002000901348016828
:103D900051F002010160006810F0020000900098EC
:103DA0000320019002200290002003900020049044
:103DB0000220059001A90C48FFF7D8FA06B010BD03
:103DC0007005002000000140B00500200004004004
:103DD000F005002000100040443802403038024016
:103DE00000100240403802400004024010B50400B8
:103DF000002C01D1012014E094F83D00002805D1E9
:103E0000002084F83C002000FFF798FF022084F88F
:103E10003D00211D206800F009FA012084F83D00D2
:103E2000002010BD10B50400002C01D1012014E0C9
:103E300094F83D00002805D1002084F83C002000C3
:103E4000FFF769FF022084F83D00211D206800F083
:103E5000EDF9012084F83D00002010BD10B50400EC
:103E60000122206800F01AFB2068DFF84410884225
:103E700004D02068DFF83C10884201D1012000E026
:103E80000020C0B2002805D02068406C50F40040EB
:103E9000216848642068806810F00700062805D073
:103EA0002068006850F0010021680860002010BD03
:103EB000000001400004014070B504000D00002C1A
:103EC00001D101204BE094F83D00002805D10020ED
:103ED00084F83C002000FFF7E9FE022084F83D0052
:103EE00020688168DFF83403014020688160211D6B
:103EF000206800F09BF9206881682068826920684A
:103F0000036A28680143DFF818030240A868AE6915
:103F100050EA06200243DFF80C030240DFF80803F2
:103F20000240E868EE6950EA0620024328692E6ADA
:103F3000360356EA0016324333F0220333F0880387
:103F400068686D6950EA0510034320688160206845
:103F5000826120680362012084F83D00002070BD6A
:103F600010B50400002902D0042906D00BE001227C
:103F70000021206800F092FA0FE00122042120685D
:103F800000F08CFA09E001220021206800F086FA96
:103F900001220421206800F081FA2068006850F0B6
:103FA000010021680860002010BD10B504002068E1
:103FB000006980071AD52068C068800716D57FF091
:103FC000020021680861012020772068806910F0D4
:103FD000030F03D0200001F093FA05E0200001F068
:103FE00090FA200001F08EFA002020772068006906
:103FF00040071AD52068C068400716D57FF0040036
:1040000021680861022020772068806910F4407FD1
:1040100003D0200001F074FA05E0200001F071FAED
:10402000200001F06FFA0020207720680069000767
:104030001AD52068C068000716D57FF008002168EF
:104040000861042020772068C06910F0030F03D0B6
:10405000200001F055FA05E0200001F052FA20009E
:1040600001F050FA0020207720680069C0061AD5B8
:104070002068C068C00616D57FF01000216808616E
:10408000082020772068C06910F4407F03D020000A
:1040900001F036FA05E0200001F033FA200001F0CB
:1040A00031FA0020207720680069C0070AD520680F
:1040B000C068C00706D57FF00100216808612000B4
:1040C00001F021FA2068006900060AD52068C0685E
:1040D000000606D57FF0800021680861200001F00D
:1040E00013FA2068006940060AD52068C0684006B7
:1040F00006D57FF0400021680861200001F005FA34
:104100002068006980060AD52068C068800606D548
:104110007FF0200021680861200001F0F7F910BD50
:1041200038B504000D0094F83C00012801D10220AC
:1041300073E0012084F83C00022084F83D00002A4E
:1041400006D0042A1BD0082A31D00C2A46D05DE0C4
:104150002900206800F0C7F82068806950F0080046
:10416000216888612068806930F0040021688861D6
:1041700020688169286901432068816146E029003F
:10418000206800F0E2F82068806950F4006021683F
:1041900088612068806930F48060216888612068C7
:1041A0008069296950EA0120216888612EE0290090
:1041B000206800F001F92068C06950F0080021680B
:1041C000C8612068C06930F004002168C8612068B7
:1041D000C169286901432068C16117E0290020688E
:1041E00000F020F92068C06950F400602168C861BF
:1041F0002068C06930F480602168C8612068C069A7
:10420000296950EA01202168C861FFE7012084F88C
:104210003D00002084F83C00002032BDF8BFFFFFC5
:10422000FCFCFFFFF3F3FFFF0F0FFFFF10B4046868
:10423000DFF83C32984212D0B0F1804F0FD0DFF857
:10424000342290420BD0DFF83022904207D0DFF8C2
:104250002C22904203D0DFF82822904203D134F080
:1042600070044A681443984225D0B0F1804F22D0A0
:10427000DFF8002290421ED0DFF8FC2190421AD0D5
:10428000DFF8F821904216D0DFF8F421904212D0E6
:10429000DFF8F02190420ED07B4A90420BD07B4A4F
:1042A000904208D07A4A904205D07A4A904202D091
:1042B000794A904203D134F44074CA68144334F00C
:1042C00080044A69144304608A68C2620A68826290
:1042D000984202D06A4A904201D1096901630121E2
:1042E000416110BC704770B4026A52085200026209
:1042F000046A4568836933F070039B089B000A6871
:10430000134334F002048A681443594EB04202D079
:104310005B4A904205D134F00804CA68144334F073
:104320000404B04202D0564A904207D135F4807559
:1043300035F400754A6915438A6915434560836100
:1043400049684163046270BC704770B4026A32F01D
:1043500010020262036A4468826932F4E04232F475
:1043600040720D6852EA052233F020038D6853EA4B
:1043700005133F4DA84202D0414EB04206D133F062
:104380008003CE6853EA061333F04003A84202D0FC
:104390003B4DA84209D134F4806434F400644D6983
:1043A00054EA85048D6954EA850444608261496851
:1043B0008163036270BC704770B4026A32F4807229
:1043C0000262046A4568C36933F070039B089B006E
:1043D0000A68134334F400748A6854EA0224244AB5
:1043E000904202D0264EB04206D134F40064CE682A
:1043F00054EA062434F48064904202D0204A904269
:1044000009D135F4805535F400554A6955EA02154D
:104410008A6955EA02154560C3614968C16304624F
:1044200070BC704730B4026A32F480520262036A90
:104430004468C26932F4E04232F440720D6852EAD4
:10444000052233F400538D6853EA0533084DA84222
:1044500002D00B4DA84204D134F480444D6954EA93
:1044600085144460C26149680164036230BC7047CE
:10447000000001400004004000080040000C004023
:104480000004014000400140004401400048014058
:1044900000180040001C00400020004010B401241F
:1044A00011F01F0314FA03F3046A34EA03030362EE
:1044B000036A11F01F0112FA01F11943016210BCE5
:1044C000704700000EB4C0B5024603A80021019059
:1044D000009101AB0121044878440C30FBF754FEF5
:1044E00006BC5DF810FB00BF951500000148006890
:1044F000704700BF4006002010B504002088618886
:10450000884206D10020E080002020710020A060B9
:1045100057E0574861884118012902DB618840183B
:1045200002E061884018404247F23151884219DB6D
:104530006088218888420BD2B4F90200411EB4F988
:104540000000091A5FF0FF3011FB00F0E0800FE07F
:104550005FF0FF31B4F90200091AB4F90000411804
:10456000E18005E0B4F90010B4F90200091AE18015
:10457000B4F90600012801DB012001E05FF0FF3003
:10458000207120886080B4F9060000EE100AB8EEB1
:10459000C00A10EE100A00F0BBFF364A364BFDF79A
:1045A00055F80022354BFDF797F90022344BFDF703
:1045B0004DF85FF0C042334BFDF78EF900F0CCFFB1
:1045C000A06010BDDFED260AB4EE600AF1EE10FA2D
:1045D00001DB01210AE0DFED230AB4EE600AF1EE0F
:1045E00010FA02D55FF0FF3100E000214172B5EE14
:1045F000400AF1EE10FA01DCB1EE400ADFED1A0AD2
:1046000020EE200ADFED190A80EE200A80ED040A70
:1046100090F9091000291BD0012903D0B1F1FF3F07
:104620000BD01BE090ED040ABCEEC00A016881EDDE
:10463000000A00214068016010E00021026811605A
:1046400090ED040ABCEEC00A406880ED000A05E067
:10465000002102681160002140680160704700007D
:1046600034336341333363C100F051450000C84225
:10467000D08AFFFF7B14AE47E17A843F00004E40B2
:10468000000048405555953F10B4019B1478806850
:1046900041F82400107880B29BB2984203D30020E6
:1046A0001070012003E01078401C1070002010BC36
:1046B000704700002DE9FC410400002C01D10120CD
:1046C000BBE12078C0075ED5DFF87403016811F004
:1046D0000C01042909D0006810F00C0008280ED144
:1046E000DFF860030068400209D5DFF85C0300686A
:1046F000800348D56068002845D101209DE16068AD
:10470000B0F5803F06D1DFF84003016851F48031F5
:10471000016018E06068B0F5A02F0AD1DFF8280327
:10472000016851F480210160016851F48031016019
:1047300009E0DFF81403016831F480310160016899
:1047400031F480210160606800280ED0FFF7CEFEB2
:104750000500DFF8F4020068800314D4FFF7C6FEFA
:10476000401B6528F5D3032067E1FFF7BFFE050076
:10477000B5480068800306D5FFF7B8FE401B6528E2
:10478000F6D3032059E1207880071DD5AC48016895
:1047900011F00C0F08D0006810F00C0008282AD186
:1047A000A8480068400226D4A7480168890704D5B4
:1047B000E168012901D001203FE1016831F0F801F1
:1047C000226951EAC20101602078000751D5606971
:1047D00000283DD001209D490860FFF787FE0500B5
:1047E0009B480068800744D4FFF780FE401B0328E5
:1047F000F6D3032021E1E068002818D00120954974
:104800000860FFF773FE05008F480168890706D42A
:10481000FFF76CFE401B0328F6D303200DE101686F
:1048200031F0F801226951EAC2010160CCE70020B1
:1048300088490860FFF75AFE050083480068800732
:10484000C2D5FFF753FE401B0328F6D30320F4E044
:1048500000207E490860FFF749FE05007C4800689B
:10486000800706D5FFF742FE401B0328F6D303203E
:10487000E3E0207840076FD50026774D2868C00018
:104880000BD400200090286850F0805028602868E1
:1048900010F08050009000980126704F3868C005D5
:1048A00011D4386850F480703860FFF71FFE8046DE
:1048B0003868C00507D4FFF719FEB0EB08000328DD
:1048C000F6D30320B9E0A068012805D16448016847
:1048D00051F00101016015E0A068052809D1604888
:1048E000016851F004010160016851F001010160AB
:1048F00008E05B480168490849000160016831F03F
:1049000004010160A06800280FD0FFF7EFFD070049
:1049100053480068800718D4FFF7E8FDC01B41F238
:1049200089318842F4D3032087E0FFF7DFFD0700D9
:104930004B480068800708D5FFF7D8FDC01B41F23F
:1049400089318842F4D3032077E0F6B2012E03D1F7
:10495000286830F080502860A06900286CD0384862
:10496000006810F00C00082843D0A06902282FD15D
:104970003C4E00203060FFF7B9FD0700324D28683B
:10498000800106D5FFF7B2FDC01B0328F6D3032034
:1049900053E0E169206A0143606A51EA8011A06A2C
:1049A0004008401E51EA0041E06A51EA0061254892
:1049B000016001203060FFF799FD04002868800144
:1049C0003AD4FFF793FD001B0328F7D3032034E00C
:1049D000002024490860FFF789FD04001A48006898
:1049E000800129D5FFF782FD001B0328F6D30320A1
:1049F00023E0A069012801D101201EE011480068D0
:104A000010F48001E269914214D110F03F01226A52
:104A100091420FD147F6C0710140626A914209D1BB
:104A200010F44031A26A914204D110F07060E16A42
:104A3000884201D0012000E00020BDE8F68100BFDF
:104A4000083802400438024000380240800E4742D5
:104A50007438024000004742403802400070004075
:104A600070380240600047422DE9F04104000E001A
:104A7000002C01D1012092E0514D286810F00F0068
:104A8000B04207D22E70286810F00F00B04201D05B
:104A9000012084E02078800716D52078400704D5CF
:104AA0004848016851F4E05101602078000704D5BE
:104AB0004448016851F46041016042490A6832F09B
:104AC000F002A06802430A602078C00735D560680C
:104AD000012805D13C480068800313D401205EE022
:104AE0006068022802D06068032805D13648006853
:104AF000800107D4012052E033480068800701D4C8
:104B000001204CE02F4F3968890889006068014313
:104B10003960FFF7EBFC8046386810F00C006168E4
:104B2000B0EB810F09D0FFF7E1FCB0EB080041F2D8
:104B300089318842F0D3032031E0286810F00F005B
:104B4000864207D22E70286810F00F00B04201D0C4
:104B5000012024E02078400706D51A490A6832F47B
:104B6000E052E06802430A602078000707D5154844
:104B7000016831F46041226951EAC201016000F02C
:104B80002DF812490F4A1268C2F30312895CC8401B
:104B90000F4908600F48006800F074F90020BDE874
:104BA000F0810B480068704780B5FFF7FAFF0A49AB
:104BB000044A1268C2F38222895CC84002BD000028
:104BC000003C02400838024000380240945A000875
:104BD0001800002014000020CC5A000810B5002056
:104BE0000020002000201948006810F00C00002868
:104BF00004D0042804D0082804D025E0144824E078
:104C0000144822E0144C226812F03F02206840024F
:104C100009D52068C0F388100E49A1FB00010023CC
:104C2000FCF72CFF08E02068C0F388100849A1FBBE
:104C300000010023FCF722FF2168C1F30141491C58
:104C40004900B0FBF1F000E0014810BD0838024017
:104C50000024F40000127A0004380240F8B5040081
:104C600000200020207810F0050F29D0DFF87851BF
:104C700000202860FFF73AFC0700DFF87061306819
:104C8000000106D5FFF732FCC01B0328F5D3032033
:104C900079E06068A168090751EA8011DFF85001E6
:104CA000016001202860FFF721FC05003068000149
:104CB00006D4FFF71BFC401B0328F7D3032062E058
:104CC000207880075ED5002000904A48016851F0A6
:104CD00080510160006810F0805000900098464EAE
:104CE000306850F480703060FFF700FC05003068D9
:104CF000C00506D4FFF7FAFB401B0328F7D30320B7
:104D000041E03E4D286810F4407000281FD0E16853
:104D100011F4407188421AD0286830F44070384944
:104D200001220A6000220A6028602868C0070ED5A8
:104D3000FFF7DCFB06002868800708D4FFF7D6FBE6
:104D4000801B41F289318842F5D303201BE0E068E3
:104D500010F44070B0F5407F09D12A490A6832F456
:104D6000F812E368284803401A430A6004E0254823
:104D7000016831F4F81101602868E1680905090D3E
:104D8000084328600020F2BD01000020002200221C
:104D90000022012926D11B48006810F400000028D9
:104DA00003D001281DD119481CE0194801684902A7
:104DB00006D51849006810F03F00B1FBF0F105E09E
:104DC0001549006810F03F00B1FBF0F1084A106887
:104DD000C0F3881041431068C0F30270B1FBF0F0DB
:104DE00000E00020704700006800474200380240A1
:104DF0008438024040380240007000407038024061
:104E0000400E474208380240FFFCFF0F0080BB0005
:104E10000438024000127A000024F40062F30F22EA
:104E200062F31F42401810F0030308D0C91A1FD3C1
:104E3000DB0748BF00F8012D28BF20F8022D130022
:104E400030B414461546103928BF20E93C00FAD882
:104E5000490728BF20E90C0048BF40F8042D89000D
:104E600028BF20F8022D48BF00F8012D30BC704744
:104E7000C91818BF00F8012DCB0728BF00F8012D75
:104E80007047000010B504004FF47A700D4909789E
:104E9000B0FBF1F00C490968B1FBF0F0FEF7F5FB4F
:104EA000002801D001200CE0102C09D200222100A2
:104EB0005FF0FF30FEF7D3FB04480460002000E001
:104EC000012010BD24000020180000201400002044
:104ED00080B5002000900D48016851F480410160C8
:104EE000006810F48040009000980020009008486E
:104EF000016851F080510160006810F0805000900E
:104F000000980720FEF7A7FB01BD00BF4438024010
:104F10004038024038B50400002C01D10120E0E007
:104F200094F83D00002805D1002084F83C002000C2
:104F3000FEF7EAFC242084F83D0020680068400861
:104F40004000216808602068006850F40040216833
:104F500008602068006830F4004021680860FFF7AE
:104F600023FE0100DFF87C216068904208D2DFF860
:104F70007801814201D2012000E00020C0B207E0A8
:104F8000DFF86801814201D2012000E00020C0B2B8
:104F9000012801D10120A4E0DFF85401B1FBF0F3B6
:104FA000206840688009800118432568686020688F
:104FB000056A6068904201D25B1C07E04FF496706E
:104FC00043434FF47A70B3FBF0F35B1CAD09AD01C2
:104FD0002B43206803622068C3696068904214D242
:104FE000481E62685200B0FBF2F0401C0005000D44
:104FF000042801D204213EE0491E60684000B1FB54
:10500000F0F1491C0905090D35E0A068002809D117
:105010004A1E656803204543B2FBF5F0401C0005BD
:10502000000D0AE04A1E656819204543B2FBF5F001
:10503000401C0005000D50F48040000501D1012105
:1050400019E0A068002809D1491E62680320424384
:10505000B1FBF2F1491C0905090D0AE0491E62681D
:1050600019204243B1FBF2F1491C0905090D51F425
:10507000804151F40041DFF87C0003400B4320687D
:10508000C3612068016831F0C001E0690143206A12
:1050900001432068016020688168DFF85C000140FE
:1050A00020690143E0680143206881602068C1688D
:1050B000090A0902A2696069024311432068C160BC
:1050C0002068006850F0010021680860002020641A
:1050D000202084F83D0000202063002084F83E005A
:1050E000002032BDA186010080841E0000093D0021
:1050F00040420F000030FFFF007CFFFF70B504004E
:10510000002C01D10120BFE094F84100002808D113
:10511000002084F840000FF2ED1060632000FEF7DD
:1051200050FC022084F84100DFF860512068C0691B
:1051300028402168C861022021680862606902284D
:1051400039D0E068002801D1102600E02026A068B0
:10515000212800D276000120FFF716FE0100206909
:10516000B0F5007F16D1E068002809D0B000B1FB8F
:10517000F0F10A2041436069B1FBF0F0401D11E0FD
:10518000F000B1FBF0F10A2041436069B1FBF0F09F
:10519000401D07E0B1FBF6F10A2041436069B1FB15
:1051A000F0F0401D0A21B0FBF1F111F00100091AE5
:1051B0004908000201E0022100208A1EFE2A05D3D0
:1051C000606C50F01000606401205DE001432069D4
:1051D0000143206801622068C16929406068014379
:1051E000A0680143E0680143A069014351F40061F4
:1051F0002068C161206A012840D1DFF89400606313
:10520000DFF890102068884202D1DFF88C0001E0BE
:105210005FF04020C2691540C5612068884202D114
:10522000DFF8740001E05FF0402002220262206893
:10523000884202D1DFF8600001E05FF04020C369DE
:105240006068B0F5007F02D06068002802D14FF49A
:10525000807200E00022A568E668A0690643354335
:105260002A4352F400621A432068884202D1DFF8D0
:10527000280001E05FF0402092B2C261002060642B
:10528000012084F84100002070BD000040F0FFFFC5
:10529000C9550008003800400034004080B5416A1C
:1052A00009880268D160416A891C4162418D491EAA
:1052B0004185418D00290AD10168496831F0A0017A
:1052C00002685160012180F8411000F079F901BDB8
:1052D00080B50168C968C26A1180C16A891CC1624F
:1052E000418E491E4186418E00290AD101684968D4
:1052F00031F0600102685160012180F8411000F036
:1053000060F901BD1CB5040020688068009094F825
:105310004100042829D10098C00706D520684068BC
:10532000400602D52000FFF7D3FF009840061CD5A9
:1053300020684068800618D52068406830F060001A
:1053400021684860002001902068C06801902068B2
:10535000806801900198012084F84100606C50F051
:1053600002006064200000F02DF994F84100032849
:1053700026D10098800706D520684068000602D52F
:105380002000FFF78BFF0098000719D520684068C0
:10539000800615D52068406830F0A000216848607C
:1053A000002000902068806800900098012084F818
:1053B0004100606C50F004006064200000F002F9CD
:1053C00013BD000010B50400002C01D101203FE006
:1053D000606A00280020A06294F85100002805D1DE
:1053E000002084F850002000FEF76BFB022084F8B8
:1053F00051002068006830F0400021680860616852
:10540000A0680143E06801432069014360690143EA
:10541000A06910F400700143E0690143206A014370
:10542000A06A014320680160A169090C11F0040120
:10543000606A0143206841602068C06930F4006000
:105440002168C86100206065012084F851000020B7
:1054500010BD000010B490F83C20012A01D10220B8
:105460003CE0012280F83C20022280F83D200268C6
:1054700054680268936834F070040A681443026840
:1054800054600268174CA2421BD00268B2F1804FF0
:1054900017D00268144CA24213D00268134CA242E7
:1054A0000FD00268124CA2420BD00268114CA242EB
:1054B00007D00268104CA24203D002680F4CA242EF
:1054C00005D133F0800349680B4301688B600121EB
:1054D00080F83D10002180F83C10002010BC70477F
:1054E00000000000000001400004004000080040EF
:1054F000000C004000040140004001400018004042
:10550000704770477047704770477047704700009A
:10551000C0F3C75181B1FF2906D0C110400721F067
:10552000E04101F16051704741020CBF40F4E001DD
:105530006FF000410020704700F0004100020AD0E7
:10554000B0FA80FC00FA0CF001F16051A1EB0C51B3
:1055500001EBD0214005704701F000428B1AA3F106
:105560006051B1F5801F0ADBB1F17F6F1FD242EAB3
:10557000C102C10071F1004142EB507070470B1540
:10558000C3F10903212B10D2890241EA9051800214
:105590000128494141F0004121FA03F0C3F1200301
:1055A000994071F1004150417047100070476FF011
:1055B000000013EB103F5CBF000E42EAC050704782
:1055C000704770477047000038B584B00400206809
:1055D00080680390DFF8C8522068A84202D1DFF843
:1055E000C40201E05FF040208068029020684068BB
:1055F00001902068A84202D1DFF8A80201E05FF024
:105600004020406800906068B0F5007F02D060687C
:10561000002865D10398800705D50198000602D5BA
:10562000200000F0B5F80298C00705D500984006A4
:1056300002D5200000F00CF90298400627D500980A
:10564000800624D52068A84202D1DFF8580201E084
:105650005FF04020416831F060014160206840689F
:1056600030F0A00021684860002000902068C068E9
:1056700000902068806800900098012084F8410024
:10568000606C50F0020060642000FFF79BFF0398FD
:1056900000077AD50198800677D52068406830F0F9
:1056A000A000216848602068A84202D1DFF8F40118
:1056B00001E05FF04020416831F06001416000206E
:1056C00000902068806800900098012084F84100D4
:1056D000606C50F0040060642000FFF773FF54E03A
:1056E0000298800705D50098000602D5200000F03A
:1056F0006BF80398C00705D50198400602D5200035
:1057000000F08AF8039840061ED5019880061BD544
:105710002068406830F06000216848602068A84236
:1057200002D1DFF8800101E05FF04020416831F0F4
:10573000A0014160012084F84100606C50F002003B
:1057400060642000FFF73EFF029800071DD5009817
:1057500080061AD52068A84201D1524801E05FF0C6
:105760004020416831F0A00141602068406830F07D
:10577000600021684860012084F84100606C50F0AE
:10578000040060642000FFF71DFF05B030BD00007D
:1057900080B5416A8A1C426209880268D160418DE5
:1057A000491E4185418D00290DD10168496831F0BC
:1057B000A00102685160418E002904D1012180F8C6
:1057C000411000F071F801BD10B5354A01689142F1
:1057D00001D1344901E05FF04021436A9C1C4462DE
:1057E0001B88CB60418D491E4185418D002912D116
:1057F0000168914201D12B4901E05FF040214A68E4
:1058000032F0A0024A60418E002904D1012180F8C3
:10581000411000F049F810BD80B5C16A8A1CC2620F
:105820000268D2680A80418E491E4186418E002955
:105830000DD10168496831F0600102685160418D05
:10584000002904D1012180F8411000F02DF801BD9C
:1058500080B5C16A8A1CC262114A0368934201D1B1
:10586000104B01E05FF04023DB680B80418E491E46
:105870004186418E002912D10168914201D1094926
:1058800001E05FF040214A6832F060024A60418DD9
:10589000002904D1012180F8411000F005F801BD74
:1058A0000038004000340040704730B5016884681B
:1058B0004218416802EB5103C90703D54C4401E08B
:1058C000491C05D19A420AD012F9011B12F8015B5A
:1058D000002904F8015BF3D4491EF7D5F2E70C3038
:1058E00030BD0000FEE7FEE7FEE7FEE7FEE770479B
:1058F0007047704780B500F00FF801BD80B50448CF
:10590000FEF753FB01BD80B50248FCF72CFB01BD3F
:10591000F00500202800002003480168034A12789F
:1059200089180160704700BF400600202400002055
:1059300010B5074979441831064C7C44163404E00C
:105940000A68081D114488470146A142F8D110BDDC
:105950004C000000680000004EF68851CEF20001B5
:10596000086840F470000860BFF34F8FBFF36F8F7B
:105970004FF00070E1EE100A704718B583B00300D5
:10598000140000930191029469460520ABBE0122E8
:105990001900201AAFF3008004B010BD97B7FFFFC5
:1059A000280600002800002000000000FFFEFFFF86
:1059B00068020000300000000000002080B58DF873
:1059C000000001226946012000F008F8012802D1F8
:1059D0009DF8000002BD4FF0FF3002BD80B50028E9
:1059E00002D400F003F802BD002002BD80B50029FA
:1059F00001D1002002BD012801D0022802D100F00F
:105A000004F802BDFFF7B9FF02BD30B583B00C004A
:105A100015000120FCF726FA0090019402956946D2
:105A20000520ABBE281A03B030BD000000F00DF811
:105A3000002801D0FFF77CFFAFF300800020AFF318
:105A40000080FDF789FB00F002F80120704700F0AC
:105A500001B8000007463846FCF7E4F9FBE7000010
:105A60000448016851F4700101605FF00060024970
:105A70000860704788ED00E008ED00E038B50446A6
:105A80000D462846FFF79AFFA84218BF002420467B
:105A900032BD00000000000000000000010203040D
:105AA000060708090148804701480047615A000875
:105AB000C15A000825642C25642C25642C0A00009A
:105AC000AFF30080FFF748FFFFF7B0FF00000000D2
:105AD00001020304686A6C747A4C0000FFF7FEBF91
