:020000040800F2
:10000000E8080020A5430008794200087B42000868
:100010007D4200087F420008814200080000000085
:100020000000000000000000000000008342000803
:10003000854200080000000087420008894200084D
:10004000C9430008CD430008D1430008D543000848
:10005000D9430008DD430008E1430008E5430008F8
:10006000E9430008ED430008F1430008F5430008A8
:10007000F9430008FD430008014400080544000856
:10008000094400080D440008114400081544000804
:10009000194400081D4400082144000825440008B4
:1000A000294400082D440008314400083544000864
:1000B000394400083D440008414400084544000814
:1000C000494400084D4400085144000855440008C4
:1000D000594400085D440008614400086544000874
:1000E000694400086D440008714400087544000824
:1000F000794400087D4400088144000885440008D4
:10010000894400088D440008914400089544000883
:10011000994400089D44000891420008A144000849
:10012000A5440008A9440008AD440008B1440008F3
:10013000B5440008B9440008BD440008C1440008A3
:10014000C5440008C9440008CD4400089B4200088B
:10015000D1440008D5440008D9440008DD44000813
:10016000E1440008E5440008E9440008ED440008C3
:10017000F1440008F5440008F944000800000000BC
:10018000FD4400080145000838B58AB00400002C81
:1001900001D1012031E0256894F8B902002805D189
:1001A000002084F8B802200000F078FE032084F8D4
:1001B000B902E86BC00501D400202061206800F07E
:1001C00005FF211D83B06846342201F00BF90EBCF7
:1001D000206800F0BBFE0121206800F0FDFE211D1B
:1001E00083B06846342201F0FDF80EBC206800F0B0
:1001F00069FF012084F8B90200200BB030BDF8B5CA
:1002000004002568206800F03CFF012840F0908041
:10021000206800F031FF002800F08A80206800F09C
:100220002BFF800203D55FF400102168486120682D
:1002300000F022FFC00203D55FF4801021684861FE
:10024000206800F019FF400103D55FF0806021684D
:100250004861206800F010FF800702D50220216865
:100260004861206800F008FF80000FD55FF0005063
:100270002168486115F588600068C00706D4200031
:1002800001F0F3F80121206800F09EFF206800F0E3
:10029000F3FEC00102D5200000F096FD206800F0BA
:1002A000EBFE000705D5200001F0E0F808202168EA
:1002B0004861206800F0E0FE800125D5206800F04C
:1002C000D1FF0600002718E03900C9B2200000F075
:1002D000DFFA11E017F00F003100C140C8070BD55D
:1002E00015EB471010F5A06000680004ECD539004C
:1002F000C9B2200000F01DF87F1CA0688742E9D336
:100300005FF0007021684861206800F0B5FEC0060B
:100310000ED52068806930F01000216888612000C7
:1003200000F0F2FC2068806950F0100021688861BC
:10033000F1BDF8B504000E002568F6B215EB4610C5
:1003400010F5A0608068400712D515EB461010F537
:10035000A0600421816015EB461010F5A06015EB3C
:10036000461111F5A061C96851F00201C1608CE02D
:1003700015EB461010F5A0608068C0051FD515EB81
:10038000461010F5A0604FF480718160072028218D
:1003900001FB06F1214481F85D0015EB461010F5D4
:1003A000A06015EB461111F5A061C96851F002017A
:1003B000C1603100C9B2206800F059FF65E015EB5B
:1003C000461010F5A0608068800606D515EB461033
:1003D00010F5A0602021816057E015EB461010F564
:1003E000A0608068000724D515EB461010F5A060CA
:1003F00015EB461111F5A061C96851F00201C16009
:100400000520282101FB06F1214481F85D0015EB50
:10041000461010F5A0601021816015EB461010F514
:10042000A060082181603100C9B2206800F01FFF80
:100430002BE015EB461010F5A0608068400524D530
:1004400015EB461010F5A06015EB461111F5A061F3
:10045000C96851F00201C1603100C9B2206800F0E2
:1004600006FF15EB461010F5A060102181600820F2
:10047000282101FB06F1214481F85D0015EB4610AF
:1004800010F5A0604FF48061816015EB461010F507
:10049000A0608068800518D515EB461010F5A060A7
:1004A00015EB461111F5A061C96851F00201C16058
:1004B0003100C9B2206800F0DAFE15EB461515F5DB
:1004C000A0654FF40070A860E1E115EB461010F54F
:1004D000A0608068C00740F1A0802069002810D08B
:1004E000282000FB06F12144896C15EB461212F519
:1004F000A06212695203520B891A00FB06F02044D5
:10050000C1642827012007FB06F1214481F85D0022
:10051000002007FB06F12144886515EB461010F515
:10052000A0600121816007FB06F0204490F83F00A5
:10053000002806D007FB06F0204490F83F00022870
:1005400017D115EB461010F5A06015EB461111F50B
:10055000A061C96851F00201C1603100C9B22068D0
:1005600000F085FE15EB461515F5A0651020A86076
:1005700046E007FB06F0204490F83F0003281CD11A
:1005800015EB461010F5A060006850F0005015EB18
:10059000461515F5A0652860012007FB06F12144EA
:1005A00081F85C0007FB06F0204490F85C203100E5
:1005B000C9B2200000F05BFF22E007FB06F02044F8
:1005C00090F83F0001281BD1012007FB06F12144D0
:1005D00081F85C0007FB06F0204490F8500090F092
:1005E000010007FB06F1214481F8500007FB06F0EB
:1005F000204490F85C203100C9B2200000F037FFA1
:1006000007FB06F0204490F8500090F001007E4374
:1006100004EB060181F8500039E115EB461010F5A6
:10062000A0608068800740F1AA8015EB461010F5A5
:10063000A06015EB461111F5A061C96831F0020107
:10064000C160282000FB06F1214491F85D100129CA
:1006500006D1012100FB06F2224482F85C107DE005
:1006600000FB06F1214491F85D10052906D1052112
:1006700000FB06F2224482F85C106FE000FB06F1FA
:10068000214491F85D10062906D000FB06F12144B3
:1006900091F85D1008292FD100FB06F12144896DE6
:1006A000491C00FB06F22244916500FB06F121443F
:1006B000896D04290BD3002100FB06F222449165C9
:1006C000042100FB06F2224482F85C1005E00221BE
:1006D00000FB06F2224482F85C1015EB461111F57E
:1006E000A061096831F0804151F0004115EB4612DC
:1006F00012F5A062116031E000FB06F1214491F88F
:100700005D10032914D1022100FB06F2224482F875
:100710005C1015EB461111F5A061096831F08041BC
:1007200051F0004115EB461212F5A062116015E080
:1007300000FB06F1214491F85D1007290ED100FB62
:1007400006F12144896D491C00FB06F222449165A3
:10075000042100FB06F2224482F85C1015EB4615DA
:1007600015F5A0650221A96000FB06F0204490F871
:100770005C203100C9B2200000F079FE87E015EB63
:10078000461010F5A0608068000627D515EB4610CE
:1007900010F5A06015EB461111F5A061C96851F084
:1007A0000201C160282000FB06F12144896D491C2B
:1007B00000FB06F222449165062100FB06F020446E
:1007C00080F85D103100C9B2206800F050FD15EBD3
:1007D000461515F5A0658020A86058E015EB461079
:1007E00010F5A0608068C00651D5282101FB06F0F5
:1007F000204490F83F00032816D1002001FB06F1A9
:100800002144886515EB461010F5A06015EB4611E4
:1008100011F5A061C96851F00201C1603100C9B28F
:10082000206800F024FD2CE001FB06F0204490F845
:100830003F00002806D001FB06F0204490F83F005E
:1008400002281ED1002001FB06F222449065206997
:10085000002816D1032001FB06F1214481F85D0038
:1008600015EB461010F5A06015EB461111F5A061CF
:10087000C96851F00201C1603100C9B2206800F0BE
:10088000F6FC15EB461515F5A0651020A860F1BD26
:10089000F8B506000C003568E4B215EB441010F50D
:1008A000A0608068400712D515EB441010F5A060D9
:1008B0000421816015EB441010F5A06015EB441580
:1008C00015F5A065E96851F00201C1601BE215EB66
:1008D000441010F5A060806880062CD515EB4410FC
:1008E00010F5A06020218160282000FB04F1314434
:1008F00091F83D10012940F00682002100FB04F22E
:10090000324482F83D10022100FB04F0304480F8AC
:100910005C1015EB441010F5A06015EB441515F5AF
:10092000A065E96851F00201C1602100C9B23068D8
:1009300000F09DFCE7E115EB441010F5A060806825
:10094000400629D52820042100FB04F2324482F815
:100950005D10012100FB04F2324482F83D100021B9
:1009600000FB04F03044816515EB441010F5A060E5
:1009700015EB441111F5A061C96851F00201C16085
:100980002100C9B2306800F072FC15EB441515F572
:10099000A0654020A860B6E115EB441010F5A060FA
:1009A0008068800518D515EB441010F5A06015EB94
:1009B000441111F5A061C96851F00201C160210024
:1009C000C9B2306800F053FC15EB441515F5A0656D
:1009D0004FF40070A86096E115EB441010F5A0608C
:1009E0008068C00723D52827002007FB04F1314485
:1009F000886515EB441010F5A06015EB441111F556
:100A0000A061C96851F00201C1602100C9B230681B
:100A100000F02DFC15EB441515F5A0650120A8602C
:100A200001207C4306EB040181F85D006BE115EBCE
:100A3000441010F5A060806800071ED515EB441027
:100A400010F5A0600821816015EB441010F5A0603E
:100A500015EB441515F5A065E96851F00201C16078
:100A60002100C9B2306800F002FC0521282044436F
:100A700006EB040080F85D1045E115EB441010F51D
:100A8000A0608068C00637D52821002001FB04F251
:100A900032449065032001FB04F2324482F85D0089
:100AA00001FB04F0304490F83D0000280CD101FB1C
:100AB00004F0304490F83C00002805D1012001FBEF
:100AC00004F1314481F83D0015EB441010F5A060AD
:100AD00015EB441111F5A061C96851F00201C16024
:100AE0002100C9B2306800F0C2FB15EB441515F5C2
:100AF000A0651020A86006E115EB441010F5A06079
:100B0000806800061ED515EB441010F5A06015EBAB
:100B1000441111F5A061C96851F00201C1602100C2
:100B2000C9B2306800F0A3FB0620282101FB04F1C4
:100B3000314481F85D0015EB441515F5A065802062
:100B4000A860E0E015EB441010F5A0608068400557
:100B500025D515EB441010F5A06015EB441111F5E7
:100B6000A061C96851F00201C1602100C9B23068BA
:100B700000F07DFB15EB441010F5A06010218160A2
:100B800015EB441515F5A0654FF48060A8600821A9
:100B90002820444306EB040080F85D10B3E015EB19
:100BA000441010F5A0608068800740F1AC8015EB20
:100BB000441010F5A06015EB441111F5A061C9684F
:100BC00031F00201C160282000FB04F1314491F8AA
:100BD0005D10012920D1012100FB04F2324482F88A
:100BE0005C1000FB04F1314491F83F10022906D05B
:100BF00000FB04F1314491F83F10032973D100FB4D
:100C000004F1314491F8511091F0010100FB04F21C
:100C1000324482F8511066E000FB04F1314491F84F
:100C20005D10032906D1022100FB04F2324482F850
:100C30005C1058E000FB04F1314491F85D10042988
:100C400006D1022100FB04F2324482F85C104AE033
:100C500000FB04F1314491F85D10052906D105210E
:100C600000FB04F2324482F85C103CE000FB04F12B
:100C7000314491F85D10062906D000FB04F131449F
:100C800091F85D1008292ED100FB04F13144896DE3
:100C9000491C00FB04F23244916500FB04F131442D
:100CA000896D04290BD3002100FB04F232449165C5
:100CB000042100FB04F2324482F85C1005E00221BA
:100CC00000FB04F2324482F85C1015EB441111F57C
:100CD000A061096831F0804151F0004115EB4412E8
:100CE00012F5A062116015EB441515F5A0650221FF
:100CF000A96000FB04F0304490F85C202100C9B2E8
:100D0000300000F0B4FBF1BD2DE9F04105002E6884
:100D10002868016A11F00F07C1F34340C1F30A14B8
:100D2000022802D0052849D049E0002C45D05FF0C8
:100D3000280808FB07F02844406C00283DD022001A
:100D400092B208FB07F02844416C286800F082F951
:100D500008FB07F02844406C204408FB07F12944B5
:100D6000486408FB07F02844C06C241808FB07F00F
:100D70002844C46416EB471010F5A06000691149BF
:100D800008421AD016EB471010F5A060006830F04A
:100D9000804050F0004016EB471616F5A066306014
:100DA00008FB07F0284490F8500090F0010008FB81
:100DB00007F705EB070181F8500000E0FFE7BDE809
:100DC000F08100000000F81F3EB50400256815F50D
:100DD00088600068019015F58860006800900098B0
:100DE00030F02E0000900198800709D50198C007C7
:100DF00002D5200000F03CFB009850F0020000906B
:100E00000198000728D5009850F00800009001983C
:100E100040071ED5A06902280FD1019810F4C02008
:100E2000B0F5802F04D10221206800F0CDF90CE04C
:100E30000121206800F0C8F907E0E068012804D12A
:100E40004EF6602015F580614860200000F011FB2F
:100E500002E0200000F00EFB0198800603D5009808
:100E600050F020000090009815F58865286037BD87
:100E700080B531485FF0A041016008218160012107
:100E8000C16000210161022181610021C161FFF780
:100E90007BF9002801D000F0F7FC01BD10B586B049
:100EA00004001422002101A800F0F0FC2068B0F139
:100EB000A04F3FD1002000902048016851F001016F
:100EC0000160006810F00100009000984FF400707D
:100ED00001900020029000200390194C01A92000ED
:100EE00000F0DEFC4FF4E050019002200290002060
:100EF0000390002004900A20059001A9200000F032
:100F0000CFFC1048016851F0800101600020009082
:100F10000D48016851F480410160006810F4804080
:100F20000090009800220021432000F032FE432070
:100F300000F040FE06B010BD5000002030380240E6
:100F40000000024034380240443802400EB418B564
:100F500004000898012817D1A06B30F48030A063FA
:100F6000E168DFF8EC000140E160E06830F4401037
:100F7000E0600F98012803D1E06850F48010E06031
:100F8000200000F082F812E0E06850F04000E060DD
:100F9000200000F07AF80C99002904D1A16B51F4DB
:100FA0008031A16303E0A16B31F48031A163069924
:100FB000012907D1A16851F00601A160A16851F093
:100FC0002001A160C0B212BC5DF810FB8168490825
:100FD000490081600020704780B5C26832F0C0428D
:100FE000C2600A00D2B2012A08D1C16851F0005192
:100FF000C160322000F0F8FD002002BDC9B2002916
:1010000004D1C16851F08041C160F2E70120F4E7EA
:101010000022890151F020010161521CDFF8A0106B
:101020008A4204D201698906F7D400207047032060
:10103000FCE7002110220261491CDFF88420914264
:1010400004D20269D206F7D4002070470320FCE7DF
:10105000BFFFBDFF30B492B2D21C9208002306E05D
:1010600010F5805424680D002C60091D5B1C934210
:10107000F6D3080030BC7047010048698969084010
:101080007047406910F0010070470021491C0C4A6C
:1010900091420FD20369002BF8D50021036953F068
:1010A00001030361491C914206D20369DB07F9D4AD
:1010B000002070470320FCE70320FAE7000000004F
:1010C000410D03000EB430B504002500002015F5D5
:1010D00060610860A06B50F40010A063A06B30F456
:1010E0000020A063A06B30F48020A063E06BC005FB
:1010F00014D50598012808D115F58060006850F0D6
:10110000040015F58061086010E015F58060006846
:1011100030F0040015F58061086007E015F5806087
:10112000006830F0040015F580610860102120008F
:10113000FFF76EFF2000FFF77CFF00200DE015EBAE
:10114000401111F5A0615FF0FF328A6015EB40118C
:1011500011F5A0610022CA60401C04998842EED3B8
:101160000121200000F057F8C82000F03DFD0020CC
:10117000A0615FF0FF306061E06BC0050AD54FF4FD
:1011800000706062DFF84802A062DFF84802C4F82D
:10119000000108E080206062DFF83C02A062DFF816
:1011A0003C02C4F800010698002803D1A06950F061
:1011B0001000A061A169DFF828020143A1610020AD
:1011C00030BC5DF810FB000010F5806212689208D8
:1011D000920010F580631A6010F5806212680B00AF
:1011E000DBB213F003031A4310F580631A600A00A0
:1011F000D2B2012A05D14BF6803110F580604160F2
:1012000007E0C9B2022904D141F2707110F5806083
:1012100041600020704781B00022009210F5886282
:1012200012680092009A32F02E020092009AD204C4
:1012300009D40A00D2B2012A05D1009A52F4805290
:1012400010F588631A60009AD20408D5C9B2002943
:1012500005D1009931F4805110F5886001600020BB
:1012600001B0704710F58060406980B2704730B4BB
:101270000300C9B2002413EB411212F5A0621268F8
:10128000C2F38142002A01D0022A4ED113EB41124F
:1012900012F5A062126852F0804213EB411515F569
:1012A000A0652A60C06A10F47F0F31D113EB4110A2
:1012B00010F5A060006820F0004013EB411212F519
:1012C000A062106013EB411010F5A060006850F0B0
:1012D000004013EB411212F5A062106013EB4110B5
:1012E00010F5A060006830F4004013EB411212F5D5
:1012F000A0621060641C40F2E930844207D213EB14
:10130000411010F5A06000680028F3D45DE05CE0B7
:1013100013EB411010F5A060006850F0004013EB93
:10132000411313F5A06318604FE013EB411010F563
:10133000A060006850F0804013EB411212F5A062EB
:10134000106013F58060006910F47F0F31D113EB4A
:10135000411010F5A060006820F0004013EB41122E
:1013600012F5A062106013EB411010F5A060006848
:1013700050F0004013EB411212F5A062106013EB25
:10138000411010F5A060006830F4004013EB4112EA
:1013900012F5A0621060641C40F2E930844207D26A
:1013A00013EB411010F5A06000680028F3D40CE0A6
:1013B0000BE013EB411010F5A060006850F0004006
:1013C00013EB411313F5A0631860002030BC704785
:1013D000000200010003E00080006000E000400027
:1013E000080020A3103A07D330B4B1E83810103AFF
:1013F000A0E83810F9D230BC530724BFB1E8081078
:10140000A0E8081044BF51F8043B40F8043BD20761
:1014100024BF31F8022B20F8022B44BF0B78037055
:101420007047121F17D35B0009D151F8043B20F815
:10143000023B1B0C121F20F8023BF6D20BE051F8C6
:10144000043B00F8013B1B0A20F8023B1B0C121F57
:1014500000F8013BF3D238BF121D521E24BF11F811
:10146000013B00F8013BF8D8704770477047704760
:1014700070477047704730B4002513E050F8042BD4
:10148000D30744BFA9F101039A18091F042942F8A0
:10149000045BFAD213468C0744BF15809B1CC90716
:1014A00048BF1D7050F8041B0029E7D130BC7047BD
:1014B00010B5040020886188884206D10020E080B1
:1014C000002020710020A0605DE0DFF868036188E3
:1014D0004118012902DB6188401802E06188401848
:1014E000404247F23151884219DB608821888842A6
:1014F0000BD2B4F90200411EB4F90000091A5FF0E2
:10150000FF3011FB00F0E0800FE05FF0FF31B4F935
:101510000200091AB4F900004118E18005E0B4F9AD
:101520000010B4F90200091AE180B4F9060001289C
:1015300001DB012001E05FF0FF3020712088608036
:10154000B4F9060000EE100AB8EEC00A10EE100A58
:1015500000F05EFBDFF8E022DFF8E03200F07CFB19
:101560000022DFF8DC3200F09BFC0022DFF8D432EE
:1015700000F072FB5FF00052DFF8CC3200F090FC1C
:1015800000F060FDA06010BDB049D1ED000AF4EE9E
:10159000400AF1EE10FA01D501210CE0D1ED000A6C
:1015A000F1EE600AB4EE600AF1EE10FA02D55FF0D7
:1015B000FF3100E000214172B5EE400AF1EE10FA71
:1015C00001DCB1EE400ADFED650A20EE200ADFED16
:1015D000970A80EE200A80ED040A90F9091000298C
:1015E0001BD0012903D0B1F1FF3F0BD01BE090EDE0
:1015F000040ABCEEC00A016881ED000A00214068BF
:10160000016010E000210268116090ED040ABCEE58
:10161000C00A406880ED000A05E000210268116000
:101620000021406801607047027E002A07D080EDEB
:10163000020A80ED030A002202610022027690ED88
:10164000011AD0ED001A31EE211AD0ED031A21EE65
:10165000211AD0ED001A90ED022A01EEC21AD0ED47
:10166000041A31EE211A80ED051A90ED031AB5EE39
:10167000401AF1EE10FA02DD90ED031A03E090ED4E
:10168000031AB1EE411AD0ED071AB4EE611AF1EE69
:1016900010FA01DB42690A60C16881604169016139
:1016A00030EE600A80ED030A70470000DFED600A4B
:1016B00080EE200ADFED5D0A20EE200A704738B583
:1016C0000068634988421CD1624C634800682080EE
:1016D0002000FFF7EDFE614D2900D4ED020A6048BD
:1016E00090ED000A5F48FFF79FFF5F4C95ED000A01
:1016F000FFF7DCFF84ED000A5C4894ED000AFFF779
:1017000043FF31BD10B500F0D1FC00F029F800F026
:10171000E7FC00F0C5FD00F021FE00F097FE00F0B0
:10172000F7FE00F039FFFFF7A3FB00F081FF3C213B
:101730004F4801F011F901224FF400514D4800F0DB
:1017400097F94D4C0821200001F084F80C2120006D
:1017500001F080F8494801F04DF8FEE700F05145EE
:1017600080B596B0302200210AA800F08FF814222C
:10177000002105A800F08AF81022002101A800F03D
:1017800085F8002000903E48016851F080510160CA
:10179000006810F0805000900098002000903948B8
:1017A000016851F480410160006810F480400090AD
:1017B000009801200A905FF480300B900220109076
:1017C0005FF480001190082012904FF4A8701390DD
:1017D00002201490072015900AA801F06FFB002842
:1017E00001D000F051F80F20059002200690002053
:1017F00007904FF4A05008904FF4805009900521B5
:1018000005A801F035FD002801D000F03DF80120C9
:101810000190C02002900220039001A801F022FE56
:10182000002801D000F030F817B000BD0000C84219
:101830000000F042D08AFFFF9A9999999999893FBF
:1018400000004E40000046406CC1963F0000002062
:1018500000100040C804002024000140D8040020EB
:10186000D40400201C000020DC0400200400002020
:1018700008040020000802404804002088040020DA
:10188000403802400070004072B6FEE710B50446D2
:1018900010460A460146204601F0C4FE204610BD0F
:1018A000F8B4002200220022002337E0082704E0D9
:1018B000DFF8D0219042F9D10727FFB213F00302DD
:1018C000D2B2920097403E431A00920845F8226037
:1018D000DFF8B4512A68A2434E68F60300D52243CC
:1018E0002A60DFF8A8512A68A2434E68B60300D5E3
:1018F00022432A60DFF898512A68A2434E68F60214
:1019000000D522432A60DFF88C512A68A2434E6832
:10191000B60201D5144322002A605B1C102B80F014
:10192000A580012515FA03F20C6814409442F4D105
:101930004A68012A08D04A68022A05D04A68112A52
:1019400002D04A68122A16D1866803271A00D2B23A
:1019500052009740BE43CF681A00D2B2520097405F
:101960003E43866042689D40AA434D68C5F300151A
:101970009D402A434260C66803251A00D2B2520035
:1019800015FA02F296438F681A00D2B252009740BD
:101990003E43C6604A68022A02D04A68122A17D11A
:1019A0001A00D20800EB8202166A0F2713F0070212
:1019B000D2B292009740BE430F6913F00702D2B231
:1019C000920097403E431A00D20800EB8202166252
:1019D00006681A00D2B252009540AE430D7915F058
:1019E00003051A00D2B2520095402E4306604A68A1
:1019F000D20092D500220092274A156855F48045FE
:101A00001560126812F480420092009A234D1A0069
:101A1000920855F822600F2713F00302D2B2920009
:101A20009740BE431E4A904201D1002745E71D4A18
:101A3000904201D1012740E71B4A904201D1022781
:101A40003BE71A4A904201D1032736E7184A9042F1
:101A500001D1042731E7174A904201D105272CE72D
:101A6000154A90427FF424AF062726E7F1BC704761
:101A7000D2B2002A02D089B2816102E089B209049F
:101A800081617047001C0240003C0140043C014061
:101A9000083C01400C3C01404438024008380140F9
:101AA000000002400004024000080240000C024016
:101AB00000100240001402400018024010F007001D
:101AC000414B1A684FF6FF010A40404951EA002194
:101AD0000A431A6070473C480068C0F30220704710
:101AE000010049B2002908D4012210F01F018A40E8
:101AF000374940B2400941F820207047020052B2F5
:101B0000002A04D40901334A40B2115407E0090104
:101B1000314A40B210F00F00104400F8041C704726
:101B200010B410F00700D0F10703052B01D30423F4
:101B300001E0D0F10703041D072C01D2002000E0D2
:101B4000C01E012414FA03F35B1E1940814014FAED
:101B500000F0401E1040084310BC704780B5411E85
:101B6000B1F1807F01D301200EE0401E1B490860C7
:101B70000F215FF0FF30FFF7C1FF00201849086018
:101B8000072018490860002002BD80B5FFF796FFC6
:101B900001BD70B504000D0016000020FFF79BFF8B
:101BA00032002900FFF7BCFF0100200040B2FFF720
:101BB000A5FF70BD80B540B2FFF792FF01BD80B5B3
:101BC000FFF7CCFF02BD00000CED00E00000FA05BD
:101BD00000E100E000E400E018ED00E014E000E0C7
:101BE00018E000E010E000E038B5040001F04EFD20
:101BF000050014F1010F02D004480078241801F008
:101C000045FD401BA042FAD331BD00BF4C0000206F
:101C1000C0F3C75181B1FF2906D0C110400721F0A0
:101C2000E04101F16051704741020CBF40F4E00116
:101C30006FF000410020704700F0004100020AD020
:101C4000B0FA80FC00FA0CF001F16051A1EB0C51EC
:101C500001EBD02140057047F0B540F2FF7581EAF5
:101C6000030C0CF0004C15EA11541DBF15EA135774
:101C7000AC42AF42E5E0BC41C1F31301C3F313032F
:101C8000801A994143F4801304D2641E40004941F4
:101C900080185941C90241EA5051B1FBF3F603FBE8
:101CA0001611A2FB0675D7EBC020A94102D2761E01
:101CB00080185941C90241EA5051B1FBF3FE03FBC0
:101CC0001E11A2FB0E75D7EBC020A94103D2AEF1C5
:101CD000010E80185941890241EA9051760546EA81
:101CE0008E2EB1FBF3F603FB1611A2FB0675D7EBA4
:101CF0008020A94102D2761E80185941C90241EACA
:101D000050514EEA060EB1FBF3F603FB1611A2FB8F
:101D10000675D7EBC020A94102D2761E8018594122
:101D2000C90241EA5051B1FBF3F703FB1711A2FBC3
:101D30000735D3EBC020A94167F100070CBF004273
:101D400047F0010766F3D5274FEA1E31B80814F5AE
:101D5000806412DDBD0775F1004250EB0E5051EB6F
:101D6000045111F5801F5CBF41EA0C01F0BD4CF03D
:101D70007F6141F0E0410020F0BDBD076D0840EA01
:101D80000E5041F48011D4F10104B4F120060ADAB6
:101D9000C4F120060200E04001FA06F3E1401843D6
:101DA000B24015430EE0342C13DCC6F1200445EAA2
:101DB00040056D0820FA06F2154321FA06F0A1400D
:101DC0000D43002175F1004250F1000051EB0C0170
:101DD000F0BD00205FEA0C01F0BDCFB992185B4165
:101DE000B3FA83F704BFB2FA82F6BF190B3FB7F11B
:101DF00020062FBF02FA06F3BB40C7F1200622FAE5
:101E000006F638BF3343BA401CB1E419641E33E709
:101E10007F4231F00041B1FA81F404BFB0FA80F69C
:101E2000A4190B3CB4F120062FBF00FA06F1A14023
:101E3000C4F1200620FA06F638BF3143A0403C1B0F
:101E40001AE7AC421ABF05EA1357AF4212E050EA54
:101E500041061CBF52EA4306BFE750EA410730463D
:101E600061461CBF41EA0551F0BD52EA430C08BF70
:101E7000C143F0BD00204FF4001616EB410F98BF90
:101E800016EB430F08BF16EB410F24BFC14305E01B
:101E900016EB430F0CBF61464CEA0551F0BD000044
:101EA000B0B581EA030C0CF0004C40F2FF7515EA66
:101EB00011541DBF15EA1357AC42AF4239E0E41983
:101EC00023EA455343F48013C90241F0004141EA3B
:101ED000505EC7021100A7FB020200284FF000006D
:101EE000EEFB01204FF00001E3FB072118BF42F099
:101EF0000102401800214941E3FB0E01A4F5806472
:101F00000F0302D252004041494154F101046CDDFB
:101F1000470872F1004250F1000051EB0451A1F565
:101F200080115CBF41EA0C01B0BD4CEA05510020B4
:101F3000B0BD05EA1357AC4214BFAF4241E050EACE
:101F4000410E1CBF52EA430E02E061460020B0BDC4
:101F500024423C441BD15FEA070EF6D0090302BFBE
:101F600001460020AEF1140EB1FA81F7AEEB070482
:101F700001FA07FE0C37C7F1200100FA07F7C84045
:101F80004EEA000E23EA455343F48013A2E733F0F0
:101F90000043B3FA83F704BFB2FA82FE77440B3FE3
:101FA000E41BB7F1200E2FBF02FA0EF3BB40C7F1BE
:101FB000200E22FA0EFE38BF43EA0E03BA40641C1C
:101FC00082E750EA410E14BF52EA430E6FF000015F
:101FD0004FF4001717EB430F8ABF194617EB410F59
:101FE000B5E74CEA05510020B0BDD4F10104B4F1CD
:101FF00020070FDAC4F12007520828BF42F001027F
:1020000010FA07F501FA07F7E1BF2A43E040384329
:10201000E1400FE0352C98DCC7F1200452EA400281
:1020200020FA07F218BF42F0010231FA07F0A1408E
:102030000A43002172F1004250F1000051EB0C0103
:10204000B0BD000001F000428B1AA3F16051B1F560
:10205000801F0ADBB1F17F6F1FD242EAC102C100CB
:1020600071F1004142EB507070470B15C3F1090349
:10207000212B10D2890241EA905180020128494166
:1020800041F0004121FA03F0C3F12003994071F1BE
:10209000004150417047100070476FF0000013EB93
:1020A000103F5CBF000E42EAC050704780B50B483D
:1020B000016851F400710160016851F480610160B0
:1020C000016851F4807101600320FFF75EFD00207C
:1020D00001F0E2FA01F006FB002002BD003C0240E4
:1020E0002DE9F04186B0142200216846FFF7CEFBAF
:1020F000002005906348016851F0100101600168FB
:1021000011F010010591059900210591016851F028
:1021100004010160016811F0040105910599002195
:102120000591016851F080010160016811F08001A2
:102130000591059900210591016851F001010160A7
:10214000016811F0010105910599002105910168CF
:1021500051F002010160016811F002010591059939
:1021600000210591016851F008010160006810F03C
:10217000080005900598444C002208212000FFF734
:1021800077FC424F00224FF400513800FFF770FCFB
:10219000012201213800FFF76BFC4FF210053C4E85
:1021A000002229003000FFF763FC08200090012086
:1021B0000190002002900020039069462000FFF764
:1021C0006FFB42F20100009001200190002002907C
:1021D0000020039069463800FFF762FB082000905A
:1021E000022001900020029000200390052004901E
:1021F00069463800FFF754FB01200090254F0197F6
:102200000020029069462448FFF74AFB0420009012
:102210000020019000200290DFF88080694640464F
:10222000FFF73EFB4FF480600090022001900020F9
:102230000290002003900520049069464046FFF775
:102240002FFB0095012001900020029000200390B8
:1022500069463000FFF724FB202000900020019009
:102260000020029069463000FFF71AFB0220009020
:1022700001970020029069462000FFF711FB06B08D
:10228000BDE8F081303802400010024000080240F2
:10229000000C024000001210000002400004024046
:1022A00080B52848284901602849416000218160A3
:1022B0000021C1604FF48041016100214161002192
:1022C00081610021C1610021016201F02DFA002825
:1022D00001D0FFF7D9FA01BD10B586B00400142271
:1022E000002101A8FFF7D2FA20681749884226D1B9
:1022F000002000901648016851F00201016000685A
:1023000010F00200009000984FF41070019012201D
:10231000029001200390002004900420059001A960
:102320000C48FFF7BDFA002000900B48016851F4FB
:1023300000110160006810F400100090009806B0D1
:1023400010BD00006C03002000540040A086010076
:1023500030380240000402404038024080B5344822
:10236000344901604FF40071416000228260002214
:10237000C260016130494161002181610021C16178
:102380000021016201F0C4FA002801D0FFF77CFAB5
:1023900001BD10B586B004001422002101A8FFF78A
:1023A00075FA2068234988423FD1002000902348D5
:1023B000016851F400410160006810F40040009091
:1023C0000098002000901E48016851F00101016052
:1023D000016811F00101009100990021009101684C
:1023E00051F004010160006810F0040000900098B2
:1023F0001020019002200290002003900020049001
:102400000620059001A90F48FFF74AFA4FF4A4509F
:1024100001900220029000200390002004900620EA
:10242000059001A90848FFF73BFA06B010BD00006F
:10243000C0030020003C004000770100403802400B
:1024400030380240000002400008024080B52B48AE
:102450002B4901604FF482714160002181600021AD
:10246000C16000210161002141614FF4007181616F
:102470000021C161002101620021416200218162CD
:102480000A21C16201F0A8FB002801D0FFF7FCF986
:1024900001BD10B586B004001422002101A8FFF789
:1024A000F5F920681649884225D10020009015488A
:1024B000016851F480510160006810F48050009070
:1024C0000098002000901048016851F0010101605F
:1024D000006810F0010000900098E02001900220B8
:1024E000029000200390002004900520059001A98F
:1024F0000648FFF7D5F906B010BD00001403002010
:1025000000300140443802403038024000000240B0
:1025100018B58BB02422002102A8FFF7B7F90822D2
:1025200000216846FFF7B2F9994C9A4820600020D4
:1025300060600020A0604FF6FF70E0600020206126
:10254000002060618020A0610320029000200390A1
:1025500001200490002005900020069000200790A4
:10256000012008900020099000200A9002A9200074
:1025700000F09EF9002801D0FFF786F900200090B6
:10258000002001906946200001F06EFB002801D078
:10259000FFF77AF90CB010BD18B589B008220021F8
:1025A0006846FFF773F91C22002102A8FFF76EF9B5
:1025B000794C7A482060002060600020A06040F6DE
:1025C0001F50E060002020618020A061200000F00A
:1025D00025F9002801D0FFF757F9002000900020CE
:1025E00001906946200001F03FFB002801D0FFF771
:1025F0004BF96020029000200390002004900020FE
:102600000690082202A9200000F086FA002801D0D6
:10261000FFF73AF90C2202A9200000F07DFA002809
:1026200001D0FFF731F9200000F08AF80AB010BDA0
:102630001CB5082200216846FFF728F9584C594874
:102640002060132060600020A0604AF20F40E0602C
:102650008020A061200000F0B1F8002801D0FFF731
:1026600013F900200090002001906946200001F03D
:10267000FBFA002801D0FFF707F913BD10B586B0AB
:1026800004001422002101A8FFF700F92068414945
:10269000884226D1002000904348016851F0010192
:1026A0000160006810F00100009000980020009088
:1026B0003E48016851F010010160006810F0100000
:1026C000009000984FF420600190022002900020BA
:1026D0000390002004900120059001A93448FFF7E1
:1026E000DFF806B010BD81B000682C4988420BD1DC
:1026F000002000902F48016851F00201016000683D
:1027000010F002000090009801B0704780B500689A
:102710002449884213D1002000902648016851F0D6
:1027200010010160006810F0100000900098002275
:1027300000213620FFF72DFA3620FFF73BFA01BDC6
:1027400010B586B004001422002101A8FFF79EF8FE
:1027500020681249884219D100200090134801686E
:1027600051F002010160006810F002000090009832
:10277000032001900220029000200390002004908A
:102780000220059001A90C48FFF78AF806B010BD99
:10279000080400200000014048040020000400401C
:1027A00088040020001000404438024030380240C5
:1027B00000100240403802400004024010B50400FE
:1027C000002C01D1012014E094F83D00002805D12F
:1027D000002084F83C002000FFF798FF022084F8D6
:1027E0003D00211D206800F01DFA012084F83D0005
:1027F000002010BD0168C96851F001010268D16074
:102800000168896811F00701062905D00168096887
:1028100051F00101006801600020704710B504000C
:10282000002C01D1012014E094F83D00002805D1CE
:10283000002084F83C002000FFF755FF022084F8B8
:102840003D00211D206800F0EDF9012084F83D00D5
:10285000002010BD10B504000122206800F01AFB12
:102860002068DFF84410884204D02068DFF83C106C
:10287000884201D1012000E00020C0B2002805D02C
:102880002068406C50F400402168486420688068EB
:1028900010F00700062805D02068006850F00100FD
:1028A00021680860002010BD0000014000040140C4
:1028B00070B504000D00002C01D101204BE094F80C
:1028C0003D00002805D1002084F83C002000FFF7DF
:1028D000D5FE022084F83D0020688168DFF83403CB
:1028E000014020688160211D206800F09BF920686C
:1028F0008168206882692068036A28680143DFF8DC
:1029000018030240A868AE6950EA06200243DFF8C7
:102910000C030240DFF808030240E868EE6950EA61
:102920000620024328692E6A360356EA001632430F
:1029300033F0220333F0880368686D6950EA0510AC
:10294000034320688160206882612068036201205F
:1029500084F83D00002070BD10B50400002902D0AD
:10296000042906D00BE001220021206800F092FA31
:102970000FE001220421206800F08CFA09E0012216
:102980000021206800F086FA01220421206800F06E
:1029900081FA2068006850F001002168086000207A
:1029A00010BD10B504002068006980071AD52068A2
:1029B000C068800716D57FF00200216808610120F9
:1029C00020772068806910F0030F03D0200001F009
:1029D000A1F905E0200001F09EF9200001F09CF92A
:1029E000002020772068006940071AD52068C06859
:1029F000400716D57FF00400216808610220207787
:102A00002068806910F4407F03D0200001F082F933
:102A100005E0200001F07FF9200001F07DF90020A1
:102A200020772068006900071AD52068C068000771
:102A300016D57FF0080021680861042020772068FF
:102A4000C06910F0030F03D0200001F063F905E026
:102A5000200001F060F9200001F05EF900202077ED
:102A600020680069C0061AD52068C068C00616D55F
:102A70007FF0100021680861082020772068C06975
:102A800010F4407F03D0200001F044F905E020005D
:102A900001F041F9200001F03FF900202077206883
:102AA0000069C0070AD52068C068C00706D57FF056
:102AB0000100216808612000FEF701FE206800691E
:102AC00000060AD52068C068000606D57FF08000A1
:102AD00021680861200001F020F9206800694006A3
:102AE0000AD52068C068400606D57FF040002168FE
:102AF0000861200001F012F92068006980060AD5FB
:102B00002068C068800606D57FF020002168086133
:102B1000200001F004F910BD38B504000D0094F850
:102B20003C00012801D1022073E0012084F83C0020
:102B3000022084F83D00002A06D0042A1BD0082A6F
:102B400031D00C2A46D05DE02900206800F0C7F89B
:102B50002068806950F008002168886120688069D9
:102B600030F0040021688861206881692869014388
:102B70002068816146E02900206800F0E2F82068C2
:102B8000806950F40060216888612068806930F4B1
:102B900080602168886120688069296950EA012085
:102BA000216888612EE02900206800F001F9206882
:102BB000C06950F008002168C8612068C06930F021
:102BC00004002168C8612068C16928690143206840
:102BD000C16117E02900206800F020F92068C06971
:102BE00050F400602168C8612068C06930F48060DA
:102BF0002168C8612068C069296950EA01202168FC
:102C0000C861FFE7012084F83D00002084F83C0003
:102C1000002032BDF8BFFFFFFCFCFFFFF3F3FFFF16
:102C20000F0FFFFF10B40468DFF83C32984212D057
:102C3000B0F1804F0FD0DFF8342290420BD0DFF894
:102C40003022904207D0DFF82C22904203D0DFF8E8
:102C50002822904203D134F070044A681443984209
:102C600025D0B0F1804F22D0DFF8002290421ED054
:102C7000DFF8FC2190421AD0DFF8F821904216D0FC
:102C8000DFF8F421904212D0DFF8F02190420ED00C
:102C90007B4A90420BD07B4A904208D07A4A9042BD
:102CA00005D07A4A904202D0794A904203D134F456
:102CB0004074CA68144334F080044A6914430460C1
:102CC0008A68C2620A688262984202D06A4A904266
:102CD00001D1096901630121416110BC704770B4E1
:102CE000026A520852000262046A4568836933F03E
:102CF00070039B089B000A68134334F002048A683F
:102D00001443594EB04202D05B4A904205D134F090
:102D10000804CA68144334F00404B04202D0564A8E
:102D2000904207D135F4807535F400754A69154332
:102D30008A6915434560836149684163046270BCD8
:102D4000704770B4026A32F010020262036A44688B
:102D5000826932F4E04232F440720D6852EA052290
:102D600033F020038D6853EA05133F4DA84202D08B
:102D7000414EB04206D133F08003CE6853EA0613C9
:102D800033F04003A84202D03B4DA84209D134F4AD
:102D9000806434F400644D6954EA85048D6954EA12
:102DA00085044460826149688163036270BC704736
:102DB00070B4026A32F480720262046A4568C369C0
:102DC00033F070039B089B000A68134334F40074CB
:102DD0008A6854EA0224244A904202D0264EB04225
:102DE00006D134F40064CE6854EA062434F48064D6
:102DF000904202D0204A904209D135F4805535F4F2
:102E000000554A6955EA02158A6955EA0215456076
:102E1000C3614968C163046270BC704730B4026A20
:102E200032F480520262036A4468C26932F4E042BA
:102E300032F440720D6852EA052233F400538D6873
:102E400053EA0533084DA84202D00B4DA84204D1E5
:102E500034F480444D6954EA85144460C261496881
:102E60000164036230BC7047000001400004004070
:102E700000080040000C00400004014000400140F8
:102E8000004401400048014000180040001C004080
:102E90000020004010B4012411F01F0314FA03F3C2
:102EA000046A34EA03030362036A11F01F0112FA91
:102EB00001F11943016210BC704700002DE9FC418B
:102EC0000400002C01D10120BBE12078C0075ED5B1
:102ED000DFF87403016811F00C01042909D00068BF
:102EE00010F00C0008280ED1DFF8600300684002E3
:102EF00009D5DFF85C030068800348D560680028C6
:102F000045D101209DE16068B0F5803F06D1DFF832
:102F10004003016851F48031016018E06068B0F549
:102F2000A02F0AD1DFF82803016851F48021016045
:102F3000016851F48031016009E0DFF81403016891
:102F400031F480310160016831F4802101606068F2
:102F500000280ED000F09AFB0500DFF8F4020068AC
:102F6000800314D400F092FB401B6528F5D30320A6
:102F700067E100F08BFB0500B5480068800306D5CB
:102F800000F084FB401B6528F6D3032059E120782C
:102F900080071DD5AC48016811F00C0F08D00068FF
:102FA00010F00C0008282AD1A8480068400226D456
:102FB000A7480168890704D5E168012901D00120EB
:102FC0003FE1016831F0F801226951EAC201016074
:102FD0002078000751D5606900283DD001209D4927
:102FE000086000F053FB05009B480068800744D44C
:102FF00000F04CFB401B0328F6D3032021E1E068DE
:10300000002818D001209549086000F03FFB05001A
:103010008F480168890706D400F038FB401B03285D
:10302000F6D303200DE1016831F0F801226951EA7D
:10303000C2010160CCE700208849086000F026FB4F
:103040000500834800688007C2D500F01FFB401BC5
:103050000328F6D30320F4E000207E49086000F046
:1030600015FB05007C480068800706D500F00EFBC4
:10307000401B0328F6D30320E3E0207840076FD5F8
:103080000026774D2868C0000BD4002000902868E7
:1030900050F080502860286810F080500090009810
:1030A0000126704F3868C00511D4386850F480701C
:1030B000386000F0EBFA80463868C00507D400F0AD
:1030C000E5FAB0EB08000328F6D30320B9E0A068C6
:1030D000012805D16448016851F00101016015E043
:1030E000A068052809D16048016851F00401016019
:1030F000016851F00101016008E05B48016849087E
:1031000049000160016831F004010160A0680028F5
:103110000FD000F0BBFA070053480068800718D4AE
:1031200000F0B4FAC01B41F289318842F4D3032085
:1031300087E000F0ABFA07004B480068800708D52D
:1031400000F0A4FAC01B41F289318842F4D3032075
:1031500077E0F6B2012E03D1286830F08050286065
:10316000A06900286CD03848006810F00C000828CE
:1031700043D0A06902282FD13C4E0020306000F0DF
:1031800085FA0700324D2868800106D500F07EFAE6
:10319000C01B0328F6D3032053E0E169206A0143F2
:1031A000606A51EA8011A06A4008401E51EA00415D
:1031B000E06A51EA0061254801600120306000F0BA
:1031C00065FA0400286880013AD400F05FFA001B19
:1031D0000328F7D3032034E000202449086000F0DE
:1031E00055FA04001A480068800129D500F04EFA0B
:1031F000001B0328F6D3032023E0A069012801D196
:1032000001201EE01148006810F48001E26991423B
:1032100014D110F03F01226A91420FD147F6C071DC
:103220000140626A914209D110F44031A26A914290
:1032300004D110F07060E16A884201D0012000E002
:103240000020BDE8F68100BF083802400438024083
:1032500000380240800E4742743802400000474266
:103260004038024000700040703802406000474221
:103270002DE9F04104000E00002C01D1012092E064
:10328000514D286810F00F00B04207D22E70286808
:1032900010F00F00B04201D0012084E020788007B8
:1032A00016D52078400704D54848016851F4E0510C
:1032B00001602078000704D54448016851F460415A
:1032C000016042490A6832F0F002A06802430A60D5
:1032D0002078C00735D56068012805D13C480068D2
:1032E000800313D401205EE06068022802D0606889
:1032F000032805D136480068800107D4012052E038
:1033000033480068800701D401204CE02F4F396812
:103310008908890060680143396000F0B7F9804688
:10332000386810F00C006168B0EB810F09D000F034
:10333000ADF9B0EB080041F289318842F0D30320A7
:1033400031E0286810F00F00864207D22E702868FE
:1033500010F00F00B04201D0012024E02078400797
:1033600006D51A490A6832F4E052E06802430A605E
:103370002078000707D51548016831F460412269BB
:1033800051EAC201016000F02DF812490F4A12689B
:10339000C2F30312895CC8400F4908600F480068F7
:1033A00000F07AF90020BDE8F0810B480068704712
:1033B00080B5FFF7FAFF0A49044A1268C2F3822275
:1033C000895CC84002BD0000003C02400838024051
:1033D00000380240944300084800002044000020C8
:1033E000C043000810B5002000200020002019482C
:1033F000006810F00C00002804D0042804D008282D
:1034000004D025E0144824E0144822E0144C22683B
:1034100012F03F022068400209D52068C0F38810EE
:103420000E49A1FB0001002300F07AFC08E02068AF
:10343000C0F388100849A1FB0001002300F070FCD4
:103440002168C1F30141491C4900B0FBF1F000E0E3
:10345000014810BD083802400024F40000127A0030
:1034600004380240F8B5040000200020207810F055
:10347000050F29D0DFF878510020286000F006F908
:103480000700DFF870613068000106D500F0FEF833
:10349000C01B0328F5D3032079E06068A168090701
:1034A00051EA8011DFF8500101600120286000F02E
:1034B000EDF805003068000106D400F0E7F8401B85
:1034C0000328F7D3032062E0207880075ED5002030
:1034D00000904A48016851F080510160006810F086
:1034E000805000900098464E306850F480703060F4
:1034F00000F0CCF805003068C00506D400F0C6F82E
:10350000401B0328F7D3032041E03E4D286810F408
:10351000407000281FD0E16811F4407188421AD031
:10352000286830F44070384901220A6000220A609D
:1035300028602868C0070ED500F0A8F806002868A3
:10354000800708D400F0A2F8801B41F2893188423C
:10355000F5D303201BE0E06810F44070B0F5407F25
:1035600009D12A490A6832F4F812E368284803406E
:103570001A430A6004E02548016831F4F81101603B
:103580002868E1680905090D084328600020F2BD9C
:1035900001000020002200220022012926D11B4820
:1035A000006810F40000002803D001281DD119483C
:1035B0001CE019480168490206D51849006810F056
:1035C0003F00B1FBF0F105E01549006810F03F0045
:1035D000B1FBF0F1084A1068C0F38810414310684D
:1035E000C0F30270B1FBF0F000E000207047000073
:1035F00068004742003802408438024040380240A8
:103600000070004070380240400E474208380240C7
:10361000FFFCFF0F0080BB000438024000127A005C
:103620000024F40062F30F2262F31F42401810F0EE
:10363000030308D0C91A1FD3DB0748BF00F8012DC8
:1036400028BF20F8022D130030B414461546103957
:1036500028BF20E93C00FAD8490728BF20E90C0020
:1036600048BF40F8042D890028BF20F8022D48BF2C
:1036700000F8012D30BC7047C91818BF00F8012DA3
:10368000CB0728BF00F8012D7047000001480068F3
:10369000704700BFE004002010B504004FF47A70BA
:1036A0000D490978B0FBF1F00C490968B1FBF0F065
:1036B000FEF785FA002801D001200CE0102C09D279
:1036C000002221005FF0FF30FEF763FA0448046037
:1036D000002000E0012010BD4C0000204800002028
:1036E0004400002080B5002000900D48016851F48E
:1036F00080410160006810F4804000900098002034
:1037000000900848016851F080510160006810F095
:103710008050009000980720FEF737FA01BD00BFE7
:10372000443802404038024038B50400002C01D132
:103730000120E0E094F83D00002805D1002084F845
:103740003C002000FEF7C8FD242084F83D002068DE
:10375000006840084000216808602068006850F454
:103760000040216808602068006830F4004021684B
:103770000860FFF71DFE0100DFF87C2160689042C1
:1037800008D2DFF87801814201D2012000E0002058
:10379000C0B207E0DFF86801814201D2012000E0F9
:1037A0000020C0B2012801D10120A4E0DFF85401BB
:1037B000B1FBF0F320684068800980011843256858
:1037C00068602068056A6068904201D25B1C07E06F
:1037D0004FF4967043434FF47A70B3FBF0F35B1CE5
:1037E000AD09AD012B43206803622068C36960689E
:1037F000904214D2481E62685200B0FBF2F0401CA6
:103800000005000D042801D204213EE0491E606835
:103810004000B1FBF0F1491C0905090D35E0A06835
:10382000002809D14A1E656803204543B2FBF5F024
:10383000401C0005000D0AE04A1E6568192045433A
:10384000B2FBF5F0401C0005000D50F4804000056F
:1038500001D1012119E0A068002809D1491E626840
:1038600003204243B1FBF2F1491C0905090D0AE0AE
:10387000491E626819204243B1FBF2F1491C090557
:10388000090D51F4804151F40041DFF87C00034000
:103890000B432068C3612068016831F0C001E06912
:1038A0000143206A01432068016020688168DFF8D5
:1038B0005C00014020690143E068014320688160A9
:1038C0002068C168090A0902A269606902431143BC
:1038D0002068C1602068006850F00100216808601D
:1038E00000202064202084F83D0000202063002078
:1038F00084F83E00002032BDA186010080841E00B5
:1039000000093D0040420F000030FFFF007CFFFF38
:1039100070B50400002C01D10120BFE094F84100F3
:10392000002808D1002084F840000FF2ED106063F9
:103930002000FEF72EFD022084F84100DFF86051E0
:103940002068C06928402168C86102202168086297
:103950006069022839D0E068002801D1102600E013
:103960002026A068212800D276000120FFF710FE53
:1039700001002069B0F5007F16D1E068002809D069
:10398000B000B1FBF0F10A2041436069B1FBF0F0F7
:10399000401D11E0F000B1FBF0F10A2041436069E5
:1039A000B1FBF0F0401D07E0B1FBF6F10A20414306
:1039B0006069B1FBF0F0401D0A21B0FBF1F111F09C
:1039C0000100091A4908000201E0022100208A1EB4
:1039D000FE2A05D3606C50F01000606401205DE0A9
:1039E000014320690143206801622068C1692940C0
:1039F00060680143A0680143E0680143A069014396
:103A000051F400612068C161206A012840D1DFF8CB
:103A100094006063DFF890102068884202D1DFF8DC
:103A20008C0001E05FF04020C2691540C56120684C
:103A3000884202D1DFF8740001E05FF040200222EA
:103A400002622068884202D1DFF8600001E05FF086
:103A50004020C3696068B0F5007F02D0606800282C
:103A600002D14FF4807200E00022A568E668A069E8
:103A7000064335432A4352F400621A4320688842C1
:103A800002D1DFF8280001E05FF0402092B2C2616D
:103A900000206064012084F84100002070BD000017
:103AA00040F0FFFF5D3F0008003800400034004058
:103AB00080B5416A09880268D160416A891C416207
:103AC000418D491E4185418D00290AD1016849680F
:103AD00031F0A00102685160012180F8411000F02E
:103AE00037FA01BD80B50168C968C26A1180C16A30
:103AF000891CC162418E491E4186418E00290AD12E
:103B00000168496831F0600102685160012180F864
:103B1000411000F01EFA01BD1CB504002068806849
:103B2000009094F84100042829D10098C00706D5D8
:103B300020684068400602D52000FFF7D3FF0098B8
:103B400040061CD520684068800618D5206840686B
:103B500030F0600021684860002001902068C06853
:103B600001902068806801900198012084F841004C
:103B7000606C50F002006064200000F0EBF994F8F3
:103B80004100032826D10098800706D520684068A8
:103B9000000602D52000FFF78BFF0098000719D51B
:103BA00020684068800615D52068406830F0A00085
:103BB000216848600020009020688068009000988C
:103BC000012084F84100606C50F004006064200023
:103BD00000F0C0F913BD000010B50400002C01D1A5
:103BE00001203FE0606A00280020A06294F85100A4
:103BF000002805D1002084F850002000FEF749FC81
:103C0000022084F851002068006830F040002168EC
:103C100008606168A0680143E068014320690143CE
:103C200060690143A06910F400700143E069014339
:103C3000206A0143A06A014320680160A169090C60
:103C400011F00401606A0143206841602068C06986
:103C500030F400602168C86100206065012084F8AC
:103C60005100002010BD000010B490F83C20012A43
:103C700001D102203CE0012280F83C20022280F8A1
:103C80003D20026854680268936834F070040A6842
:103C90001443026854600268174CA2421BD00268A9
:103CA000B2F1804F17D00268144CA24213D00268C0
:103CB000134CA2420FD00268124CA2420BD00268F1
:103CC000114CA24207D00268104CA24203D00268F5
:103CD0000F4CA24205D133F0800349680B430168C1
:103CE0008B60012180F83D10002180F83C100020FD
:103CF00010BC7047000000000000014000040040BC
:103D000000080040000C0040000401400040014059
:103D10000018004070477047704770477047704701
:103D2000BBBBE1B1B2F5803F80F07E80022A1ED994
:103D30008C46B1FBF2F102FB11C31B0443EA1043B2
:103D4000B3FBF2FC02FB1C3380B240EA0343B3FB3B
:103D5000F2F002FB103240EA0C4000237047022AC6
:103D600005D98446B0FBF2F002FB10C270474AB19D
:103D700005D100F0010249085FEA300070470022D7
:103D80000023704700F0E8B80B000200002100207B
:103D90007047904271EB030CF6D3B3F5803F2FD2FE
:103DA000F0B5B3FA83F7B1FA81F4A7F10F0E3D1B1A
:103DB0005340CEF1200602FA0EF2F3415340B5F122
:103DC0000F0746D80F3C2C444140C4F12006A040C8
:103DD000F1414140B1FBF3F603FB1611A2FB06458E
:103DE000001BA94102D2761E8018594180EA0102C7
:103DF00021FA0EF362FA0EF200215A403046F0BD6D
:103E000030B4B1FBF3FC03FB1C11A2FB0C45001BFF
:103E1000A94103D2ACF1010C8018594130BC0246D3
:103E20000B46604600217047B2F1807F65D3F0B544
:103E3000B2FA82F7B1FA81F4C7F10F063D1B22FAFC
:103E400006F307F1110EF24120355A40B5F10F0784
:103E5000B8D94140C4F12006A040F1414140B1FB36
:103E6000F3FC03FB1C11A2FB0C45001BA94103D270
:103E7000BCF1010C801859410F2F12D30F3FC90319
:103E800041EA5041B1FBF3F603FB1611A2FB0645D4
:103E9000D4EBC030A94102D2761E8018594146EABF
:103EA000CC3C07B34140C7F12006B840F141414046
:103EB000B1FBF3F603FB1611A2FB0645001BA9415B
:103EC00002D2761E8018594180EA010221FA0EF3CF
:103ED000C7F1200462FA0EF20CFA07F05A402CFAED
:103EE00004F13043F0BD80EA010221FA0EF3002113
:103EF00062FA0EF260465A40F0BD8C46B1FBF2F118
:103F000002FB11C31B0243EA1063B3FBF2FC02FB8A
:103F10001C331B024CEA002043EA1063B3FBF2FCA3
:103F200002FB1C331B024CEA002043EA1063B3FB84
:103F3000F2FC02FB1C331B024CEA002043EA106334
:103F4000B3FBF2FC02FB1C324CEA0020002370475A
:103F500070477047704700007047000038B584B064
:103F60000400206880680390DFF8C8522068A842E7
:103F700002D1DFF8C40201E05FF0402080680290C7
:103F80002068406801902068A84202D1DFF8A802AA
:103F900001E05FF04020406800906068B0F5007F6D
:103FA00002D06068002865D10398800705D5019884
:103FB000000602D5200000F0B5F80298C00705D52C
:103FC0000098400602D5200000F00CF90298400647
:103FD00027D50098800624D52068A84202D1DFF8B2
:103FE000580201E05FF04020416831F0600141601B
:103FF0002068406830F0A0002168486000200090F0
:104000002068C068009020688068009000980120B7
:1040100084F84100606C50F0020060642000FFF7FB
:1040200099FF039800077AD50198800677D5206814
:10403000406830F0A000216848602068A84202D1A2
:10404000DFF8F40101E05FF04020416831F06001E9
:104050004160002000902068806800900098012056
:1040600084F84100606C50F0040060642000FFF7A9
:1040700071FF54E00298800705D50098000602D52C
:10408000200000F06BF80398C00705D501984006A2
:1040900002D5200000F08AF8039840061ED501984A
:1040A00080061BD52068406830F0600021684860B9
:1040B0002068A84202D1DFF8800101E05FF04020D3
:1040C000416831F0A0014160012084F84100606C3A
:1040D00050F0020060642000FFF73CFF02980007E8
:1040E0001DD5009880061AD52068A84201D15248F3
:1040F00001E05FF04020416831F0A001416020689C
:10410000406830F0600021684860012084F8410078
:10411000606C50F0040060642000FFF71BFF05B0E6
:1041200030BD000080B5416A8A1C4262098802687D
:10413000D160418D491E4185418D00290DD1016815
:10414000496831F0A00102685160418E002904D114
:10415000012180F8411000F071F801BD10B5354A19
:104160000168914201D1344901E05FF04021436A86
:104170009C1C44621B88CB60418D491E4185418D4A
:10418000002912D10168914201D12B4901E05FF071
:1041900040214A6832F0A0024A60418E002904D1D1
:1041A000012180F8411000F049F810BD80B5C16AC6
:1041B0008A1CC2620268D2680A80418E491E41860A
:1041C000418E00290DD10168496831F06001026813
:1041D0005160418D002904D1012180F8411000F087
:1041E0002DF801BD80B5C16A8A1CC262114A0368FC
:1041F000934201D1104B01E05FF04023DB680B805C
:10420000418E491E4186418E002912D1016891429A
:1042100001D1094901E05FF040214A6832F06002B3
:104220004A60418D002904D1012180F8411000F03D
:1042300005F801BD0038004000340040704730B53B
:10424000016884684218416802EB5103C90703D52D
:104250004C4401E0491C05D19A420AD012F9011BD5
:1042600012F8015B002904F8015BF3D4491EF7D56D
:10427000F2E70C3030BD0000FEE7FEE7FEE7FEE7A8
:10428000FEE770477047704780B500F00FF801BD3A
:1042900080B50448FEF785FB01BD80B50248FBF7F9
:1042A000AEFF01BD880400205000002003480168D3
:1042B000034A127889180160704700BFE0040020AB
:1042C0004C00002010B5074979441831064C7C4455
:1042D000163404E00A68081D114488470146A142CB
:1042E000F8D110BD2C000000480000004EF68851A7
:1042F000CEF20001086840F470000860BFF34F8FF1
:10430000BFF36F8F4FF00070E1EE100A70470000AE
:1043100067D1FFFF9404000050000020000000005F
:104320001FFFFFFFE00100004C0000000000002024
:1043300000F00DF8002801D0FFF7C4FFAFF30080B4
:104340000020AFF30080FDF7DDF900F002F8012056
:10435000704700F001B800000746384600F002F848
:10436000FBE7000080B5AFF30080024A110018207F
:10437000ABBEFBE7260002000448016851F470015F
:1043800001605FF0006002490860704788ED00E05E
:1043900008ED00E00000000000000000010203043E
:1043A000060708090148804701480047794300088B
:1043B000B5430008AFF30080FFF798FFFFF7B8FFA1
:1043C0000000000001020304FFF7FEBFFFF7FEBF7D
:1043D000FFF7FEBFFFF7FEBFFFF7FEBFFFF7FEBF11
:1043E000FFF7FEBFFFF7FEBFFFF7FEBFFFF7FEBF01
:1043F000FFF7FEBFFFF7FEBFFFF7FEBFFFF7FEBFF1
:10440000FFF7FEBFFFF7FEBFFFF7FEBFFFF7FEBFE0
:10441000FFF7FEBFFFF7FEBFFFF7FEBFFFF7FEBFD0
:10442000FFF7FEBFFFF7FEBFFFF7FEBFFFF7FEBFC0
:10443000FFF7FEBFFFF7FEBFFFF7FEBFFFF7FEBFB0
:10444000FFF7FEBFFFF7FEBFFFF7FEBFFFF7FEBFA0
:10445000FFF7FEBFFFF7FEBFFFF7FEBFFFF7FEBF90
:10446000FFF7FEBFFFF7FEBFFFF7FEBFFFF7FEBF80
:10447000FFF7FEBFFFF7FEBFFFF7FEBFFFF7FEBF70
:10448000FFF7FEBFFFF7FEBFFFF7FEBFFFF7FEBF60
:10449000FFF7FEBFFFF7FEBFFFF7FEBFFFF7FEBF50
:1044A000FFF7FEBFFFF7FEBFFFF7FEBFFFF7FEBF40
:1044B000FFF7FEBFFFF7FEBFFFF7FEBFFFF7FEBF30
:1044C000FFF7FEBFFFF7FEBFFFF7FEBFFFF7FEBF20
:1044D000FFF7FEBFFFF7FEBFFFF7FEBFFFF7FEBF10
:1044E000FFF7FEBFFFF7FEBFFFF7FEBFFFF7FEBF00
:1044F000FFF7FEBFFFF7FEBFFFF7FEBFFFF7FEBFF0
:10450000FFF7FEBF0C333363413C0400404004001E
:104510004001EF0005803F295C8F3EF0000001F173
:0A452000000010FC000324F4000169
:04000005080043B5F7
:00000001FF
